{"abi":[{"type":"constructor","inputs":[{"name":"_vault","type":"address","internalType":"address"}],"stateMutability":"nonpayable"},{"type":"fallback","stateMutability":"payable"},{"type":"receive","stateMutability":"payable"},{"type":"function","name":"attackCount","inputs":[],"outputs":[{"name":"","type":"uint256","internalType":"uint256"}],"stateMutability":"view"},{"type":"function","name":"setTarget","inputs":[{"name":"proposalId","type":"bytes32","internalType":"bytes32"}],"outputs":[],"stateMutability":"nonpayable"},{"type":"function","name":"targetProposal","inputs":[],"outputs":[{"name":"","type":"bytes32","internalType":"bytes32"}],"stateMutability":"view"},{"type":"function","name":"vault","inputs":[],"outputs":[{"name":"","type":"address","internalType":"contract ARESVault"}],"stateMutability":"view"}],"bytecode":{"object":"0x608060405234801561000f575f5ffd5b506040516104da3803806104da833981810160405281019061003191906100d4565b805f5f6101000a81548173ffffffffffffffffffffffffffffffffffffffff021916908373ffffffffffffffffffffffffffffffffffffffff160217905550506100ff565b5f5ffd5b5f73ffffffffffffffffffffffffffffffffffffffff82169050919050565b5f6100a38261007a565b9050919050565b6100b381610099565b81146100bd575f5ffd5b50565b5f815190506100ce816100aa565b92915050565b5f602082840312156100e9576100e8610076565b5b5f6100f6848285016100c0565b91505092915050565b6103ce8061010c5f395ff3fe608060405260043610610042575f3560e01c8063370a4c74146100f6578063407c28211461011e578063cfb4e6f114610148578063fbfa77cf1461017257610049565b3661004957005b60025f81548092919061005b9061020c565b9190505550600360025410156100f4575f5f9054906101000a900473ffffffffffffffffffffffffffffffffffffffff1673ffffffffffffffffffffffffffffffffffffffff1663980ff6c66001546040518263ffffffff1660e01b81526004016100c6919061026b565b5f604051808303815f87803b1580156100dd575f5ffd5b505af11580156100ef573d5f5f3e3d5ffd5b505050505b005b348015610101575f5ffd5b5061011c600480360381019061011791906102b2565b61019c565b005b348015610129575f5ffd5b506101326101a6565b60405161013f91906102ec565b60405180910390f35b348015610153575f5ffd5b5061015c6101ac565b604051610169919061026b565b60405180910390f35b34801561017d575f5ffd5b506101866101b2565b604051610193919061037f565b60405180910390f35b8060018190555050565b60025481565b60015481565b5f5f9054906101000a900473ffffffffffffffffffffffffffffffffffffffff1681565b7f4e487b71000000000000000000000000000000000000000000000000000000005f52601160045260245ffd5b5f819050919050565b5f61021682610203565b91507fffffffffffffffffffffffffffffffffffffffffffffffffffffffffffffffff8203610248576102476101d6565b5b600182019050919050565b5f819050919050565b61026581610253565b82525050565b5f60208201905061027e5f83018461025c565b92915050565b5f5ffd5b61029181610253565b811461029b575f5ffd5b50565b5f813590506102ac81610288565b92915050565b5f602082840312156102c7576102c6610284565b5b5f6102d48482850161029e565b91505092915050565b6102e681610203565b82525050565b5f6020820190506102ff5f8301846102dd565b92915050565b5f73ffffffffffffffffffffffffffffffffffffffff82169050919050565b5f819050919050565b5f61034761034261033d84610305565b610324565b610305565b9050919050565b5f6103588261032d565b9050919050565b5f6103698261034e565b9050919050565b6103798161035f565b82525050565b5f6020820190506103925f830184610370565b9291505056fea264697066735822122096bc58020b4c444bbb1b807c59aa35de46972bbb4bd8a49e5d33cdf3d02ef72764736f6c63430008210033","linkReferences":{}},"methodIdentifiers":{"attackCount()":"407c2821","setTarget(bytes32)":"370a4c74","targetProposal()":"cfb4e6f1","vault()":"fbfa77cf"},"id":33}