{"abi":[{"type":"function","name":"balanceOf","inputs":[{"name":"","type":"address","internalType":"address"}],"outputs":[{"name":"","type":"uint256","internalType":"uint256"}],"stateMutability":"view"},{"type":"function","name":"mint","inputs":[{"name":"to","type":"address","internalType":"address"},{"name":"amount","type":"uint256","internalType":"uint256"}],"outputs":[],"stateMutability":"nonpayable"},{"type":"function","name":"transfer","inputs":[{"name":"to","type":"address","internalType":"address"},{"name":"amount","type":"uint256","internalType":"uint256"}],"outputs":[{"name":"","type":"bool","internalType":"bool"}],"stateMutability":"nonpayable"}],"bytecode":{"object":"0x6080604052348015600e575f5ffd5b506104ed8061001c5f395ff3fe608060405234801561000f575f5ffd5b506004361061003f575f3560e01c806340c10f191461004357806370a082311461005f578063a9059cbb1461008f575b5f5ffd5b61005d600480360381019061005891906102e8565b6100bf565b005b61007960048036038101906100749190610326565b610115565b6040516100869190610360565b60405180910390f35b6100a960048036038101906100a491906102e8565b610129565b6040516100b69190610393565b60405180910390f35b805f5f8473ffffffffffffffffffffffffffffffffffffffff1673ffffffffffffffffffffffffffffffffffffffff1681526020019081526020015f205f82825461010a91906103d9565b925050819055505050565b5f602052805f5260405f205f915090505481565b5f815f5f3373ffffffffffffffffffffffffffffffffffffffff1673ffffffffffffffffffffffffffffffffffffffff1681526020019081526020015f205410156101a9576040517f08c379a00000000000000000000000000000000000000000000000000000000081526004016101a090610466565b60405180910390fd5b815f5f3373ffffffffffffffffffffffffffffffffffffffff1673ffffffffffffffffffffffffffffffffffffffff1681526020019081526020015f205f8282546101f49190610484565b92505081905550815f5f8573ffffffffffffffffffffffffffffffffffffffff1673ffffffffffffffffffffffffffffffffffffffff1681526020019081526020015f205f82825461024691906103d9565b925050819055506001905092915050565b5f5ffd5b5f73ffffffffffffffffffffffffffffffffffffffff82169050919050565b5f6102848261025b565b9050919050565b6102948161027a565b811461029e575f5ffd5b50565b5f813590506102af8161028b565b92915050565b5f819050919050565b6102c7816102b5565b81146102d1575f5ffd5b50565b5f813590506102e2816102be565b92915050565b5f5f604083850312156102fe576102fd610257565b5b5f61030b858286016102a1565b925050602061031c858286016102d4565b9150509250929050565b5f6020828403121561033b5761033a610257565b5b5f610348848285016102a1565b91505092915050565b61035a816102b5565b82525050565b5f6020820190506103735f830184610351565b92915050565b5f8115159050919050565b61038d81610379565b82525050565b5f6020820190506103a65f830184610384565b92915050565b7f4e487b71000000000000000000000000000000000000000000000000000000005f52601160045260245ffd5b5f6103e3826102b5565b91506103ee836102b5565b9250828201905080821115610406576104056103ac565b5b92915050565b5f82825260208201905092915050565b7f696e73756666696369656e7400000000000000000000000000000000000000005f82015250565b5f610450600c8361040c565b915061045b8261041c565b602082019050919050565b5f6020820190508181035f83015261047d81610444565b9050919050565b5f61048e826102b5565b9150610499836102b5565b92508282039050818111156104b1576104b06103ac565b5b9291505056fea2646970667358221220aeaf18516798a47ddd9acf980cf5a54e31c1310966b18e74af08091b7ea5b4e364736f6c63430008210033","linkReferences":{}},"methodIdentifiers":{"balanceOf(address)":"70a08231","mint(address,uint256)":"40c10f19","transfer(address,uint256)":"a9059cbb"},"id":33}