{"abi":[{"type":"constructor","inputs":[{"name":"_governance","type":"address","internalType":"address"},{"name":"_proposalEngine","type":"address","internalType":"address"},{"name":"threshold","type":"uint256","internalType":"uint256"},{"name":"initialSigners","type":"address[]","internalType":"address[]"}],"stateMutability":"nonpayable"},{"type":"function","name":"addSigner","inputs":[{"name":"signer","type":"address","internalType":"address"}],"outputs":[],"stateMutability":"nonpayable"},{"type":"function","name":"emergencyStop","inputs":[],"outputs":[],"stateMutability":"nonpayable"},{"type":"function","name":"getDomainSeparator","inputs":[],"outputs":[{"name":"","type":"bytes32","internalType":"bytes32"}],"stateMutability":"view"},{"type":"function","name":"getSignatureCount","inputs":[{"name":"proposalId","type":"bytes32","internalType":"bytes32"}],"outputs":[{"name":"","type":"uint256","internalType":"uint256"}],"stateMutability":"view"},{"type":"function","name":"getSignerNonce","inputs":[{"name":"signer","type":"address","internalType":"address"}],"outputs":[{"name":"","type":"uint256","internalType":"uint256"}],"stateMutability":"view"},{"type":"function","name":"getThreshold","inputs":[],"outputs":[{"name":"","type":"uint256","internalType":"uint256"}],"stateMutability":"view"},{"type":"function","name":"governance","inputs":[],"outputs":[{"name":"","type":"address","internalType":"address"}],"stateMutability":"view"},{"type":"function","name":"hasSigned","inputs":[{"name":"proposalId","type":"bytes32","internalType":"bytes32"},{"name":"signer","type":"address","internalType":"address"}],"outputs":[{"name":"","type":"bool","internalType":"bool"}],"stateMutability":"view"},{"type":"function","name":"isAuthorizedSigner","inputs":[{"name":"signer","type":"address","internalType":"address"}],"outputs":[{"name":"","type":"bool","internalType":"bool"}],"stateMutability":"view"},{"type":"function","name":"proposalEngine","inputs":[],"outputs":[{"name":"","type":"address","internalType":"address"}],"stateMutability":"view"},{"type":"function","name":"removeSigner","inputs":[{"name":"signer","type":"address","internalType":"address"}],"outputs":[],"stateMutability":"nonpayable"},{"type":"function","name":"resume","inputs":[],"outputs":[],"stateMutability":"nonpayable"},{"type":"function","name":"stopped","inputs":[],"outputs":[{"name":"","type":"bool","internalType":"bool"}],"stateMutability":"view"},{"type":"function","name":"submitSignature","inputs":[{"name":"proposalId","type":"bytes32","internalType":"bytes32"},{"name":"signature","type":"bytes","internalType":"bytes"}],"outputs":[],"stateMutability":"nonpayable"},{"type":"function","name":"updateGovernance","inputs":[{"name":"newGovernance","type":"address","internalType":"address"}],"outputs":[],"stateMutability":"nonpayable"},{"type":"function","name":"updateThreshold","inputs":[{"name":"newThreshold","type":"uint256","internalType":"uint256"}],"outputs":[],"stateMutability":"nonpayable"},{"type":"function","name":"verifySignature","inputs":[{"name":"proposalId","type":"bytes32","internalType":"bytes32"},{"name":"signer","type":"address","internalType":"address"},{"name":"signature","type":"bytes","internalType":"bytes"}],"outputs":[{"name":"","type":"bool","internalType":"bool"}],"stateMutability":"view"},{"type":"event","name":"EmergencyStop","inputs":[{"name":"triggeredBy","type":"address","indexed":false,"internalType":"address"},{"name":"timestamp","type":"uint256","indexed":false,"internalType":"uint256"}],"anonymous":false},{"type":"event","name":"GovernanceUpdated","inputs":[{"name":"oldGovernance","type":"address","indexed":false,"internalType":"address"},{"name":"newGovernance","type":"address","indexed":false,"internalType":"address"}],"anonymous":false},{"type":"event","name":"SignatureSubmitted","inputs":[{"name":"proposalId","type":"bytes32","indexed":true,"internalType":"bytes32"},{"name":"signer","type":"address","indexed":true,"internalType":"address"},{"name":"nonce","type":"uint256","indexed":false,"internalType":"uint256"}],"anonymous":false},{"type":"event","name":"ThresholdReached","inputs":[{"name":"proposalId","type":"bytes32","indexed":true,"internalType":"bytes32"},{"name":"totalSignatures","type":"uint256","indexed":false,"internalType":"uint256"}],"anonymous":false},{"type":"error","name":"InvalidAmount","inputs":[{"name":"amount","type":"uint256","internalType":"uint256"}]},{"type":"error","name":"InvalidSignature","inputs":[{"name":"signer","type":"address","internalType":"address"},{"name":"proposalId","type":"bytes32","internalType":"bytes32"}]},{"type":"error","name":"InvalidSigner","inputs":[{"name":"signer","type":"address","internalType":"address"}]},{"type":"error","name":"ProposalNotFound","inputs":[{"name":"proposalId","type":"bytes32","internalType":"bytes32"}]},{"type":"error","name":"SignatureAlreadyUsed","inputs":[{"name":"signer","type":"address","internalType":"address"},{"name":"nonce","type":"uint256","internalType":"uint256"}]},{"type":"error","name":"SignerAlreadyExists","inputs":[{"name":"signer","type":"address","internalType":"address"}]},{"type":"error","name":"ThresholdNotMet","inputs":[{"name":"required","type":"uint256","internalType":"uint256"},{"name":"received","type":"uint256","internalType":"uint256"}]},{"type":"error","name":"Unauthorized","inputs":[{"name":"caller","type":"address","internalType":"address"}]},{"type":"error","name":"ZeroAddress","inputs":[]}],"bytecode":{"object":"0x608060405234801561000f575f5ffd5b50604051611e8a380380611e8a833981810160405281019061003191906105fe565b835f73ffffffffffffffffffffffffffffffffffffffff168173ffffffffffffffffffffffffffffffffffffffff1603610097576040517fd92e233d00000000000000000000000000000000000000000000000000000000815260040160405180910390fd5b805f5f6101000a81548173ffffffffffffffffffffffffffffffffffffffff021916908373ffffffffffffffffffffffffffffffffffffffff160217905550600180819055505f5f60146101000a81548160ff021916908315150217905550505f73ffffffffffffffffffffffffffffffffffffffff168373ffffffffffffffffffffffffffffffffffffffff160361015c576040517fd92e233d00000000000000000000000000000000000000000000000000000000815260040160405180910390fd5b5f82036101a057816040517f3728b83d000000000000000000000000000000000000000000000000000000008152600401610197919061068d565b60405180910390fd5b81815110156101e9578181516040517fb7842ce00000000000000000000000000000000000000000000000000000000081526004016101e09291906106a6565b60405180910390fd5b8260075f6101000a81548173ffffffffffffffffffffffffffffffffffffffff021916908373ffffffffffffffffffffffffffffffffffffffff160217905550816006819055505f5f90505b8151811015610339575f73ffffffffffffffffffffffffffffffffffffffff16828281518110610268576102676106cd565b5b602002602001015173ffffffffffffffffffffffffffffffffffffffff16036102bd576040517fd92e233d00000000000000000000000000000000000000000000000000000000815260040160405180910390fd5b600160025f8484815181106102d5576102d46106cd565b5b602002602001015173ffffffffffffffffffffffffffffffffffffffff1673ffffffffffffffffffffffffffffffffffffffff1681526020019081526020015f205f6101000a81548160ff0219169083151502179055508080600101915050610235565b507f8b73c3c69bb8fe3d512ecc4cf759cc79239f7b179b0ffacaa9a75d522b39400f6040518060400160405280600c81526020017f4152455350726f746f636f6c0000000000000000000000000000000000000000815250805190602001206040518060400160405280600181526020017f31000000000000000000000000000000000000000000000000000000000000008152508051906020012046306040516020016103eb959493929190610721565b6040516020818303038152906040528051906020012060088190555050505050610772565b5f604051905090565b5f5ffd5b5f5ffd5b5f73ffffffffffffffffffffffffffffffffffffffff82169050919050565b5f61044a82610421565b9050919050565b61045a81610440565b8114610464575f5ffd5b50565b5f8151905061047581610451565b92915050565b5f819050919050565b61048d8161047b565b8114610497575f5ffd5b50565b5f815190506104a881610484565b92915050565b5f5ffd5b5f601f19601f8301169050919050565b7f4e487b71000000000000000000000000000000000000000000000000000000005f52604160045260245ffd5b6104f8826104b2565b810181811067ffffffffffffffff82111715610517576105166104c2565b5b80604052505050565b5f610529610410565b905061053582826104ef565b919050565b5f67ffffffffffffffff821115610554576105536104c2565b5b602082029050602081019050919050565b5f5ffd5b5f61057b6105768461053a565b610520565b9050808382526020820190506020840283018581111561059e5761059d610565565b5b835b818110156105c757806105b38882610467565b8452602084019350506020810190506105a0565b5050509392505050565b5f82601f8301126105e5576105e46104ae565b5b81516105f5848260208601610569565b91505092915050565b5f5f5f5f6080858703121561061657610615610419565b5b5f61062387828801610467565b945050602061063487828801610467565b93505060406106458782880161049a565b925050606085015167ffffffffffffffff8111156106665761066561041d565b5b610672878288016105d1565b91505092959194509250565b6106878161047b565b82525050565b5f6020820190506106a05f83018461067e565b92915050565b5f6040820190506106b95f83018561067e565b6106c6602083018461067e565b9392505050565b7f4e487b71000000000000000000000000000000000000000000000000000000005f52603260045260245ffd5b5f819050919050565b61070c816106fa565b82525050565b61071b81610440565b82525050565b5f60a0820190506107345f830188610703565b6107416020830187610703565b61074e6040830186610703565b61075b606083018561067e565b6107686080830184610712565b9695505050505050565b61170b8061077f5f395ff3fe608060405234801561000f575f5ffd5b5060043610610109575f3560e01c806375f12b21116100a0578063df6158ba1161006f578063df6158ba1461028f578063e75235b8146102ab578063e8505e81146102c9578063eb12d61e146102f9578063ed24911d1461031557610109565b806375f12b211461020957806398a3410d14610227578063b256126314610257578063d7d7442f1461027357610109565b80634048e07c116100dc5780634048e07c1461019357806349045e16146101b15780635aa6e675146101e157806363a599a4146101ff57610109565b8063046f7da21461010d5780630e316ab71461011757806329832c0f146101335780632bbe96bc14610163575b5f5ffd5b610115610333565b005b610131600480360381019061012c9190611157565b610356565b005b61014d600480360381019061014891906111b5565b610440565b60405161015a919061120d565b60405180910390f35b61017d60048036038101906101789190611226565b6104a2565b60405161018a9190611269565b60405180910390f35b61019b6104bc565b6040516101a89190611291565b60405180910390f35b6101cb60048036038101906101c69190611157565b6104e1565b6040516101d8919061120d565b60405180910390f35b6101e9610533565b6040516101f69190611291565b60405180910390f35b610207610557565b005b6102116105b4565b60405161021e919061120d565b60405180910390f35b610241600480360381019061023c919061130b565b6105c6565b60405161024e919061120d565b60405180910390f35b610271600480360381019061026c9190611157565b610620565b005b61028d600480360381019061028891906113a6565b610728565b005b6102a960048036038101906102a491906113d1565b61077e565b005b6102b3610c72565b6040516102c09190611269565b60405180910390f35b6102e360048036038101906102de9190611157565b610c7b565b6040516102f09190611269565b60405180910390f35b610313600480360381019061030e9190611157565b610cc1565b005b61031d610e12565b60405161032a919061143d565b60405180910390f35b61033b610e1b565b5f5f60146101000a81548160ff021916908315150217905550565b61035e610e1b565b60025f8273ffffffffffffffffffffffffffffffffffffffff1673ffffffffffffffffffffffffffffffffffffffff1681526020019081526020015f205f9054906101000a900460ff166103e957806040517fbf18af430000000000000000000000000000000000000000000000000000000081526004016103e09190611291565b60405180910390fd5b5f60025f8373ffffffffffffffffffffffffffffffffffffffff1673ffffffffffffffffffffffffffffffffffffffff1681526020019081526020015f205f6101000a81548160ff02191690831515021790555050565b5f60035f8481526020019081526020015f205f8373ffffffffffffffffffffffffffffffffffffffff1673ffffffffffffffffffffffffffffffffffffffff1681526020019081526020015f205f9054906101000a900460ff16905092915050565b5f60045f8381526020019081526020015f20549050919050565b60075f9054906101000a900473ffffffffffffffffffffffffffffffffffffffff1681565b5f60025f8373ffffffffffffffffffffffffffffffffffffffff1673ffffffffffffffffffffffffffffffffffffffff1681526020019081526020015f205f9054906101000a900460ff169050919050565b5f5f9054906101000a900473ffffffffffffffffffffffffffffffffffffffff1681565b61055f610e1b565b60015f60146101000a81548160ff0219169083151502179055507f56a7c9bf9dfb88f577de1e2cea5000f3ea7e04c48c04d4a55279c0bd523db5d933426040516105aa929190611456565b60405180910390a1565b5f60149054906101000a900460ff1681565b5f5f60055f8673ffffffffffffffffffffffffffffffffffffffff1673ffffffffffffffffffffffffffffffffffffffff1681526020019081526020015f205490506106158686838787610ead565b915050949350505050565b610628610e1b565b5f73ffffffffffffffffffffffffffffffffffffffff168173ffffffffffffffffffffffffffffffffffffffff160361068d576040517fd92e233d00000000000000000000000000000000000000000000000000000000815260040160405180910390fd5b7f434a2db650703b36c824e745330d6397cdaa9ee2cc891a4938ae853e1c50b68d5f5f9054906101000a900473ffffffffffffffffffffffffffffffffffffffff16826040516106de92919061147d565b60405180910390a1805f5f6101000a81548173ffffffffffffffffffffffffffffffffffffffff021916908373ffffffffffffffffffffffffffffffffffffffff16021790555050565b610730610e1b565b5f810361077457806040517f3728b83d00000000000000000000000000000000000000000000000000000000815260040161076b9190611269565b60405180910390fd5b8060068190555050565b610786610f71565b60025f3373ffffffffffffffffffffffffffffffffffffffff1673ffffffffffffffffffffffffffffffffffffffff1681526020019081526020015f205f9054906101000a900460ff1661081157336040517fbf18af430000000000000000000000000000000000000000000000000000000081526004016108089190611291565b60405180910390fd5b60075f9054906101000a900473ffffffffffffffffffffffffffffffffffffffff1673ffffffffffffffffffffffffffffffffffffffff16634410a944846040518263ffffffff1660e01b815260040161086b919061143d565b602060405180830381865afa158015610886573d5f5f3e3d5ffd5b505050506040513d601f19601f820116820180604052508101906108aa91906114ce565b6108eb57826040517fe2acee5b0000000000000000000000000000000000000000000000000000000081526004016108e2919061143d565b60405180910390fd5b60035f8481526020019081526020015f205f3373ffffffffffffffffffffffffffffffffffffffff1673ffffffffffffffffffffffffffffffffffffffff1681526020019081526020015f205f9054906101000a900460ff16156109c5573360055f3373ffffffffffffffffffffffffffffffffffffffff1673ffffffffffffffffffffffffffffffffffffffff1681526020019081526020015f20546040517f25ecbb2b0000000000000000000000000000000000000000000000000000000081526004016109bc929190611456565b60405180910390fd5b5f60055f3373ffffffffffffffffffffffffffffffffffffffff1673ffffffffffffffffffffffffffffffffffffffff1681526020019081526020015f20549050610a138433838686610ead565b610a565733846040517f0e96aab8000000000000000000000000000000000000000000000000000000008152600401610a4d9291906114f9565b60405180910390fd5b600160035f8681526020019081526020015f205f3373ffffffffffffffffffffffffffffffffffffffff1673ffffffffffffffffffffffffffffffffffffffff1681526020019081526020015f205f6101000a81548160ff02191690831515021790555060045f8581526020019081526020015f205f815480929190610adb9061154d565b919050555060055f3373ffffffffffffffffffffffffffffffffffffffff1673ffffffffffffffffffffffffffffffffffffffff1681526020019081526020015f205f815480929190610b2d9061154d565b91905055503373ffffffffffffffffffffffffffffffffffffffff16847fd604b73faa8796b7c51d116e64e0e7bb5bdb8781cdb2761080d0f7445be42e9383604051610b799190611269565b60405180910390a360065460045f8681526020019081526020015f205410610c6c5760075f9054906101000a900473ffffffffffffffffffffffffffffffffffffffff1673ffffffffffffffffffffffffffffffffffffffff1663dc2ac081856040518263ffffffff1660e01b8152600401610bf5919061143d565b5f604051808303815f87803b158015610c0c575f5ffd5b505af1158015610c1e573d5f5f3e3d5ffd5b50505050837fed9753748c66ee1df3e83ee8ba5d83244f01c004097e0e4eebd94e5fd6fea5f160045f8781526020019081526020015f2054604051610c639190611269565b60405180910390a25b50505050565b5f600654905090565b5f60055f8373ffffffffffffffffffffffffffffffffffffffff1673ffffffffffffffffffffffffffffffffffffffff1681526020019081526020015f20549050919050565b610cc9610e1b565b5f73ffffffffffffffffffffffffffffffffffffffff168173ffffffffffffffffffffffffffffffffffffffff1603610d2e576040517fd92e233d00000000000000000000000000000000000000000000000000000000815260040160405180910390fd5b60025f8273ffffffffffffffffffffffffffffffffffffffff1673ffffffffffffffffffffffffffffffffffffffff1681526020019081526020015f205f9054906101000a900460ff1615610dba57806040517f899ec369000000000000000000000000000000000000000000000000000000008152600401610db19190611291565b60405180910390fd5b600160025f8373ffffffffffffffffffffffffffffffffffffffff1673ffffffffffffffffffffffffffffffffffffffff1681526020019081526020015f205f6101000a81548160ff02191690831515021790555050565b5f600854905090565b5f5f9054906101000a900473ffffffffffffffffffffffffffffffffffffffff1673ffffffffffffffffffffffffffffffffffffffff163373ffffffffffffffffffffffffffffffffffffffff1614610eab57336040517f8e4a23d6000000000000000000000000000000000000000000000000000000008152600401610ea29190611291565b60405180910390fd5b565b5f5f5f7f3db4b808420af4a981a9e1e7cc71d39ebb06326f5f6288ab884782045ac9138990505f46905060405182815289602082015288604082015287606082015281608082015260a081209350505f5f600854905060405160198153600180820153816002820152856022820152604281209250505f610f2f838a8a610fc4565b90508a73ffffffffffffffffffffffffffffffffffffffff168173ffffffffffffffffffffffffffffffffffffffff1614965050505050505095945050505050565b5f60149054906101000a900460ff1615610fc257336040517f8e4a23d6000000000000000000000000000000000000000000000000000000008152600401610fb99190611291565b60405180910390fd5b565b5f60418383905014610fd8575f90506110ee565b5f5f5f85855f90602092610fee9392919061159c565b90610ff991906115ec565b9250858560209060409261100f9392919061159c565b9061101a91906115ec565b9150858560408181106110305761102f61164a565b5b9050013560f81c60f81b60f81c90507f7fffffffffffffffffffffffffffffff5d576e7357a4501ddfe92f46681b20a0825f1c1115611074575f93505050506110ee565b601b8160ff161415801561108c5750601c8160ff1614155b1561109c575f93505050506110ee565b6001878285856040515f81526020016040526040516110be9493929190611692565b6020604051602081039080840390855afa1580156110de573d5f5f3e3d5ffd5b5050506020604051035193505050505b9392505050565b5f5ffd5b5f5ffd5b5f73ffffffffffffffffffffffffffffffffffffffff82169050919050565b5f611126826110fd565b9050919050565b6111368161111c565b8114611140575f5ffd5b50565b5f813590506111518161112d565b92915050565b5f6020828403121561116c5761116b6110f5565b5b5f61117984828501611143565b91505092915050565b5f819050919050565b61119481611182565b811461119e575f5ffd5b50565b5f813590506111af8161118b565b92915050565b5f5f604083850312156111cb576111ca6110f5565b5b5f6111d8858286016111a1565b92505060206111e985828601611143565b9150509250929050565b5f8115159050919050565b611207816111f3565b82525050565b5f6020820190506112205f8301846111fe565b92915050565b5f6020828403121561123b5761123a6110f5565b5b5f611248848285016111a1565b91505092915050565b5f819050919050565b61126381611251565b82525050565b5f60208201905061127c5f83018461125a565b92915050565b61128b8161111c565b82525050565b5f6020820190506112a45f830184611282565b92915050565b5f5ffd5b5f5ffd5b5f5ffd5b5f5f83601f8401126112cb576112ca6112aa565b5b8235905067ffffffffffffffff8111156112e8576112e76112ae565b5b602083019150836001820283011115611304576113036112b2565b5b9250929050565b5f5f5f5f60608587031215611323576113226110f5565b5b5f611330878288016111a1565b945050602061134187828801611143565b935050604085013567ffffffffffffffff811115611362576113616110f9565b5b61136e878288016112b6565b925092505092959194509250565b61138581611251565b811461138f575f5ffd5b50565b5f813590506113a08161137c565b92915050565b5f602082840312156113bb576113ba6110f5565b5b5f6113c884828501611392565b91505092915050565b5f5f5f604084860312156113e8576113e76110f5565b5b5f6113f5868287016111a1565b935050602084013567ffffffffffffffff811115611416576114156110f9565b5b611422868287016112b6565b92509250509250925092565b61143781611182565b82525050565b5f6020820190506114505f83018461142e565b92915050565b5f6040820190506114695f830185611282565b611476602083018461125a565b9392505050565b5f6040820190506114905f830185611282565b61149d6020830184611282565b9392505050565b6114ad816111f3565b81146114b7575f5ffd5b50565b5f815190506114c8816114a4565b92915050565b5f602082840312156114e3576114e26110f5565b5b5f6114f0848285016114ba565b91505092915050565b5f60408201905061150c5f830185611282565b611519602083018461142e565b9392505050565b7f4e487b71000000000000000000000000000000000000000000000000000000005f52601160045260245ffd5b5f61155782611251565b91507fffffffffffffffffffffffffffffffffffffffffffffffffffffffffffffffff820361158957611588611520565b5b600182019050919050565b5f5ffd5b5f5ffd5b5f5f858511156115af576115ae611594565b5b838611156115c0576115bf611598565b5b6001850283019150848603905094509492505050565b5f82905092915050565b5f82821b905092915050565b5f6115f783836115d6565b826116028135611182565b925060208210156116425761163d7fffffffffffffffffffffffffffffffffffffffffffffffffffffffffffffffff836020036008026115e0565b831692505b505092915050565b7f4e487b71000000000000000000000000000000000000000000000000000000005f52603260045260245ffd5b5f60ff82169050919050565b61168c81611677565b82525050565b5f6080820190506116a55f83018761142e565b6116b26020830186611683565b6116bf604083018561142e565b6116cc606083018461142e565b9594505050505056fea2646970667358221220320a1dba3b2039e2f576fc70d97b46b861b68397e1cdbb1849878d19cf7543d864736f6c63430008210033","linkReferences":{}},"methodIdentifiers":{"addSigner(address)":"eb12d61e","emergencyStop()":"63a599a4","getDomainSeparator()":"ed24911d","getSignatureCount(bytes32)":"2bbe96bc","getSignerNonce(address)":"e8505e81","getThreshold()":"e75235b8","governance()":"5aa6e675","hasSigned(bytes32,address)":"29832c0f","isAuthorizedSigner(address)":"49045e16","proposalEngine()":"4048e07c","removeSigner(address)":"0e316ab7","resume()":"046f7da2","stopped()":"75f12b21","submitSignature(bytes32,bytes)":"df6158ba","updateGovernance(address)":"b2561263","updateThreshold(uint256)":"d7d7442f","verifySignature(bytes32,address,bytes)":"98a3410d"},"id":31}