{"abi":[{"type":"constructor","inputs":[{"name":"_governance","type":"address","internalType":"address"},{"name":"_proposalEngine","type":"address","internalType":"address"},{"name":"threshold","type":"uint256","internalType":"uint256"},{"name":"initialSigners","type":"address[]","internalType":"address[]"}],"stateMutability":"nonpayable"},{"type":"function","name":"addSigner","inputs":[{"name":"signer","type":"address","internalType":"address"}],"outputs":[],"stateMutability":"nonpayable"},{"type":"function","name":"emergencyStop","inputs":[],"outputs":[],"stateMutability":"nonpayable"},{"type":"function","name":"getDomainSeparator","inputs":[],"outputs":[{"name":"","type":"bytes32","internalType":"bytes32"}],"stateMutability":"view"},{"type":"function","name":"getSignatureCount","inputs":[{"name":"proposalId","type":"bytes32","internalType":"bytes32"}],"outputs":[{"name":"","type":"uint256","internalType":"uint256"}],"stateMutability":"view"},{"type":"function","name":"getSignerNonce","inputs":[{"name":"signer","type":"address","internalType":"address"}],"outputs":[{"name":"","type":"uint256","internalType":"uint256"}],"stateMutability":"view"},{"type":"function","name":"getThreshold","inputs":[],"outputs":[{"name":"","type":"uint256","internalType":"uint256"}],"stateMutability":"view"},{"type":"function","name":"governance","inputs":[],"outputs":[{"name":"","type":"address","internalType":"address"}],"stateMutability":"view"},{"type":"function","name":"hasSigned","inputs":[{"name":"proposalId","type":"bytes32","internalType":"bytes32"},{"name":"signer","type":"address","internalType":"address"}],"outputs":[{"name":"","type":"bool","internalType":"bool"}],"stateMutability":"view"},{"type":"function","name":"isAuthorizedSigner","inputs":[{"name":"signer","type":"address","internalType":"address"}],"outputs":[{"name":"","type":"bool","internalType":"bool"}],"stateMutability":"view"},{"type":"function","name":"proposalEngine","inputs":[],"outputs":[{"name":"","type":"address","internalType":"address"}],"stateMutability":"view"},{"type":"function","name":"removeSigner","inputs":[{"name":"signer","type":"address","internalType":"address"}],"outputs":[],"stateMutability":"nonpayable"},{"type":"function","name":"resume","inputs":[],"outputs":[],"stateMutability":"nonpayable"},{"type":"function","name":"stopped","inputs":[],"outputs":[{"name":"","type":"bool","internalType":"bool"}],"stateMutability":"view"},{"type":"function","name":"submitSignature","inputs":[{"name":"proposalId","type":"bytes32","internalType":"bytes32"},{"name":"signature","type":"bytes","internalType":"bytes"}],"outputs":[],"stateMutability":"nonpayable"},{"type":"function","name":"updateGovernance","inputs":[{"name":"newGovernance","type":"address","internalType":"address"}],"outputs":[],"stateMutability":"nonpayable"},{"type":"function","name":"updateThreshold","inputs":[{"name":"newThreshold","type":"uint256","internalType":"uint256"}],"outputs":[],"stateMutability":"nonpayable"},{"type":"function","name":"verifySignature","inputs":[{"name":"proposalId","type":"bytes32","internalType":"bytes32"},{"name":"signer","type":"address","internalType":"address"},{"name":"signature","type":"bytes","internalType":"bytes"}],"outputs":[{"name":"","type":"bool","internalType":"bool"}],"stateMutability":"view"},{"type":"event","name":"EmergencyStop","inputs":[{"name":"triggeredBy","type":"address","indexed":false,"internalType":"address"},{"name":"timestamp","type":"uint256","indexed":false,"internalType":"uint256"}],"anonymous":false},{"type":"event","name":"GovernanceUpdated","inputs":[{"name":"oldGovernance","type":"address","indexed":false,"internalType":"address"},{"name":"newGovernance","type":"address","indexed":false,"internalType":"address"}],"anonymous":false},{"type":"event","name":"SignatureSubmitted","inputs":[{"name":"proposalId","type":"bytes32","indexed":true,"internalType":"bytes32"},{"name":"signer","type":"address","indexed":true,"internalType":"address"},{"name":"nonce","type":"uint256","indexed":false,"internalType":"uint256"}],"anonymous":false},{"type":"event","name":"ThresholdReached","inputs":[{"name":"proposalId","type":"bytes32","indexed":true,"internalType":"bytes32"},{"name":"totalSignatures","type":"uint256","indexed":false,"internalType":"uint256"}],"anonymous":false},{"type":"error","name":"InvalidAmount","inputs":[{"name":"amount","type":"uint256","internalType":"uint256"}]},{"type":"error","name":"InvalidSignature","inputs":[{"name":"signer","type":"address","internalType":"address"},{"name":"proposalId","type":"bytes32","internalType":"bytes32"}]},{"type":"error","name":"InvalidSigner","inputs":[{"name":"signer","type":"address","internalType":"address"}]},{"type":"error","name":"ProposalAlreadyExists","inputs":[{"name":"proposalId","type":"bytes32","internalType":"bytes32"}]},{"type":"error","name":"ProposalNotFound","inputs":[{"name":"proposalId","type":"bytes32","internalType":"bytes32"}]},{"type":"error","name":"SignatureAlreadyUsed","inputs":[{"name":"signer","type":"address","internalType":"address"},{"name":"nonce","type":"uint256","internalType":"uint256"}]},{"type":"error","name":"ThresholdNotMet","inputs":[{"name":"required","type":"uint256","internalType":"uint256"},{"name":"received","type":"uint256","internalType":"uint256"}]},{"type":"error","name":"Unauthorized","inputs":[{"name":"caller","type":"address","internalType":"address"}]},{"type":"error","name":"ZeroAddress","inputs":[]}],"bytecode":{"object":"0x608060405234801561000f575f5ffd5b50604051611e5c380380611e5c833981810160405281019061003191906105fe565b835f73ffffffffffffffffffffffffffffffffffffffff168173ffffffffffffffffffffffffffffffffffffffff1603610097576040517fd92e233d00000000000000000000000000000000000000000000000000000000815260040160405180910390fd5b805f5f6101000a81548173ffffffffffffffffffffffffffffffffffffffff021916908373ffffffffffffffffffffffffffffffffffffffff160217905550600180819055505f5f60146101000a81548160ff021916908315150217905550505f73ffffffffffffffffffffffffffffffffffffffff168373ffffffffffffffffffffffffffffffffffffffff160361015c576040517fd92e233d00000000000000000000000000000000000000000000000000000000815260040160405180910390fd5b5f82036101a057816040517f3728b83d000000000000000000000000000000000000000000000000000000008152600401610197919061068d565b60405180910390fd5b81815110156101e9578181516040517fb7842ce00000000000000000000000000000000000000000000000000000000081526004016101e09291906106a6565b60405180910390fd5b8260075f6101000a81548173ffffffffffffffffffffffffffffffffffffffff021916908373ffffffffffffffffffffffffffffffffffffffff160217905550816006819055505f5f90505b8151811015610339575f73ffffffffffffffffffffffffffffffffffffffff16828281518110610268576102676106cd565b5b602002602001015173ffffffffffffffffffffffffffffffffffffffff16036102bd576040517fd92e233d00000000000000000000000000000000000000000000000000000000815260040160405180910390fd5b600160025f8484815181106102d5576102d46106cd565b5b602002602001015173ffffffffffffffffffffffffffffffffffffffff1673ffffffffffffffffffffffffffffffffffffffff1681526020019081526020015f205f6101000a81548160ff0219169083151502179055508080600101915050610235565b507f8b73c3c69bb8fe3d512ecc4cf759cc79239f7b179b0ffacaa9a75d522b39400f6040518060400160405280600c81526020017f4152455350726f746f636f6c0000000000000000000000000000000000000000815250805190602001206040518060400160405280600181526020017f31000000000000000000000000000000000000000000000000000000000000008152508051906020012046306040516020016103eb959493929190610721565b6040516020818303038152906040528051906020012060088190555050505050610772565b5f604051905090565b5f5ffd5b5f5ffd5b5f73ffffffffffffffffffffffffffffffffffffffff82169050919050565b5f61044a82610421565b9050919050565b61045a81610440565b8114610464575f5ffd5b50565b5f8151905061047581610451565b92915050565b5f819050919050565b61048d8161047b565b8114610497575f5ffd5b50565b5f815190506104a881610484565b92915050565b5f5ffd5b5f601f19601f8301169050919050565b7f4e487b71000000000000000000000000000000000000000000000000000000005f52604160045260245ffd5b6104f8826104b2565b810181811067ffffffffffffffff82111715610517576105166104c2565b5b80604052505050565b5f610529610410565b905061053582826104ef565b919050565b5f67ffffffffffffffff821115610554576105536104c2565b5b602082029050602081019050919050565b5f5ffd5b5f61057b6105768461053a565b610520565b9050808382526020820190506020840283018581111561059e5761059d610565565b5b835b818110156105c757806105b38882610467565b8452602084019350506020810190506105a0565b5050509392505050565b5f82601f8301126105e5576105e46104ae565b5b81516105f5848260208601610569565b91505092915050565b5f5f5f5f6080858703121561061657610615610419565b5b5f61062387828801610467565b945050602061063487828801610467565b93505060406106458782880161049a565b925050606085015167ffffffffffffffff8111156106665761066561041d565b5b610672878288016105d1565b91505092959194509250565b6106878161047b565b82525050565b5f6020820190506106a05f83018461067e565b92915050565b5f6040820190506106b95f83018561067e565b6106c6602083018461067e565b9392505050565b7f4e487b71000000000000000000000000000000000000000000000000000000005f52603260045260245ffd5b5f819050919050565b61070c816106fa565b82525050565b61071b81610440565b82525050565b5f60a0820190506107345f830188610703565b6107416020830187610703565b61074e6040830186610703565b61075b606083018561067e565b6107686080830184610712565b9695505050505050565b6116dd8061077f5f395ff3fe608060405234801561000f575f5ffd5b5060043610610109575f3560e01c806375f12b21116100a0578063df6158ba1161006f578063df6158ba1461028f578063e75235b8146102ab578063e8505e81146102c9578063eb12d61e146102f9578063ed24911d1461031557610109565b806375f12b211461020957806398a3410d14610227578063b256126314610257578063d7d7442f1461027357610109565b80634048e07c116100dc5780634048e07c1461019357806349045e16146101b15780635aa6e675146101e157806363a599a4146101ff57610109565b8063046f7da21461010d5780630e316ab71461011757806329832c0f146101335780632bbe96bc14610163575b5f5ffd5b610115610333565b005b610131600480360381019061012c9190611111565b610356565b005b61014d6004803603810190610148919061116f565b610440565b60405161015a91906111c7565b60405180910390f35b61017d600480360381019061017891906111e0565b6104a2565b60405161018a9190611223565b60405180910390f35b61019b6104bc565b6040516101a8919061124b565b60405180910390f35b6101cb60048036038101906101c69190611111565b6104e1565b6040516101d891906111c7565b60405180910390f35b6101e9610533565b6040516101f6919061124b565b60405180910390f35b610207610557565b005b6102116105b4565b60405161021e91906111c7565b60405180910390f35b610241600480360381019061023c91906112c5565b6105c6565b60405161024e91906111c7565b60405180910390f35b610271600480360381019061026c9190611111565b610620565b005b61028d60048036038101906102889190611360565b610728565b005b6102a960048036038101906102a4919061138b565b61077e565b005b6102b3610c72565b6040516102c09190611223565b60405180910390f35b6102e360048036038101906102de9190611111565b610c7b565b6040516102f09190611223565b60405180910390f35b610313600480360381019061030e9190611111565b610cc1565b005b61031d610e14565b60405161032a91906113f7565b60405180910390f35b61033b610e1d565b5f5f60146101000a81548160ff021916908315150217905550565b61035e610e1d565b60025f8273ffffffffffffffffffffffffffffffffffffffff1673ffffffffffffffffffffffffffffffffffffffff1681526020019081526020015f205f9054906101000a900460ff166103e957806040517fbf18af430000000000000000000000000000000000000000000000000000000081526004016103e0919061124b565b60405180910390fd5b5f60025f8373ffffffffffffffffffffffffffffffffffffffff1673ffffffffffffffffffffffffffffffffffffffff1681526020019081526020015f205f6101000a81548160ff02191690831515021790555050565b5f60035f8481526020019081526020015f205f8373ffffffffffffffffffffffffffffffffffffffff1673ffffffffffffffffffffffffffffffffffffffff1681526020019081526020015f205f9054906101000a900460ff16905092915050565b5f60045f8381526020019081526020015f20549050919050565b60075f9054906101000a900473ffffffffffffffffffffffffffffffffffffffff1681565b5f60025f8373ffffffffffffffffffffffffffffffffffffffff1673ffffffffffffffffffffffffffffffffffffffff1681526020019081526020015f205f9054906101000a900460ff169050919050565b5f5f9054906101000a900473ffffffffffffffffffffffffffffffffffffffff1681565b61055f610e1d565b60015f60146101000a81548160ff0219169083151502179055507f56a7c9bf9dfb88f577de1e2cea5000f3ea7e04c48c04d4a55279c0bd523db5d933426040516105aa929190611410565b60405180910390a1565b5f60149054906101000a900460ff1681565b5f5f60055f8673ffffffffffffffffffffffffffffffffffffffff1673ffffffffffffffffffffffffffffffffffffffff1681526020019081526020015f205490506106158686838787610eaf565b915050949350505050565b610628610e1d565b5f73ffffffffffffffffffffffffffffffffffffffff168173ffffffffffffffffffffffffffffffffffffffff160361068d576040517fd92e233d00000000000000000000000000000000000000000000000000000000815260040160405180910390fd5b7f434a2db650703b36c824e745330d6397cdaa9ee2cc891a4938ae853e1c50b68d5f5f9054906101000a900473ffffffffffffffffffffffffffffffffffffffff16826040516106de929190611437565b60405180910390a1805f5f6101000a81548173ffffffffffffffffffffffffffffffffffffffff021916908373ffffffffffffffffffffffffffffffffffffffff16021790555050565b610730610e1d565b5f810361077457806040517f3728b83d00000000000000000000000000000000000000000000000000000000815260040161076b9190611223565b60405180910390fd5b8060068190555050565b610786610f7b565b60025f3373ffffffffffffffffffffffffffffffffffffffff1673ffffffffffffffffffffffffffffffffffffffff1681526020019081526020015f205f9054906101000a900460ff1661081157336040517fbf18af43000000000000000000000000000000000000000000000000000000008152600401610808919061124b565b60405180910390fd5b60075f9054906101000a900473ffffffffffffffffffffffffffffffffffffffff1673ffffffffffffffffffffffffffffffffffffffff16634410a944846040518263ffffffff1660e01b815260040161086b91906113f7565b602060405180830381865afa158015610886573d5f5f3e3d5ffd5b505050506040513d601f19601f820116820180604052508101906108aa9190611488565b6108eb57826040517fe2acee5b0000000000000000000000000000000000000000000000000000000081526004016108e291906113f7565b60405180910390fd5b60035f8481526020019081526020015f205f3373ffffffffffffffffffffffffffffffffffffffff1673ffffffffffffffffffffffffffffffffffffffff1681526020019081526020015f205f9054906101000a900460ff16156109c5573360055f3373ffffffffffffffffffffffffffffffffffffffff1673ffffffffffffffffffffffffffffffffffffffff1681526020019081526020015f20546040517f25ecbb2b0000000000000000000000000000000000000000000000000000000081526004016109bc929190611410565b60405180910390fd5b5f60055f3373ffffffffffffffffffffffffffffffffffffffff1673ffffffffffffffffffffffffffffffffffffffff1681526020019081526020015f20549050610a138433838686610eaf565b610a565733846040517f0e96aab8000000000000000000000000000000000000000000000000000000008152600401610a4d9291906114b3565b60405180910390fd5b600160035f8681526020019081526020015f205f3373ffffffffffffffffffffffffffffffffffffffff1673ffffffffffffffffffffffffffffffffffffffff1681526020019081526020015f205f6101000a81548160ff02191690831515021790555060045f8581526020019081526020015f205f815480929190610adb90611507565b919050555060055f3373ffffffffffffffffffffffffffffffffffffffff1673ffffffffffffffffffffffffffffffffffffffff1681526020019081526020015f205f815480929190610b2d90611507565b91905055503373ffffffffffffffffffffffffffffffffffffffff16847fd604b73faa8796b7c51d116e64e0e7bb5bdb8781cdb2761080d0f7445be42e9383604051610b799190611223565b60405180910390a360065460045f8681526020019081526020015f205410610c6c5760075f9054906101000a900473ffffffffffffffffffffffffffffffffffffffff1673ffffffffffffffffffffffffffffffffffffffff1663dc2ac081856040518263ffffffff1660e01b8152600401610bf591906113f7565b5f604051808303815f87803b158015610c0c575f5ffd5b505af1158015610c1e573d5f5f3e3d5ffd5b50505050837fed9753748c66ee1df3e83ee8ba5d83244f01c004097e0e4eebd94e5fd6fea5f160045f8781526020019081526020015f2054604051610c639190611223565b60405180910390a25b50505050565b5f600654905090565b5f60055f8373ffffffffffffffffffffffffffffffffffffffff1673ffffffffffffffffffffffffffffffffffffffff1681526020019081526020015f20549050919050565b610cc9610e1d565b5f73ffffffffffffffffffffffffffffffffffffffff168173ffffffffffffffffffffffffffffffffffffffff1603610d2e576040517fd92e233d00000000000000000000000000000000000000000000000000000000815260040160405180910390fd5b60025f8273ffffffffffffffffffffffffffffffffffffffff1673ffffffffffffffffffffffffffffffffffffffff1681526020019081526020015f205f9054906101000a900460ff1615610dbc575f5f1b6040517fd6ad034c000000000000000000000000000000000000000000000000000000008152600401610db391906113f7565b60405180910390fd5b600160025f8373ffffffffffffffffffffffffffffffffffffffff1673ffffffffffffffffffffffffffffffffffffffff1681526020019081526020015f205f6101000a81548160ff02191690831515021790555050565b5f600854905090565b5f5f9054906101000a900473ffffffffffffffffffffffffffffffffffffffff1673ffffffffffffffffffffffffffffffffffffffff163373ffffffffffffffffffffffffffffffffffffffff1614610ead57336040517f8e4a23d6000000000000000000000000000000000000000000000000000000008152600401610ea4919061124b565b60405180910390fd5b565b5f5f7f3db4b808420af4a981a9e1e7cc71d39ebb06326f5f6288ab884782045ac9138987878746604051602001610eea95949392919061154e565b6040516020818303038152906040528051906020012090505f60085482604051602001610f18929190611613565b6040516020818303038152906040528051906020012090505f610f3c828787610fce565b90508773ffffffffffffffffffffffffffffffffffffffff168173ffffffffffffffffffffffffffffffffffffffff1614935050505095945050505050565b5f60149054906101000a900460ff1615610fcc57336040517f8e4a23d6000000000000000000000000000000000000000000000000000000008152600401610fc3919061124b565b60405180910390fd5b565b5f60418383905014610fe2575f90506110a8565b5f5f5f853592506020860135915060408601355f1a90507f7fffffffffffffffffffffffffffffff5d576e7357a4501ddfe92f46681b20a0825f1c111561102e575f93505050506110a8565b601b8160ff16141580156110465750601c8160ff1614155b15611056575f93505050506110a8565b6001878285856040515f81526020016040526040516110789493929190611664565b6020604051602081039080840390855afa158015611098573d5f5f3e3d5ffd5b5050506020604051035193505050505b9392505050565b5f5ffd5b5f5ffd5b5f73ffffffffffffffffffffffffffffffffffffffff82169050919050565b5f6110e0826110b7565b9050919050565b6110f0816110d6565b81146110fa575f5ffd5b50565b5f8135905061110b816110e7565b92915050565b5f60208284031215611126576111256110af565b5b5f611133848285016110fd565b91505092915050565b5f819050919050565b61114e8161113c565b8114611158575f5ffd5b50565b5f8135905061116981611145565b92915050565b5f5f60408385031215611185576111846110af565b5b5f6111928582860161115b565b92505060206111a3858286016110fd565b9150509250929050565b5f8115159050919050565b6111c1816111ad565b82525050565b5f6020820190506111da5f8301846111b8565b92915050565b5f602082840312156111f5576111f46110af565b5b5f6112028482850161115b565b91505092915050565b5f819050919050565b61121d8161120b565b82525050565b5f6020820190506112365f830184611214565b92915050565b611245816110d6565b82525050565b5f60208201905061125e5f83018461123c565b92915050565b5f5ffd5b5f5ffd5b5f5ffd5b5f5f83601f84011261128557611284611264565b5b8235905067ffffffffffffffff8111156112a2576112a1611268565b5b6020830191508360018202830111156112be576112bd61126c565b5b9250929050565b5f5f5f5f606085870312156112dd576112dc6110af565b5b5f6112ea8782880161115b565b94505060206112fb878288016110fd565b935050604085013567ffffffffffffffff81111561131c5761131b6110b3565b5b61132887828801611270565b925092505092959194509250565b61133f8161120b565b8114611349575f5ffd5b50565b5f8135905061135a81611336565b92915050565b5f60208284031215611375576113746110af565b5b5f6113828482850161134c565b91505092915050565b5f5f5f604084860312156113a2576113a16110af565b5b5f6113af8682870161115b565b935050602084013567ffffffffffffffff8111156113d0576113cf6110b3565b5b6113dc86828701611270565b92509250509250925092565b6113f18161113c565b82525050565b5f60208201905061140a5f8301846113e8565b92915050565b5f6040820190506114235f83018561123c565b6114306020830184611214565b9392505050565b5f60408201905061144a5f83018561123c565b611457602083018461123c565b9392505050565b611467816111ad565b8114611471575f5ffd5b50565b5f815190506114828161145e565b92915050565b5f6020828403121561149d5761149c6110af565b5b5f6114aa84828501611474565b91505092915050565b5f6040820190506114c65f83018561123c565b6114d360208301846113e8565b9392505050565b7f4e487b71000000000000000000000000000000000000000000000000000000005f52601160045260245ffd5b5f6115118261120b565b91507fffffffffffffffffffffffffffffffffffffffffffffffffffffffffffffffff8203611543576115426114da565b5b600182019050919050565b5f60a0820190506115615f8301886113e8565b61156e60208301876113e8565b61157b604083018661123c565b6115886060830185611214565b6115956080830184611214565b9695505050505050565b5f81905092915050565b7f19010000000000000000000000000000000000000000000000000000000000005f82015250565b5f6115dd60028361159f565b91506115e8826115a9565b600282019050919050565b5f819050919050565b61160d6116088261113c565b6115f3565b82525050565b5f61161d826115d1565b915061162982856115fc565b60208201915061163982846115fc565b6020820191508190509392505050565b5f60ff82169050919050565b61165e81611649565b82525050565b5f6080820190506116775f8301876113e8565b6116846020830186611655565b61169160408301856113e8565b61169e60608301846113e8565b9594505050505056fea26469706673582212204b6daf79ebc2652edb82f9d4103e68c320112bbe6834817b00ebbac849ee243e64736f6c63430008210033","linkReferences":{}},"methodIdentifiers":{"addSigner(address)":"eb12d61e","emergencyStop()":"63a599a4","getDomainSeparator()":"ed24911d","getSignatureCount(bytes32)":"2bbe96bc","getSignerNonce(address)":"e8505e81","getThreshold()":"e75235b8","governance()":"5aa6e675","hasSigned(bytes32,address)":"29832c0f","isAuthorizedSigner(address)":"49045e16","proposalEngine()":"4048e07c","removeSigner(address)":"0e316ab7","resume()":"046f7da2","stopped()":"75f12b21","submitSignature(bytes32,bytes)":"df6158ba","updateGovernance(address)":"b2561263","updateThreshold(uint256)":"d7d7442f","verifySignature(bytes32,address,bytes)":"98a3410d"},"id":33}