{"abi":[{"type":"constructor","inputs":[{"name":"_governance","type":"address","internalType":"address"},{"name":"_proposalEngine","type":"address","internalType":"address"},{"name":"_signatureVerifier","type":"address","internalType":"address"},{"name":"_timelockQueue","type":"address","internalType":"address"},{"name":"_merkleDistributor","type":"address","internalType":"address"}],"stateMutability":"nonpayable"},{"type":"function","name":"MAX_SINGLE_DRAIN_BPS","inputs":[],"outputs":[{"name":"","type":"uint256","internalType":"uint256"}],"stateMutability":"view"},{"type":"function","name":"cancelProposal","inputs":[{"name":"proposalId","type":"bytes32","internalType":"bytes32"}],"outputs":[],"stateMutability":"nonpayable"},{"type":"function","name":"claimReward","inputs":[{"name":"epoch","type":"uint256","internalType":"uint256"},{"name":"index","type":"uint256","internalType":"uint256"},{"name":"amount","type":"uint256","internalType":"uint256"},{"name":"proof","type":"bytes32[]","internalType":"bytes32[]"}],"outputs":[],"stateMutability":"nonpayable"},{"type":"function","name":"emergencyStop","inputs":[],"outputs":[],"stateMutability":"nonpayable"},{"type":"function","name":"executeProposal","inputs":[{"name":"proposalId","type":"bytes32","internalType":"bytes32"}],"outputs":[],"stateMutability":"nonpayable"},{"type":"function","name":"getBalance","inputs":[{"name":"token","type":"address","internalType":"address"}],"outputs":[{"name":"","type":"uint256","internalType":"uint256"}],"stateMutability":"view"},{"type":"function","name":"getGovernance","inputs":[],"outputs":[{"name":"","type":"address","internalType":"address"}],"stateMutability":"view"},{"type":"function","name":"getMerkleDistributor","inputs":[],"outputs":[{"name":"","type":"address","internalType":"address"}],"stateMutability":"view"},{"type":"function","name":"getProposalEngine","inputs":[],"outputs":[{"name":"","type":"address","internalType":"address"}],"stateMutability":"view"},{"type":"function","name":"getSignatureVerifier","inputs":[],"outputs":[{"name":"","type":"address","internalType":"address"}],"stateMutability":"view"},{"type":"function","name":"getTimelockQueue","inputs":[],"outputs":[{"name":"","type":"address","internalType":"address"}],"stateMutability":"view"},{"type":"function","name":"governance","inputs":[],"outputs":[{"name":"","type":"address","internalType":"address"}],"stateMutability":"view"},{"type":"function","name":"isStopped","inputs":[],"outputs":[{"name":"","type":"bool","internalType":"bool"}],"stateMutability":"view"},{"type":"function","name":"merkleDistributor","inputs":[],"outputs":[{"name":"","type":"address","internalType":"address"}],"stateMutability":"view"},{"type":"function","name":"proposalEngine","inputs":[],"outputs":[{"name":"","type":"address","internalType":"address"}],"stateMutability":"view"},{"type":"function","name":"propose","inputs":[{"name":"proposalType","type":"uint8","internalType":"enum DataTypes.ProposalType"},{"name":"target","type":"address","internalType":"address"},{"name":"token","type":"address","internalType":"address"},{"name":"amount","type":"uint256","internalType":"uint256"},{"name":"callData","type":"bytes","internalType":"bytes"}],"outputs":[{"name":"proposalId","type":"bytes32","internalType":"bytes32"}],"stateMutability":"nonpayable"},{"type":"function","name":"queueProposal","inputs":[{"name":"proposalId","type":"bytes32","internalType":"bytes32"}],"outputs":[],"stateMutability":"nonpayable"},{"type":"function","name":"registerVoter","inputs":[{"name":"voter","type":"address","internalType":"address"}],"outputs":[],"stateMutability":"nonpayable"},{"type":"function","name":"removeVoter","inputs":[{"name":"voter","type":"address","internalType":"address"}],"outputs":[],"stateMutability":"nonpayable"},{"type":"function","name":"resume","inputs":[],"outputs":[],"stateMutability":"nonpayable"},{"type":"function","name":"signatureVerifier","inputs":[],"outputs":[{"name":"","type":"address","internalType":"address"}],"stateMutability":"view"},{"type":"function","name":"stopped","inputs":[],"outputs":[{"name":"","type":"bool","internalType":"bool"}],"stateMutability":"view"},{"type":"function","name":"submitSignature","inputs":[{"name":"proposalId","type":"bytes32","internalType":"bytes32"},{"name":"signature","type":"bytes","internalType":"bytes"}],"outputs":[],"stateMutability":"nonpayable"},{"type":"function","name":"timelockQueue","inputs":[],"outputs":[{"name":"","type":"address","internalType":"address"}],"stateMutability":"view"},{"type":"function","name":"updateGovernance","inputs":[{"name":"newGovernance","type":"address","internalType":"address"}],"outputs":[],"stateMutability":"nonpayable"},{"type":"function","name":"updateRewardRoot","inputs":[{"name":"epoch","type":"uint256","internalType":"uint256"},{"name":"newRoot","type":"bytes32","internalType":"bytes32"}],"outputs":[],"stateMutability":"nonpayable"},{"type":"event","name":"EmergencyStop","inputs":[{"name":"triggeredBy","type":"address","indexed":false,"internalType":"address"},{"name":"timestamp","type":"uint256","indexed":false,"internalType":"uint256"}],"anonymous":false},{"type":"event","name":"GovernanceUpdated","inputs":[{"name":"oldGovernance","type":"address","indexed":false,"internalType":"address"},{"name":"newGovernance","type":"address","indexed":false,"internalType":"address"}],"anonymous":false},{"type":"error","name":"CallFailed","inputs":[{"name":"target","type":"address","internalType":"address"},{"name":"callData","type":"bytes","internalType":"bytes"}]},{"type":"error","name":"InvalidAmount","inputs":[{"name":"amount","type":"uint256","internalType":"uint256"}]},{"type":"error","name":"InvalidProposalType","inputs":[]},{"type":"error","name":"ProposalAlreadyExecuted","inputs":[{"name":"proposalId","type":"bytes32","internalType":"bytes32"}]},{"type":"error","name":"ProposalNotApproved","inputs":[{"name":"proposalId","type":"bytes32","internalType":"bytes32"}]},{"type":"error","name":"ProposalNotQueued","inputs":[{"name":"proposalId","type":"bytes32","internalType":"bytes32"}]},{"type":"error","name":"Unauthorized","inputs":[{"name":"caller","type":"address","internalType":"address"}]},{"type":"error","name":"ZeroAddress","inputs":[]}],"bytecode":{"object":"0x608060405234801561000f575f5ffd5b50604051612b00380380612b00833981810160405281019061003191906103f3565b845f73ffffffffffffffffffffffffffffffffffffffff168173ffffffffffffffffffffffffffffffffffffffff1603610097576040517fd92e233d00000000000000000000000000000000000000000000000000000000815260040160405180910390fd5b805f5f6101000a81548173ffffffffffffffffffffffffffffffffffffffff021916908373ffffffffffffffffffffffffffffffffffffffff160217905550600180819055505f5f60146101000a81548160ff021916908315150217905550505f73ffffffffffffffffffffffffffffffffffffffff168473ffffffffffffffffffffffffffffffffffffffff160361015c576040517fd92e233d00000000000000000000000000000000000000000000000000000000815260040160405180910390fd5b5f73ffffffffffffffffffffffffffffffffffffffff168373ffffffffffffffffffffffffffffffffffffffff16036101c1576040517fd92e233d00000000000000000000000000000000000000000000000000000000815260040160405180910390fd5b5f73ffffffffffffffffffffffffffffffffffffffff168273ffffffffffffffffffffffffffffffffffffffff1603610226576040517fd92e233d00000000000000000000000000000000000000000000000000000000815260040160405180910390fd5b5f73ffffffffffffffffffffffffffffffffffffffff168173ffffffffffffffffffffffffffffffffffffffff160361028b576040517fd92e233d00000000000000000000000000000000000000000000000000000000815260040160405180910390fd5b8360025f6101000a81548173ffffffffffffffffffffffffffffffffffffffff021916908373ffffffffffffffffffffffffffffffffffffffff1602179055508260035f6101000a81548173ffffffffffffffffffffffffffffffffffffffff021916908373ffffffffffffffffffffffffffffffffffffffff1602179055508160045f6101000a81548173ffffffffffffffffffffffffffffffffffffffff021916908373ffffffffffffffffffffffffffffffffffffffff1602179055508060055f6101000a81548173ffffffffffffffffffffffffffffffffffffffff021916908373ffffffffffffffffffffffffffffffffffffffff160217905550505050505061046a565b5f5ffd5b5f73ffffffffffffffffffffffffffffffffffffffff82169050919050565b5f6103c282610399565b9050919050565b6103d2816103b8565b81146103dc575f5ffd5b50565b5f815190506103ed816103c9565b92915050565b5f5f5f5f5f60a0868803121561040c5761040b610395565b5b5f610419888289016103df565b955050602061042a888289016103df565b945050604061043b888289016103df565b935050606061044c888289016103df565b925050608061045d888289016103df565b9150509295509295909350565b612689806104775f395ff3fe608060405234801561000f575f5ffd5b506004361061018c575f3560e01c806363a599a4116100dc578063b256126311610095578063df6158ba1161006f578063df6158ba146103fe578063f4537f781461041a578063f8b2cb4f14610438578063fde919f6146104685761018c565b8063b256126314610394578063ccb94e73146103b0578063dd33c64f146103ce5761018c565b806363a599a4146102fc57806374428d9b1461030657806375f12b21146103225780638667790e1461034057806386c1ff681461035c578063980ff6c6146103785761018c565b806338db6dd3116101495780634c402e4d116101235780634c402e4d146102865780634e05bf7d146102a45780635a06a77b146102c05780635aa6e675146102de5761018c565b806338db6dd31461022e5780633f683b6a1461024a5780634048e07c146102685761018c565b8063046f7da21461019057806326f36fba1461019a578063289b3c0d146101b8578063338ba675146101d6578063345763ad146101f457806337376ca814610212575b5f5ffd5b610198610486565b005b6101a2610498565b6040516101af9190611912565b60405180910390f35b6101c06104c0565b6040516101cd9190611912565b60405180910390f35b6101de6104e7565b6040516101eb9190611912565b60405180910390f35b6101fc61050c565b6040516102099190611912565b60405180910390f35b61022c6004803603810190610227919061196f565b610534565b005b610248600480360381019061024391906119c4565b610780565b005b610252610832565b60405161025f9190611a09565b60405180910390f35b610270610847565b60405161027d9190611912565b60405180910390f35b61028e61086c565b60405161029b9190611912565b60405180910390f35b6102be60048036038101906102b99190611a55565b610894565b005b6102c8610929565b6040516102d59190611aa2565b60405180910390f35b6102e661092f565b6040516102f39190611912565b60405180910390f35b610304610953565b005b610320600480360381019061031b919061196f565b610965565b005b61032a610b30565b6040516103379190611a09565b60405180910390f35b61035a60048036038101906103559190611b1c565b610b42565b005b610376600480360381019061037191906119c4565b610be0565b005b610392600480360381019061038d919061196f565b610c2d565b005b6103ae60048036038101906103a991906119c4565b610e42565b005b6103b8610e56565b6040516103c59190611912565b60405180910390f35b6103e860048036038101906103e39190611c18565b610e7e565b6040516103f59190611cbd565b60405180910390f35b61041860048036038101906104139190611cd6565b6110d9565b005b610422611171565b60405161042f9190611912565b60405180910390f35b610452600480360381019061044d91906119c4565b611196565b60405161045f9190611aa2565b60405180910390f35b610470611216565b60405161047d9190611912565b60405180910390f35b61048e61123b565b6104966112cd565b565b5f60025f9054906101000a900473ffffffffffffffffffffffffffffffffffffffff16905090565b5f5f5f9054906101000a900473ffffffffffffffffffffffffffffffffffffffff16905090565b60045f9054906101000a900473ffffffffffffffffffffffffffffffffffffffff1681565b5f60035f9054906101000a900473ffffffffffffffffffffffffffffffffffffffff16905090565b61053c6112f0565b5f60025f9054906101000a900473ffffffffffffffffffffffffffffffffffffffff1673ffffffffffffffffffffffffffffffffffffffff16630a704f48836040518263ffffffff1660e01b81526004016105979190611cbd565b602060405180830381865afa1580156105b2573d5f5f3e3d5ffd5b505050506040513d601f19601f820116820180604052508101906105d69190611d56565b9050600360058111156105ec576105eb611d81565b5b8160058111156105ff576105fe611d81565b5b0361064157816040517f2698e0860000000000000000000000000000000000000000000000000000000081526004016106389190611cbd565b60405180910390fd5b60025f9054906101000a900473ffffffffffffffffffffffffffffffffffffffff1673ffffffffffffffffffffffffffffffffffffffff1663c4d252f5836040518263ffffffff1660e01b815260040161069b9190611cbd565b5f604051808303815f87803b1580156106b2575f5ffd5b505af11580156106c4573d5f5f3e3d5ffd5b50505050600260058111156106dc576106db611d81565b5b8160058111156106ef576106ee611d81565b5b0361077c5760045f9054906101000a900473ffffffffffffffffffffffffffffffffffffffff1673ffffffffffffffffffffffffffffffffffffffff1663c4d252f5836040518263ffffffff1660e01b815260040161074e9190611cbd565b5f604051808303815f87803b158015610765575f5ffd5b505af1158015610777573d5f5f3e3d5ffd5b505050505b5050565b61078861123b565b5f73ffffffffffffffffffffffffffffffffffffffff168173ffffffffffffffffffffffffffffffffffffffff16036107ed576040517fd92e233d00000000000000000000000000000000000000000000000000000000815260040160405180910390fd5b4360065f8373ffffffffffffffffffffffffffffffffffffffff1673ffffffffffffffffffffffffffffffffffffffff1681526020019081526020015f208190555050565b5f5f60149054906101000a900460ff16905090565b60025f9054906101000a900473ffffffffffffffffffffffffffffffffffffffff1681565b5f60055f9054906101000a900473ffffffffffffffffffffffffffffffffffffffff16905090565b61089c61123b565b60055f9054906101000a900473ffffffffffffffffffffffffffffffffffffffff1673ffffffffffffffffffffffffffffffffffffffff1663ed8b74b783836040518363ffffffff1660e01b81526004016108f8929190611dae565b5f604051808303815f87803b15801561090f575f5ffd5b505af1158015610921573d5f5f3e3d5ffd5b505050505050565b6103e881565b5f5f9054906101000a900473ffffffffffffffffffffffffffffffffffffffff1681565b61095b61123b565b610963611343565b565b61096d6112f0565b5f60025f9054906101000a900473ffffffffffffffffffffffffffffffffffffffff1673ffffffffffffffffffffffffffffffffffffffff1663430694cf836040518263ffffffff1660e01b81526004016109c89190611cbd565b5f60405180830381865afa1580156109e2573d5f5f3e3d5ffd5b505050506040513d5f823e3d601f19601f82011682018060405250810190610a0a9190612076565b905060016005811115610a2057610a1f611d81565b5b81604001516005811115610a3757610a36611d81565b5b14610a7957816040517fc6077939000000000000000000000000000000000000000000000000000000008152600401610a709190611cbd565b60405180910390fd5b60045f9054906101000a900473ffffffffffffffffffffffffffffffffffffffff1673ffffffffffffffffffffffffffffffffffffffff16636c656dd88383608001518460a001518560c001518660e001516040518663ffffffff1660e01b8152600401610aeb95949392919061210f565b6020604051808303815f875af1158015610b07573d5f5f3e3d5ffd5b505050506040513d601f19601f82011682018060405250810190610b2b9190612167565b505050565b5f60149054906101000a900460ff1681565b610b4a6112f0565b60055f9054906101000a900473ffffffffffffffffffffffffffffffffffffffff1673ffffffffffffffffffffffffffffffffffffffff1663ea25e17686868686866040518663ffffffff1660e01b8152600401610bac95949392919061220a565b5f604051808303815f87803b158015610bc3575f5ffd5b505af1158015610bd5573d5f5f3e3d5ffd5b505050505050505050565b610be861123b565b5f60065f8373ffffffffffffffffffffffffffffffffffffffff1673ffffffffffffffffffffffffffffffffffffffff1681526020019081526020015f208190555050565b610c356112f0565b5f60025f9054906101000a900473ffffffffffffffffffffffffffffffffffffffff1673ffffffffffffffffffffffffffffffffffffffff1663430694cf836040518263ffffffff1660e01b8152600401610c909190611cbd565b5f60405180830381865afa158015610caa573d5f5f3e3d5ffd5b505050506040513d5f823e3d601f19601f82011682018060405250810190610cd29190612076565b905060036005811115610ce857610ce7611d81565b5b81604001516005811115610cff57610cfe611d81565b5b03610d4157816040517f2698e086000000000000000000000000000000000000000000000000000000008152600401610d389190611cbd565b60405180910390fd5b60026005811115610d5557610d54611d81565b5b81604001516005811115610d6c57610d6b611d81565b5b14610dae57816040517f4a1ae456000000000000000000000000000000000000000000000000000000008152600401610da59190611cbd565b60405180910390fd5b60045f9054906101000a900473ffffffffffffffffffffffffffffffffffffffff1673ffffffffffffffffffffffffffffffffffffffff1663e751f271836040518263ffffffff1660e01b8152600401610e089190611cbd565b5f604051808303815f87803b158015610e1f575f5ffd5b505af1158015610e31573d5f5f3e3d5ffd5b50505050610e3e816113a0565b5050565b610e4a61123b565b610e53816115de565b50565b5f60045f9054906101000a900473ffffffffffffffffffffffffffffffffffffffff16905090565b5f610e876112f0565b5f60065f3373ffffffffffffffffffffffffffffffffffffffff1673ffffffffffffffffffffffffffffffffffffffff1681526020019081526020015f205403610f0857336040517f8e4a23d6000000000000000000000000000000000000000000000000000000008152600401610eff9190611912565b60405180910390fd5b5f73ffffffffffffffffffffffffffffffffffffffff168573ffffffffffffffffffffffffffffffffffffffff1614158015610f4357505f84115b15611029575f8573ffffffffffffffffffffffffffffffffffffffff166370a08231306040518263ffffffff1660e01b8152600401610f829190611912565b602060405180830381865afa158015610f9d573d5f5f3e3d5ffd5b505050506040513d601f19601f82011682018060405250810190610fc19190612167565b90505f6127106103e883610fd59190612283565b610fdf91906122f1565b90508086111561102657856040517f3728b83d00000000000000000000000000000000000000000000000000000000815260040161101d9190611aa2565b60405180910390fd5b50505b60025f9054906101000a900473ffffffffffffffffffffffffffffffffffffffff1673ffffffffffffffffffffffffffffffffffffffff1663dd33c64f8888888888886040518763ffffffff1660e01b815260040161108d969594939291906123a1565b6020604051808303815f875af11580156110a9573d5f5f3e3d5ffd5b505050506040513d601f19601f820116820180604052508101906110cd919061240f565b90509695505050505050565b6110e16112f0565b60035f9054906101000a900473ffffffffffffffffffffffffffffffffffffffff1673ffffffffffffffffffffffffffffffffffffffff1663df6158ba8484846040518463ffffffff1660e01b815260040161113f9392919061243a565b5f604051808303815f87803b158015611156575f5ffd5b505af1158015611168573d5f5f3e3d5ffd5b50505050505050565b60055f9054906101000a900473ffffffffffffffffffffffffffffffffffffffff1681565b5f8173ffffffffffffffffffffffffffffffffffffffff166370a08231306040518263ffffffff1660e01b81526004016111d09190611912565b602060405180830381865afa1580156111eb573d5f5f3e3d5ffd5b505050506040513d601f19601f8201168201806040525081019061120f9190612167565b9050919050565b60035f9054906101000a900473ffffffffffffffffffffffffffffffffffffffff1681565b5f5f9054906101000a900473ffffffffffffffffffffffffffffffffffffffff1673ffffffffffffffffffffffffffffffffffffffff163373ffffffffffffffffffffffffffffffffffffffff16146112cb57336040517f8e4a23d60000000000000000000000000000000000000000000000000000000081526004016112c29190611912565b60405180910390fd5b565b6112d561123b565b5f5f60146101000a81548160ff021916908315150217905550565b5f60149054906101000a900460ff161561134157336040517f8e4a23d60000000000000000000000000000000000000000000000000000000081526004016113389190611912565b60405180910390fd5b565b61134b61123b565b60015f60146101000a81548160ff0219169083151502179055507f56a7c9bf9dfb88f577de1e2cea5000f3ea7e04c48c04d4a55279c0bd523db5d9334260405161139692919061246a565b60405180910390a1565b5f60028111156113b3576113b2611d81565b5b816020015160028111156113ca576113c9611d81565b5b036114a5575f8160a0015173ffffffffffffffffffffffffffffffffffffffff1663a9059cbb83608001518460c001516040518363ffffffff1660e01b815260040161141792919061246a565b6020604051808303815f875af1158015611433573d5f5f3e3d5ffd5b505050506040513d601f19601f8201168201806040525081019061145791906124bb565b90508061149f5781608001516040517f6c544f330000000000000000000000000000000000000000000000000000000081526004016114969190612509565b60405180910390fd5b506115db565b600160028111156114b9576114b8611d81565b5b816020015160028111156114d0576114cf611d81565b5b03611597575f816080015173ffffffffffffffffffffffffffffffffffffffff168260e00151604051611503919061256f565b5f604051808303815f865af19150503d805f811461153c576040519150601f19603f3d011682016040523d82523d5f602084013e611541565b606091505b50509050806115915781608001518260e001516040517f6c544f33000000000000000000000000000000000000000000000000000000008152600401611588929190612585565b60405180910390fd5b506115da565b6002808111156115aa576115a9611d81565b5b816020015160028111156115c1576115c0611d81565b5b036115d9576115d881608001518260e001516116e6565b5b5b5b50565b6115e661123b565b5f73ffffffffffffffffffffffffffffffffffffffff168173ffffffffffffffffffffffffffffffffffffffff160361164b576040517fd92e233d00000000000000000000000000000000000000000000000000000000815260040160405180910390fd5b7f434a2db650703b36c824e745330d6397cdaa9ee2cc891a4938ae853e1c50b68d5f5f9054906101000a900473ffffffffffffffffffffffffffffffffffffffff168260405161169c9291906125b3565b60405180910390a1805f5f6101000a81548173ffffffffffffffffffffffffffffffffffffffff021916908373ffffffffffffffffffffffffffffffffffffffff16021790555050565b5f5f828060200190518101906116fc9190612615565b915091505f73ffffffffffffffffffffffffffffffffffffffff168173ffffffffffffffffffffffffffffffffffffffff1603611765576040517fd92e233d00000000000000000000000000000000000000000000000000000000815260040160405180910390fd5b5f82036117b1578060025f6101000a81548173ffffffffffffffffffffffffffffffffffffffff021916908373ffffffffffffffffffffffffffffffffffffffff1602179055506118cd565b600182036117fe578060035f6101000a81548173ffffffffffffffffffffffffffffffffffffffff021916908373ffffffffffffffffffffffffffffffffffffffff1602179055506118cc565b6002820361184b578060045f6101000a81548173ffffffffffffffffffffffffffffffffffffffff021916908373ffffffffffffffffffffffffffffffffffffffff1602179055506118cb565b60038203611898578060055f6101000a81548173ffffffffffffffffffffffffffffffffffffffff021916908373ffffffffffffffffffffffffffffffffffffffff1602179055506118ca565b6040517fae52a1c300000000000000000000000000000000000000000000000000000000815260040160405180910390fd5b5b5b5b50505050565b5f73ffffffffffffffffffffffffffffffffffffffff82169050919050565b5f6118fc826118d3565b9050919050565b61190c816118f2565b82525050565b5f6020820190506119255f830184611903565b92915050565b5f604051905090565b5f5ffd5b5f5ffd5b5f819050919050565b61194e8161193c565b8114611958575f5ffd5b50565b5f8135905061196981611945565b92915050565b5f6020828403121561198457611983611934565b5b5f6119918482850161195b565b91505092915050565b6119a3816118f2565b81146119ad575f5ffd5b50565b5f813590506119be8161199a565b92915050565b5f602082840312156119d9576119d8611934565b5b5f6119e6848285016119b0565b91505092915050565b5f8115159050919050565b611a03816119ef565b82525050565b5f602082019050611a1c5f8301846119fa565b92915050565b5f819050919050565b611a3481611a22565b8114611a3e575f5ffd5b50565b5f81359050611a4f81611a2b565b92915050565b5f5f60408385031215611a6b57611a6a611934565b5b5f611a7885828601611a41565b9250506020611a898582860161195b565b9150509250929050565b611a9c81611a22565b82525050565b5f602082019050611ab55f830184611a93565b92915050565b5f5ffd5b5f5ffd5b5f5ffd5b5f5f83601f840112611adc57611adb611abb565b5b8235905067ffffffffffffffff811115611af957611af8611abf565b5b602083019150836020820283011115611b1557611b14611ac3565b5b9250929050565b5f5f5f5f5f60808688031215611b3557611b34611934565b5b5f611b4288828901611a41565b9550506020611b5388828901611a41565b9450506040611b6488828901611a41565b935050606086013567ffffffffffffffff811115611b8557611b84611938565b5b611b9188828901611ac7565b92509250509295509295909350565b60038110611bac575f5ffd5b50565b5f81359050611bbd81611ba0565b92915050565b5f5f83601f840112611bd857611bd7611abb565b5b8235905067ffffffffffffffff811115611bf557611bf4611abf565b5b602083019150836001820283011115611c1157611c10611ac3565b5b9250929050565b5f5f5f5f5f5f60a08789031215611c3257611c31611934565b5b5f611c3f89828a01611baf565b9650506020611c5089828a016119b0565b9550506040611c6189828a016119b0565b9450506060611c7289828a01611a41565b935050608087013567ffffffffffffffff811115611c9357611c92611938565b5b611c9f89828a01611bc3565b92509250509295509295509295565b611cb78161193c565b82525050565b5f602082019050611cd05f830184611cae565b92915050565b5f5f5f60408486031215611ced57611cec611934565b5b5f611cfa8682870161195b565b935050602084013567ffffffffffffffff811115611d1b57611d1a611938565b5b611d2786828701611bc3565b92509250509250925092565b60068110611d3f575f5ffd5b50565b5f81519050611d5081611d33565b92915050565b5f60208284031215611d6b57611d6a611934565b5b5f611d7884828501611d42565b91505092915050565b7f4e487b71000000000000000000000000000000000000000000000000000000005f52602160045260245ffd5b5f604082019050611dc15f830185611a93565b611dce6020830184611cae565b9392505050565b5f5ffd5b5f601f19601f8301169050919050565b7f4e487b71000000000000000000000000000000000000000000000000000000005f52604160045260245ffd5b611e1f82611dd9565b810181811067ffffffffffffffff82111715611e3e57611e3d611de9565b5b80604052505050565b5f611e5061192b565b9050611e5c8282611e16565b919050565b5f5ffd5b5f81519050611e7381611a2b565b92915050565b5f81519050611e8781611ba0565b92915050565b5f81519050611e9b8161199a565b92915050565b5f5ffd5b5f67ffffffffffffffff821115611ebf57611ebe611de9565b5b611ec882611dd9565b9050602081019050919050565b8281835e5f83830152505050565b5f611ef5611ef084611ea5565b611e47565b905082815260208101848484011115611f1157611f10611ea1565b5b611f1c848285611ed5565b509392505050565b5f82601f830112611f3857611f37611abb565b5b8151611f48848260208601611ee3565b91505092915050565b5f6101608284031215611f6757611f66611dd5565b5b611f72610160611e47565b90505f611f8184828501611e65565b5f830152506020611f9484828501611e79565b6020830152506040611fa884828501611d42565b6040830152506060611fbc84828501611e8d565b6060830152506080611fd084828501611e8d565b60808301525060a0611fe484828501611e8d565b60a08301525060c0611ff884828501611e65565b60c08301525060e082015167ffffffffffffffff81111561201c5761201b611e61565b5b61202884828501611f24565b60e08301525061010061203d84828501611e65565b6101008301525061012061205384828501611e65565b6101208301525061014061206984828501611e65565b6101408301525092915050565b5f6020828403121561208b5761208a611934565b5b5f82015167ffffffffffffffff8111156120a8576120a7611938565b5b6120b484828501611f51565b91505092915050565b5f81519050919050565b5f82825260208201905092915050565b5f6120e1826120bd565b6120eb81856120c7565b93506120fb818560208601611ed5565b61210481611dd9565b840191505092915050565b5f60a0820190506121225f830188611cae565b61212f6020830187611903565b61213c6040830186611903565b6121496060830185611a93565b818103608083015261215b81846120d7565b90509695505050505050565b5f6020828403121561217c5761217b611934565b5b5f61218984828501611e65565b91505092915050565b5f82825260208201905092915050565b5f5ffd5b82818337505050565b5f6121ba8385612192565b93507f07ffffffffffffffffffffffffffffffffffffffffffffffffffffffffffffff8311156121ed576121ec6121a2565b5b6020830292506121fe8385846121a6565b82840190509392505050565b5f60808201905061221d5f830188611a93565b61222a6020830187611a93565b6122376040830186611a93565b818103606083015261224a8184866121af565b90509695505050505050565b7f4e487b71000000000000000000000000000000000000000000000000000000005f52601160045260245ffd5b5f61228d82611a22565b915061229883611a22565b92508282026122a681611a22565b915082820484148315176122bd576122bc612256565b5b5092915050565b7f4e487b71000000000000000000000000000000000000000000000000000000005f52601260045260245ffd5b5f6122fb82611a22565b915061230683611a22565b925082612316576123156122c4565b5b828204905092915050565b6003811061233257612331611d81565b5b50565b5f81905061234282612321565b919050565b5f61235182612335565b9050919050565b61236181612347565b82525050565b828183375f83830152505050565b5f61238083856120c7565b935061238d838584612367565b61239683611dd9565b840190509392505050565b5f60a0820190506123b45f830189612358565b6123c16020830188611903565b6123ce6040830187611903565b6123db6060830186611a93565b81810360808301526123ee818486612375565b9050979650505050505050565b5f8151905061240981611945565b92915050565b5f6020828403121561242457612423611934565b5b5f612431848285016123fb565b91505092915050565b5f60408201905061244d5f830186611cae565b8181036020830152612460818486612375565b9050949350505050565b5f60408201905061247d5f830185611903565b61248a6020830184611a93565b9392505050565b61249a816119ef565b81146124a4575f5ffd5b50565b5f815190506124b581612491565b92915050565b5f602082840312156124d0576124cf611934565b5b5f6124dd848285016124a7565b91505092915050565b50565b5f6124f45f836120c7565b91506124ff826124e6565b5f82019050919050565b5f60408201905061251c5f830184611903565b818103602083015261252d816124e9565b905092915050565b5f81905092915050565b5f612549826120bd565b6125538185612535565b9350612563818560208601611ed5565b80840191505092915050565b5f61257a828461253f565b915081905092915050565b5f6040820190506125985f830185611903565b81810360208301526125aa81846120d7565b90509392505050565b5f6040820190506125c65f830185611903565b6125d36020830184611903565b9392505050565b5f6125e4826118d3565b9050919050565b6125f4816125da565b81146125fe575f5ffd5b50565b5f8151905061260f816125eb565b92915050565b5f5f6040838503121561262b5761262a611934565b5b5f61263885828601611e65565b925050602061264985828601612601565b915050925092905056fea26469706673582212203ba48198b1ceeac3025951b099d42f1e1c5fa41137e17f194468f84daba134f564736f6c63430008210033","linkReferences":{}},"methodIdentifiers":{"MAX_SINGLE_DRAIN_BPS()":"5a06a77b","cancelProposal(bytes32)":"37376ca8","claimReward(uint256,uint256,uint256,bytes32[])":"8667790e","emergencyStop()":"63a599a4","executeProposal(bytes32)":"980ff6c6","getBalance(address)":"f8b2cb4f","getGovernance()":"289b3c0d","getMerkleDistributor()":"4c402e4d","getProposalEngine()":"26f36fba","getSignatureVerifier()":"345763ad","getTimelockQueue()":"ccb94e73","governance()":"5aa6e675","isStopped()":"3f683b6a","merkleDistributor()":"f4537f78","proposalEngine()":"4048e07c","propose(uint8,address,address,uint256,bytes)":"dd33c64f","queueProposal(bytes32)":"74428d9b","registerVoter(address)":"38db6dd3","removeVoter(address)":"86c1ff68","resume()":"046f7da2","signatureVerifier()":"fde919f6","stopped()":"75f12b21","submitSignature(bytes32,bytes)":"df6158ba","timelockQueue()":"338ba675","updateGovernance(address)":"b2561263","updateRewardRoot(uint256,bytes32)":"4e05bf7d"},"id":28}