{"abi":[{"type":"constructor","inputs":[{"name":"_governance","type":"address","internalType":"address"},{"name":"_proposalEngine","type":"address","internalType":"address"},{"name":"_signatureVerifier","type":"address","internalType":"address"},{"name":"_timelockQueue","type":"address","internalType":"address"},{"name":"_merkleDistributor","type":"address","internalType":"address"}],"stateMutability":"nonpayable"},{"type":"function","name":"MAX_SINGLE_DRAIN_BPS","inputs":[],"outputs":[{"name":"","type":"uint256","internalType":"uint256"}],"stateMutability":"view"},{"type":"function","name":"cancelProposal","inputs":[{"name":"proposalId","type":"bytes32","internalType":"bytes32"}],"outputs":[],"stateMutability":"nonpayable"},{"type":"function","name":"claimReward","inputs":[{"name":"epoch","type":"uint256","internalType":"uint256"},{"name":"index","type":"uint256","internalType":"uint256"},{"name":"amount","type":"uint256","internalType":"uint256"},{"name":"proof","type":"bytes32[]","internalType":"bytes32[]"}],"outputs":[],"stateMutability":"nonpayable"},{"type":"function","name":"emergencyStop","inputs":[],"outputs":[],"stateMutability":"nonpayable"},{"type":"function","name":"executeProposal","inputs":[{"name":"proposalId","type":"bytes32","internalType":"bytes32"}],"outputs":[],"stateMutability":"nonpayable"},{"type":"function","name":"getBalance","inputs":[{"name":"token","type":"address","internalType":"address"}],"outputs":[{"name":"","type":"uint256","internalType":"uint256"}],"stateMutability":"view"},{"type":"function","name":"getGovernance","inputs":[],"outputs":[{"name":"","type":"address","internalType":"address"}],"stateMutability":"view"},{"type":"function","name":"getMerkleDistributor","inputs":[],"outputs":[{"name":"","type":"address","internalType":"address"}],"stateMutability":"view"},{"type":"function","name":"getProposalEngine","inputs":[],"outputs":[{"name":"","type":"address","internalType":"address"}],"stateMutability":"view"},{"type":"function","name":"getSignatureVerifier","inputs":[],"outputs":[{"name":"","type":"address","internalType":"address"}],"stateMutability":"view"},{"type":"function","name":"getTimelockQueue","inputs":[],"outputs":[{"name":"","type":"address","internalType":"address"}],"stateMutability":"view"},{"type":"function","name":"governance","inputs":[],"outputs":[{"name":"","type":"address","internalType":"address"}],"stateMutability":"view"},{"type":"function","name":"isStopped","inputs":[],"outputs":[{"name":"","type":"bool","internalType":"bool"}],"stateMutability":"view"},{"type":"function","name":"merkleDistributor","inputs":[],"outputs":[{"name":"","type":"address","internalType":"address"}],"stateMutability":"view"},{"type":"function","name":"proposalEngine","inputs":[],"outputs":[{"name":"","type":"address","internalType":"address"}],"stateMutability":"view"},{"type":"function","name":"propose","inputs":[{"name":"proposalType","type":"uint8","internalType":"enum DataTypes.ProposalType"},{"name":"target","type":"address","internalType":"address"},{"name":"token","type":"address","internalType":"address"},{"name":"amount","type":"uint256","internalType":"uint256"},{"name":"callData","type":"bytes","internalType":"bytes"}],"outputs":[{"name":"proposalId","type":"bytes32","internalType":"bytes32"}],"stateMutability":"nonpayable"},{"type":"function","name":"queueProposal","inputs":[{"name":"proposalId","type":"bytes32","internalType":"bytes32"}],"outputs":[],"stateMutability":"nonpayable"},{"type":"function","name":"registerVoter","inputs":[{"name":"voter","type":"address","internalType":"address"}],"outputs":[],"stateMutability":"nonpayable"},{"type":"function","name":"removeVoter","inputs":[{"name":"voter","type":"address","internalType":"address"}],"outputs":[],"stateMutability":"nonpayable"},{"type":"function","name":"resume","inputs":[],"outputs":[],"stateMutability":"nonpayable"},{"type":"function","name":"signatureVerifier","inputs":[],"outputs":[{"name":"","type":"address","internalType":"address"}],"stateMutability":"view"},{"type":"function","name":"stopped","inputs":[],"outputs":[{"name":"","type":"bool","internalType":"bool"}],"stateMutability":"view"},{"type":"function","name":"submitSignature","inputs":[{"name":"proposalId","type":"bytes32","internalType":"bytes32"},{"name":"signature","type":"bytes","internalType":"bytes"}],"outputs":[],"stateMutability":"nonpayable"},{"type":"function","name":"timelockQueue","inputs":[],"outputs":[{"name":"","type":"address","internalType":"address"}],"stateMutability":"view"},{"type":"function","name":"updateGovernance","inputs":[{"name":"newGovernance","type":"address","internalType":"address"}],"outputs":[],"stateMutability":"nonpayable"},{"type":"function","name":"updateRewardRoot","inputs":[{"name":"epoch","type":"uint256","internalType":"uint256"},{"name":"newRoot","type":"bytes32","internalType":"bytes32"}],"outputs":[],"stateMutability":"nonpayable"},{"type":"event","name":"EmergencyStop","inputs":[{"name":"triggeredBy","type":"address","indexed":false,"internalType":"address"},{"name":"timestamp","type":"uint256","indexed":false,"internalType":"uint256"}],"anonymous":false},{"type":"event","name":"GovernanceUpdated","inputs":[{"name":"oldGovernance","type":"address","indexed":false,"internalType":"address"},{"name":"newGovernance","type":"address","indexed":false,"internalType":"address"}],"anonymous":false},{"type":"error","name":"CallFailed","inputs":[{"name":"target","type":"address","internalType":"address"},{"name":"callData","type":"bytes","internalType":"bytes"}]},{"type":"error","name":"InvalidAmount","inputs":[{"name":"amount","type":"uint256","internalType":"uint256"}]},{"type":"error","name":"InvalidProposalType","inputs":[]},{"type":"error","name":"ProposalAlreadyExecuted","inputs":[{"name":"proposalId","type":"bytes32","internalType":"bytes32"}]},{"type":"error","name":"ProposalNotApproved","inputs":[{"name":"proposalId","type":"bytes32","internalType":"bytes32"}]},{"type":"error","name":"ProposalNotQueued","inputs":[{"name":"proposalId","type":"bytes32","internalType":"bytes32"}]},{"type":"error","name":"Unauthorized","inputs":[{"name":"caller","type":"address","internalType":"address"}]},{"type":"error","name":"ZeroAddress","inputs":[]}],"bytecode":{"object":"0x608060405234801561000f575f5ffd5b50604051612a93380380612a93833981810160405281019061003191906103f3565b845f73ffffffffffffffffffffffffffffffffffffffff168173ffffffffffffffffffffffffffffffffffffffff1603610097576040517fd92e233d00000000000000000000000000000000000000000000000000000000815260040160405180910390fd5b805f5f6101000a81548173ffffffffffffffffffffffffffffffffffffffff021916908373ffffffffffffffffffffffffffffffffffffffff160217905550600180819055505f5f60146101000a81548160ff021916908315150217905550505f73ffffffffffffffffffffffffffffffffffffffff168473ffffffffffffffffffffffffffffffffffffffff160361015c576040517fd92e233d00000000000000000000000000000000000000000000000000000000815260040160405180910390fd5b5f73ffffffffffffffffffffffffffffffffffffffff168373ffffffffffffffffffffffffffffffffffffffff16036101c1576040517fd92e233d00000000000000000000000000000000000000000000000000000000815260040160405180910390fd5b5f73ffffffffffffffffffffffffffffffffffffffff168273ffffffffffffffffffffffffffffffffffffffff1603610226576040517fd92e233d00000000000000000000000000000000000000000000000000000000815260040160405180910390fd5b5f73ffffffffffffffffffffffffffffffffffffffff168173ffffffffffffffffffffffffffffffffffffffff160361028b576040517fd92e233d00000000000000000000000000000000000000000000000000000000815260040160405180910390fd5b8360025f6101000a81548173ffffffffffffffffffffffffffffffffffffffff021916908373ffffffffffffffffffffffffffffffffffffffff1602179055508260035f6101000a81548173ffffffffffffffffffffffffffffffffffffffff021916908373ffffffffffffffffffffffffffffffffffffffff1602179055508160045f6101000a81548173ffffffffffffffffffffffffffffffffffffffff021916908373ffffffffffffffffffffffffffffffffffffffff1602179055508060055f6101000a81548173ffffffffffffffffffffffffffffffffffffffff021916908373ffffffffffffffffffffffffffffffffffffffff160217905550505050505061046a565b5f5ffd5b5f73ffffffffffffffffffffffffffffffffffffffff82169050919050565b5f6103c282610399565b9050919050565b6103d2816103b8565b81146103dc575f5ffd5b50565b5f815190506103ed816103c9565b92915050565b5f5f5f5f5f60a0868803121561040c5761040b610395565b5b5f610419888289016103df565b955050602061042a888289016103df565b945050604061043b888289016103df565b935050606061044c888289016103df565b925050608061045d888289016103df565b9150509295509295909350565b61261c806104775f395ff3fe608060405234801561000f575f5ffd5b506004361061018c575f3560e01c806363a599a4116100dc578063b256126311610095578063df6158ba1161006f578063df6158ba146103fe578063f4537f781461041a578063f8b2cb4f14610438578063fde919f6146104685761018c565b8063b256126314610394578063ccb94e73146103b0578063dd33c64f146103ce5761018c565b806363a599a4146102fc57806374428d9b1461030657806375f12b21146103225780638667790e1461034057806386c1ff681461035c578063980ff6c6146103785761018c565b806338db6dd3116101495780634c402e4d116101235780634c402e4d146102865780634e05bf7d146102a45780635a06a77b146102c05780635aa6e675146102de5761018c565b806338db6dd31461022e5780633f683b6a1461024a5780634048e07c146102685761018c565b8063046f7da21461019057806326f36fba1461019a578063289b3c0d146101b8578063338ba675146101d6578063345763ad146101f457806337376ca814610212575b5f5ffd5b610198610486565b005b6101a2610498565b6040516101af91906118a5565b60405180910390f35b6101c06104c0565b6040516101cd91906118a5565b60405180910390f35b6101de6104e7565b6040516101eb91906118a5565b60405180910390f35b6101fc61050c565b60405161020991906118a5565b60405180910390f35b61022c60048036038101906102279190611902565b610534565b005b61024860048036038101906102439190611957565b610780565b005b610252610832565b60405161025f919061199c565b60405180910390f35b610270610847565b60405161027d91906118a5565b60405180910390f35b61028e61086c565b60405161029b91906118a5565b60405180910390f35b6102be60048036038101906102b991906119e8565b610894565b005b6102c8610929565b6040516102d59190611a35565b60405180910390f35b6102e661092f565b6040516102f391906118a5565b60405180910390f35b610304610953565b005b610320600480360381019061031b9190611902565b610965565b005b61032a610b30565b604051610337919061199c565b60405180910390f35b61035a60048036038101906103559190611aaf565b610b42565b005b61037660048036038101906103719190611957565b610be0565b005b610392600480360381019061038d9190611902565b610c2d565b005b6103ae60048036038101906103a99190611957565b610dd5565b005b6103b8610de9565b6040516103c591906118a5565b60405180910390f35b6103e860048036038101906103e39190611bab565b610e11565b6040516103f59190611c50565b60405180910390f35b61041860048036038101906104139190611c69565b61106c565b005b610422611104565b60405161042f91906118a5565b60405180910390f35b610452600480360381019061044d9190611957565b611129565b60405161045f9190611a35565b60405180910390f35b6104706111a9565b60405161047d91906118a5565b60405180910390f35b61048e6111ce565b610496611260565b565b5f60025f9054906101000a900473ffffffffffffffffffffffffffffffffffffffff16905090565b5f5f5f9054906101000a900473ffffffffffffffffffffffffffffffffffffffff16905090565b60045f9054906101000a900473ffffffffffffffffffffffffffffffffffffffff1681565b5f60035f9054906101000a900473ffffffffffffffffffffffffffffffffffffffff16905090565b61053c611283565b5f60025f9054906101000a900473ffffffffffffffffffffffffffffffffffffffff1673ffffffffffffffffffffffffffffffffffffffff16630a704f48836040518263ffffffff1660e01b81526004016105979190611c50565b602060405180830381865afa1580156105b2573d5f5f3e3d5ffd5b505050506040513d601f19601f820116820180604052508101906105d69190611ce9565b9050600360058111156105ec576105eb611d14565b5b8160058111156105ff576105fe611d14565b5b0361064157816040517f2698e0860000000000000000000000000000000000000000000000000000000081526004016106389190611c50565b60405180910390fd5b60025f9054906101000a900473ffffffffffffffffffffffffffffffffffffffff1673ffffffffffffffffffffffffffffffffffffffff1663c4d252f5836040518263ffffffff1660e01b815260040161069b9190611c50565b5f604051808303815f87803b1580156106b2575f5ffd5b505af11580156106c4573d5f5f3e3d5ffd5b50505050600260058111156106dc576106db611d14565b5b8160058111156106ef576106ee611d14565b5b0361077c5760045f9054906101000a900473ffffffffffffffffffffffffffffffffffffffff1673ffffffffffffffffffffffffffffffffffffffff1663c4d252f5836040518263ffffffff1660e01b815260040161074e9190611c50565b5f604051808303815f87803b158015610765575f5ffd5b505af1158015610777573d5f5f3e3d5ffd5b505050505b5050565b6107886111ce565b5f73ffffffffffffffffffffffffffffffffffffffff168173ffffffffffffffffffffffffffffffffffffffff16036107ed576040517fd92e233d00000000000000000000000000000000000000000000000000000000815260040160405180910390fd5b4360065f8373ffffffffffffffffffffffffffffffffffffffff1673ffffffffffffffffffffffffffffffffffffffff1681526020019081526020015f208190555050565b5f5f60149054906101000a900460ff16905090565b60025f9054906101000a900473ffffffffffffffffffffffffffffffffffffffff1681565b5f60055f9054906101000a900473ffffffffffffffffffffffffffffffffffffffff16905090565b61089c6111ce565b60055f9054906101000a900473ffffffffffffffffffffffffffffffffffffffff1673ffffffffffffffffffffffffffffffffffffffff1663ed8b74b783836040518363ffffffff1660e01b81526004016108f8929190611d41565b5f604051808303815f87803b15801561090f575f5ffd5b505af1158015610921573d5f5f3e3d5ffd5b505050505050565b6103e881565b5f5f9054906101000a900473ffffffffffffffffffffffffffffffffffffffff1681565b61095b6111ce565b6109636112d6565b565b61096d611283565b5f60025f9054906101000a900473ffffffffffffffffffffffffffffffffffffffff1673ffffffffffffffffffffffffffffffffffffffff1663430694cf836040518263ffffffff1660e01b81526004016109c89190611c50565b5f60405180830381865afa1580156109e2573d5f5f3e3d5ffd5b505050506040513d5f823e3d601f19601f82011682018060405250810190610a0a9190612009565b905060016005811115610a2057610a1f611d14565b5b81604001516005811115610a3757610a36611d14565b5b14610a7957816040517fc6077939000000000000000000000000000000000000000000000000000000008152600401610a709190611c50565b60405180910390fd5b60045f9054906101000a900473ffffffffffffffffffffffffffffffffffffffff1673ffffffffffffffffffffffffffffffffffffffff16636c656dd88383608001518460a001518560c001518660e001516040518663ffffffff1660e01b8152600401610aeb9594939291906120a2565b6020604051808303815f875af1158015610b07573d5f5f3e3d5ffd5b505050506040513d601f19601f82011682018060405250810190610b2b91906120fa565b505050565b5f60149054906101000a900460ff1681565b610b4a611283565b60055f9054906101000a900473ffffffffffffffffffffffffffffffffffffffff1673ffffffffffffffffffffffffffffffffffffffff1663ea25e17686868686866040518663ffffffff1660e01b8152600401610bac95949392919061219d565b5f604051808303815f87803b158015610bc3575f5ffd5b505af1158015610bd5573d5f5f3e3d5ffd5b505050505050505050565b610be86111ce565b5f60065f8373ffffffffffffffffffffffffffffffffffffffff1673ffffffffffffffffffffffffffffffffffffffff1681526020019081526020015f208190555050565b610c35611283565b5f60025f9054906101000a900473ffffffffffffffffffffffffffffffffffffffff1673ffffffffffffffffffffffffffffffffffffffff1663430694cf836040518263ffffffff1660e01b8152600401610c909190611c50565b5f60405180830381865afa158015610caa573d5f5f3e3d5ffd5b505050506040513d5f823e3d601f19601f82011682018060405250810190610cd29190612009565b905060026005811115610ce857610ce7611d14565b5b81604001516005811115610cff57610cfe611d14565b5b14610d4157816040517f4a1ae456000000000000000000000000000000000000000000000000000000008152600401610d389190611c50565b60405180910390fd5b60045f9054906101000a900473ffffffffffffffffffffffffffffffffffffffff1673ffffffffffffffffffffffffffffffffffffffff1663e751f271836040518263ffffffff1660e01b8152600401610d9b9190611c50565b5f604051808303815f87803b158015610db2575f5ffd5b505af1158015610dc4573d5f5f3e3d5ffd5b50505050610dd181611333565b5050565b610ddd6111ce565b610de681611571565b50565b5f60045f9054906101000a900473ffffffffffffffffffffffffffffffffffffffff16905090565b5f610e1a611283565b5f60065f3373ffffffffffffffffffffffffffffffffffffffff1673ffffffffffffffffffffffffffffffffffffffff1681526020019081526020015f205403610e9b57336040517f8e4a23d6000000000000000000000000000000000000000000000000000000008152600401610e9291906118a5565b60405180910390fd5b5f73ffffffffffffffffffffffffffffffffffffffff168573ffffffffffffffffffffffffffffffffffffffff1614158015610ed657505f84115b15610fbc575f8573ffffffffffffffffffffffffffffffffffffffff166370a08231306040518263ffffffff1660e01b8152600401610f1591906118a5565b602060405180830381865afa158015610f30573d5f5f3e3d5ffd5b505050506040513d601f19601f82011682018060405250810190610f5491906120fa565b90505f6127106103e883610f689190612216565b610f729190612284565b905080861115610fb957856040517f3728b83d000000000000000000000000000000000000000000000000000000008152600401610fb09190611a35565b60405180910390fd5b50505b60025f9054906101000a900473ffffffffffffffffffffffffffffffffffffffff1673ffffffffffffffffffffffffffffffffffffffff1663dd33c64f8888888888886040518763ffffffff1660e01b815260040161102096959493929190612334565b6020604051808303815f875af115801561103c573d5f5f3e3d5ffd5b505050506040513d601f19601f8201168201806040525081019061106091906123a2565b90509695505050505050565b611074611283565b60035f9054906101000a900473ffffffffffffffffffffffffffffffffffffffff1673ffffffffffffffffffffffffffffffffffffffff1663df6158ba8484846040518463ffffffff1660e01b81526004016110d2939291906123cd565b5f604051808303815f87803b1580156110e9575f5ffd5b505af11580156110fb573d5f5f3e3d5ffd5b50505050505050565b60055f9054906101000a900473ffffffffffffffffffffffffffffffffffffffff1681565b5f8173ffffffffffffffffffffffffffffffffffffffff166370a08231306040518263ffffffff1660e01b815260040161116391906118a5565b602060405180830381865afa15801561117e573d5f5f3e3d5ffd5b505050506040513d601f19601f820116820180604052508101906111a291906120fa565b9050919050565b60035f9054906101000a900473ffffffffffffffffffffffffffffffffffffffff1681565b5f5f9054906101000a900473ffffffffffffffffffffffffffffffffffffffff1673ffffffffffffffffffffffffffffffffffffffff163373ffffffffffffffffffffffffffffffffffffffff161461125e57336040517f8e4a23d600000000000000000000000000000000000000000000000000000000815260040161125591906118a5565b60405180910390fd5b565b6112686111ce565b5f5f60146101000a81548160ff021916908315150217905550565b5f60149054906101000a900460ff16156112d457336040517f8e4a23d60000000000000000000000000000000000000000000000000000000081526004016112cb91906118a5565b60405180910390fd5b565b6112de6111ce565b60015f60146101000a81548160ff0219169083151502179055507f56a7c9bf9dfb88f577de1e2cea5000f3ea7e04c48c04d4a55279c0bd523db5d933426040516113299291906123fd565b60405180910390a1565b5f600281111561134657611345611d14565b5b8160200151600281111561135d5761135c611d14565b5b03611438575f8160a0015173ffffffffffffffffffffffffffffffffffffffff1663a9059cbb83608001518460c001516040518363ffffffff1660e01b81526004016113aa9291906123fd565b6020604051808303815f875af11580156113c6573d5f5f3e3d5ffd5b505050506040513d601f19601f820116820180604052508101906113ea919061244e565b9050806114325781608001516040517f6c544f33000000000000000000000000000000000000000000000000000000008152600401611429919061249c565b60405180910390fd5b5061156e565b6001600281111561144c5761144b611d14565b5b8160200151600281111561146357611462611d14565b5b0361152a575f816080015173ffffffffffffffffffffffffffffffffffffffff168260e001516040516114969190612502565b5f604051808303815f865af19150503d805f81146114cf576040519150601f19603f3d011682016040523d82523d5f602084013e6114d4565b606091505b50509050806115245781608001518260e001516040517f6c544f3300000000000000000000000000000000000000000000000000000000815260040161151b929190612518565b60405180910390fd5b5061156d565b60028081111561153d5761153c611d14565b5b8160200151600281111561155457611553611d14565b5b0361156c5761156b81608001518260e00151611679565b5b5b5b50565b6115796111ce565b5f73ffffffffffffffffffffffffffffffffffffffff168173ffffffffffffffffffffffffffffffffffffffff16036115de576040517fd92e233d00000000000000000000000000000000000000000000000000000000815260040160405180910390fd5b7f434a2db650703b36c824e745330d6397cdaa9ee2cc891a4938ae853e1c50b68d5f5f9054906101000a900473ffffffffffffffffffffffffffffffffffffffff168260405161162f929190612546565b60405180910390a1805f5f6101000a81548173ffffffffffffffffffffffffffffffffffffffff021916908373ffffffffffffffffffffffffffffffffffffffff16021790555050565b5f5f8280602001905181019061168f91906125a8565b915091505f73ffffffffffffffffffffffffffffffffffffffff168173ffffffffffffffffffffffffffffffffffffffff16036116f8576040517fd92e233d00000000000000000000000000000000000000000000000000000000815260040160405180910390fd5b5f8203611744578060025f6101000a81548173ffffffffffffffffffffffffffffffffffffffff021916908373ffffffffffffffffffffffffffffffffffffffff160217905550611860565b60018203611791578060035f6101000a81548173ffffffffffffffffffffffffffffffffffffffff021916908373ffffffffffffffffffffffffffffffffffffffff16021790555061185f565b600282036117de578060045f6101000a81548173ffffffffffffffffffffffffffffffffffffffff021916908373ffffffffffffffffffffffffffffffffffffffff16021790555061185e565b6003820361182b578060055f6101000a81548173ffffffffffffffffffffffffffffffffffffffff021916908373ffffffffffffffffffffffffffffffffffffffff16021790555061185d565b6040517fae52a1c300000000000000000000000000000000000000000000000000000000815260040160405180910390fd5b5b5b5b50505050565b5f73ffffffffffffffffffffffffffffffffffffffff82169050919050565b5f61188f82611866565b9050919050565b61189f81611885565b82525050565b5f6020820190506118b85f830184611896565b92915050565b5f604051905090565b5f5ffd5b5f5ffd5b5f819050919050565b6118e1816118cf565b81146118eb575f5ffd5b50565b5f813590506118fc816118d8565b92915050565b5f60208284031215611917576119166118c7565b5b5f611924848285016118ee565b91505092915050565b61193681611885565b8114611940575f5ffd5b50565b5f813590506119518161192d565b92915050565b5f6020828403121561196c5761196b6118c7565b5b5f61197984828501611943565b91505092915050565b5f8115159050919050565b61199681611982565b82525050565b5f6020820190506119af5f83018461198d565b92915050565b5f819050919050565b6119c7816119b5565b81146119d1575f5ffd5b50565b5f813590506119e2816119be565b92915050565b5f5f604083850312156119fe576119fd6118c7565b5b5f611a0b858286016119d4565b9250506020611a1c858286016118ee565b9150509250929050565b611a2f816119b5565b82525050565b5f602082019050611a485f830184611a26565b92915050565b5f5ffd5b5f5ffd5b5f5ffd5b5f5f83601f840112611a6f57611a6e611a4e565b5b8235905067ffffffffffffffff811115611a8c57611a8b611a52565b5b602083019150836020820283011115611aa857611aa7611a56565b5b9250929050565b5f5f5f5f5f60808688031215611ac857611ac76118c7565b5b5f611ad5888289016119d4565b9550506020611ae6888289016119d4565b9450506040611af7888289016119d4565b935050606086013567ffffffffffffffff811115611b1857611b176118cb565b5b611b2488828901611a5a565b92509250509295509295909350565b60038110611b3f575f5ffd5b50565b5f81359050611b5081611b33565b92915050565b5f5f83601f840112611b6b57611b6a611a4e565b5b8235905067ffffffffffffffff811115611b8857611b87611a52565b5b602083019150836001820283011115611ba457611ba3611a56565b5b9250929050565b5f5f5f5f5f5f60a08789031215611bc557611bc46118c7565b5b5f611bd289828a01611b42565b9650506020611be389828a01611943565b9550506040611bf489828a01611943565b9450506060611c0589828a016119d4565b935050608087013567ffffffffffffffff811115611c2657611c256118cb565b5b611c3289828a01611b56565b92509250509295509295509295565b611c4a816118cf565b82525050565b5f602082019050611c635f830184611c41565b92915050565b5f5f5f60408486031215611c8057611c7f6118c7565b5b5f611c8d868287016118ee565b935050602084013567ffffffffffffffff811115611cae57611cad6118cb565b5b611cba86828701611b56565b92509250509250925092565b60068110611cd2575f5ffd5b50565b5f81519050611ce381611cc6565b92915050565b5f60208284031215611cfe57611cfd6118c7565b5b5f611d0b84828501611cd5565b91505092915050565b7f4e487b71000000000000000000000000000000000000000000000000000000005f52602160045260245ffd5b5f604082019050611d545f830185611a26565b611d616020830184611c41565b9392505050565b5f5ffd5b5f601f19601f8301169050919050565b7f4e487b71000000000000000000000000000000000000000000000000000000005f52604160045260245ffd5b611db282611d6c565b810181811067ffffffffffffffff82111715611dd157611dd0611d7c565b5b80604052505050565b5f611de36118be565b9050611def8282611da9565b919050565b5f5ffd5b5f81519050611e06816119be565b92915050565b5f81519050611e1a81611b33565b92915050565b5f81519050611e2e8161192d565b92915050565b5f5ffd5b5f67ffffffffffffffff821115611e5257611e51611d7c565b5b611e5b82611d6c565b9050602081019050919050565b8281835e5f83830152505050565b5f611e88611e8384611e38565b611dda565b905082815260208101848484011115611ea457611ea3611e34565b5b611eaf848285611e68565b509392505050565b5f82601f830112611ecb57611eca611a4e565b5b8151611edb848260208601611e76565b91505092915050565b5f6101608284031215611efa57611ef9611d68565b5b611f05610160611dda565b90505f611f1484828501611df8565b5f830152506020611f2784828501611e0c565b6020830152506040611f3b84828501611cd5565b6040830152506060611f4f84828501611e20565b6060830152506080611f6384828501611e20565b60808301525060a0611f7784828501611e20565b60a08301525060c0611f8b84828501611df8565b60c08301525060e082015167ffffffffffffffff811115611faf57611fae611df4565b5b611fbb84828501611eb7565b60e083015250610100611fd084828501611df8565b61010083015250610120611fe684828501611df8565b61012083015250610140611ffc84828501611df8565b6101408301525092915050565b5f6020828403121561201e5761201d6118c7565b5b5f82015167ffffffffffffffff81111561203b5761203a6118cb565b5b61204784828501611ee4565b91505092915050565b5f81519050919050565b5f82825260208201905092915050565b5f61207482612050565b61207e818561205a565b935061208e818560208601611e68565b61209781611d6c565b840191505092915050565b5f60a0820190506120b55f830188611c41565b6120c26020830187611896565b6120cf6040830186611896565b6120dc6060830185611a26565b81810360808301526120ee818461206a565b90509695505050505050565b5f6020828403121561210f5761210e6118c7565b5b5f61211c84828501611df8565b91505092915050565b5f82825260208201905092915050565b5f5ffd5b82818337505050565b5f61214d8385612125565b93507f07ffffffffffffffffffffffffffffffffffffffffffffffffffffffffffffff8311156121805761217f612135565b5b602083029250612191838584612139565b82840190509392505050565b5f6080820190506121b05f830188611a26565b6121bd6020830187611a26565b6121ca6040830186611a26565b81810360608301526121dd818486612142565b90509695505050505050565b7f4e487b71000000000000000000000000000000000000000000000000000000005f52601160045260245ffd5b5f612220826119b5565b915061222b836119b5565b9250828202612239816119b5565b915082820484148315176122505761224f6121e9565b5b5092915050565b7f4e487b71000000000000000000000000000000000000000000000000000000005f52601260045260245ffd5b5f61228e826119b5565b9150612299836119b5565b9250826122a9576122a8612257565b5b828204905092915050565b600381106122c5576122c4611d14565b5b50565b5f8190506122d5826122b4565b919050565b5f6122e4826122c8565b9050919050565b6122f4816122da565b82525050565b828183375f83830152505050565b5f612313838561205a565b93506123208385846122fa565b61232983611d6c565b840190509392505050565b5f60a0820190506123475f8301896122eb565b6123546020830188611896565b6123616040830187611896565b61236e6060830186611a26565b8181036080830152612381818486612308565b9050979650505050505050565b5f8151905061239c816118d8565b92915050565b5f602082840312156123b7576123b66118c7565b5b5f6123c48482850161238e565b91505092915050565b5f6040820190506123e05f830186611c41565b81810360208301526123f3818486612308565b9050949350505050565b5f6040820190506124105f830185611896565b61241d6020830184611a26565b9392505050565b61242d81611982565b8114612437575f5ffd5b50565b5f8151905061244881612424565b92915050565b5f60208284031215612463576124626118c7565b5b5f6124708482850161243a565b91505092915050565b50565b5f6124875f8361205a565b915061249282612479565b5f82019050919050565b5f6040820190506124af5f830184611896565b81810360208301526124c08161247c565b905092915050565b5f81905092915050565b5f6124dc82612050565b6124e681856124c8565b93506124f6818560208601611e68565b80840191505092915050565b5f61250d82846124d2565b915081905092915050565b5f60408201905061252b5f830185611896565b818103602083015261253d818461206a565b90509392505050565b5f6040820190506125595f830185611896565b6125666020830184611896565b9392505050565b5f61257782611866565b9050919050565b6125878161256d565b8114612591575f5ffd5b50565b5f815190506125a28161257e565b92915050565b5f5f604083850312156125be576125bd6118c7565b5b5f6125cb85828601611df8565b92505060206125dc85828601612594565b915050925092905056fea2646970667358221220b8000d308f440a581d8e088d022de0b5a5ba0a1d4a1c879d5a813d5c2fa3350064736f6c63430008210033","linkReferences":{}},"methodIdentifiers":{"MAX_SINGLE_DRAIN_BPS()":"5a06a77b","cancelProposal(bytes32)":"37376ca8","claimReward(uint256,uint256,uint256,bytes32[])":"8667790e","emergencyStop()":"63a599a4","executeProposal(bytes32)":"980ff6c6","getBalance(address)":"f8b2cb4f","getGovernance()":"289b3c0d","getMerkleDistributor()":"4c402e4d","getProposalEngine()":"26f36fba","getSignatureVerifier()":"345763ad","getTimelockQueue()":"ccb94e73","governance()":"5aa6e675","isStopped()":"3f683b6a","merkleDistributor()":"f4537f78","proposalEngine()":"4048e07c","propose(uint8,address,address,uint256,bytes)":"dd33c64f","queueProposal(bytes32)":"74428d9b","registerVoter(address)":"38db6dd3","removeVoter(address)":"86c1ff68","resume()":"046f7da2","signatureVerifier()":"fde919f6","stopped()":"75f12b21","submitSignature(bytes32,bytes)":"df6158ba","timelockQueue()":"338ba675","updateGovernance(address)":"b2561263","updateRewardRoot(uint256,bytes32)":"4e05bf7d"},"id":30}