{"abi":[{"type":"constructor","inputs":[{"name":"_governance","type":"address","internalType":"address"},{"name":"_signatureVerifier","type":"address","internalType":"address"},{"name":"_timelockQueue","type":"address","internalType":"address"}],"stateMutability":"nonpayable"},{"type":"function","name":"PROPOSAL_EXPIRY","inputs":[],"outputs":[{"name":"","type":"uint256","internalType":"uint256"}],"stateMutability":"view"},{"type":"function","name":"cancel","inputs":[{"name":"proposalId","type":"bytes32","internalType":"bytes32"}],"outputs":[],"stateMutability":"nonpayable"},{"type":"function","name":"emergencyStop","inputs":[],"outputs":[],"stateMutability":"nonpayable"},{"type":"function","name":"getNonce","inputs":[{"name":"proposer","type":"address","internalType":"address"}],"outputs":[{"name":"","type":"uint256","internalType":"uint256"}],"stateMutability":"view"},{"type":"function","name":"getProposal","inputs":[{"name":"proposalId","type":"bytes32","internalType":"bytes32"}],"outputs":[{"name":"","type":"tuple","internalType":"struct DataTypes.Proposal","components":[{"name":"id","type":"uint256","internalType":"uint256"},{"name":"proposalType","type":"uint8","internalType":"enum DataTypes.ProposalType"},{"name":"proposalState","type":"uint8","internalType":"enum DataTypes.ProposalState"},{"name":"proposer","type":"address","internalType":"address"},{"name":"target","type":"address","internalType":"address"},{"name":"token","type":"address","internalType":"address"},{"name":"amount","type":"uint256","internalType":"uint256"},{"name":"callData","type":"bytes","internalType":"bytes"},{"name":"createdAt","type":"uint256","internalType":"uint256"},{"name":"executeAfter","type":"uint256","internalType":"uint256"},{"name":"nonce","type":"uint256","internalType":"uint256"}]}],"stateMutability":"view"},{"type":"function","name":"getProposalState","inputs":[{"name":"proposalId","type":"bytes32","internalType":"bytes32"}],"outputs":[{"name":"","type":"uint8","internalType":"enum DataTypes.ProposalState"}],"stateMutability":"view"},{"type":"function","name":"governance","inputs":[],"outputs":[{"name":"","type":"address","internalType":"address"}],"stateMutability":"view"},{"type":"function","name":"markApproved","inputs":[{"name":"proposalId","type":"bytes32","internalType":"bytes32"}],"outputs":[],"stateMutability":"nonpayable"},{"type":"function","name":"markExecuted","inputs":[{"name":"proposalId","type":"bytes32","internalType":"bytes32"}],"outputs":[],"stateMutability":"nonpayable"},{"type":"function","name":"markQueued","inputs":[{"name":"proposalId","type":"bytes32","internalType":"bytes32"},{"name":"unlockTime","type":"uint256","internalType":"uint256"}],"outputs":[],"stateMutability":"nonpayable"},{"type":"function","name":"proposalExists","inputs":[{"name":"proposalId","type":"bytes32","internalType":"bytes32"}],"outputs":[{"name":"","type":"bool","internalType":"bool"}],"stateMutability":"view"},{"type":"function","name":"propose","inputs":[{"name":"proposalType","type":"uint8","internalType":"enum DataTypes.ProposalType"},{"name":"target","type":"address","internalType":"address"},{"name":"token","type":"address","internalType":"address"},{"name":"amount","type":"uint256","internalType":"uint256"},{"name":"callData","type":"bytes","internalType":"bytes"}],"outputs":[{"name":"proposalId","type":"bytes32","internalType":"bytes32"}],"stateMutability":"nonpayable"},{"type":"function","name":"resume","inputs":[],"outputs":[],"stateMutability":"nonpayable"},{"type":"function","name":"setDependencies","inputs":[{"name":"_signatureVerifier","type":"address","internalType":"address"},{"name":"_timelockQueue","type":"address","internalType":"address"}],"outputs":[],"stateMutability":"nonpayable"},{"type":"function","name":"signatureVerifier","inputs":[],"outputs":[{"name":"","type":"address","internalType":"address"}],"stateMutability":"view"},{"type":"function","name":"stopped","inputs":[],"outputs":[{"name":"","type":"bool","internalType":"bool"}],"stateMutability":"view"},{"type":"function","name":"timelockQueue","inputs":[],"outputs":[{"name":"","type":"address","internalType":"address"}],"stateMutability":"view"},{"type":"function","name":"updateGovernance","inputs":[{"name":"newGovernance","type":"address","internalType":"address"}],"outputs":[],"stateMutability":"nonpayable"},{"type":"event","name":"EmergencyStop","inputs":[{"name":"triggeredBy","type":"address","indexed":false,"internalType":"address"},{"name":"timestamp","type":"uint256","indexed":false,"internalType":"uint256"}],"anonymous":false},{"type":"event","name":"GovernanceUpdated","inputs":[{"name":"oldGovernance","type":"address","indexed":false,"internalType":"address"},{"name":"newGovernance","type":"address","indexed":false,"internalType":"address"}],"anonymous":false},{"type":"event","name":"ProposalApproved","inputs":[{"name":"proposalId","type":"bytes32","indexed":true,"internalType":"bytes32"},{"name":"approver","type":"address","indexed":true,"internalType":"address"}],"anonymous":false},{"type":"event","name":"ProposalCancelled","inputs":[{"name":"proposalId","type":"bytes32","indexed":true,"internalType":"bytes32"},{"name":"canceller","type":"address","indexed":true,"internalType":"address"}],"anonymous":false},{"type":"event","name":"ProposalCreated","inputs":[{"name":"proposalId","type":"bytes32","indexed":true,"internalType":"bytes32"},{"name":"proposer","type":"address","indexed":true,"internalType":"address"},{"name":"createdAt","type":"uint256","indexed":false,"internalType":"uint256"}],"anonymous":false},{"type":"event","name":"ProposalExecuted","inputs":[{"name":"proposalId","type":"bytes32","indexed":true,"internalType":"bytes32"},{"name":"executor","type":"address","indexed":true,"internalType":"address"}],"anonymous":false},{"type":"event","name":"ProposalQueued","inputs":[{"name":"proposalId","type":"bytes32","indexed":true,"internalType":"bytes32"},{"name":"unlockTime","type":"uint256","indexed":false,"internalType":"uint256"}],"anonymous":false},{"type":"error","name":"InvalidAmount","inputs":[{"name":"amount","type":"uint256","internalType":"uint256"}]},{"type":"error","name":"ProposalAlreadyCancelled","inputs":[{"name":"proposalId","type":"bytes32","internalType":"bytes32"}]},{"type":"error","name":"ProposalAlreadyExecuted","inputs":[{"name":"proposalId","type":"bytes32","internalType":"bytes32"}]},{"type":"error","name":"ProposalAlreadyExists","inputs":[{"name":"proposalId","type":"bytes32","internalType":"bytes32"}]},{"type":"error","name":"ProposalNotApproved","inputs":[{"name":"proposalId","type":"bytes32","internalType":"bytes32"}]},{"type":"error","name":"ProposalNotFound","inputs":[{"name":"proposalId","type":"bytes32","internalType":"bytes32"}]},{"type":"error","name":"ProposalNotQueued","inputs":[{"name":"proposalId","type":"bytes32","internalType":"bytes32"}]},{"type":"error","name":"Unauthorized","inputs":[{"name":"caller","type":"address","internalType":"address"}]},{"type":"error","name":"ZeroAddress","inputs":[]}],"bytecode":{"object":"0x608060405234801561000f575f5ffd5b5060405161268d38038061268d833981810160405281019061003191906102a7565b825f73ffffffffffffffffffffffffffffffffffffffff168173ffffffffffffffffffffffffffffffffffffffff1603610097576040517fd92e233d00000000000000000000000000000000000000000000000000000000815260040160405180910390fd5b805f5f6101000a81548173ffffffffffffffffffffffffffffffffffffffff021916908373ffffffffffffffffffffffffffffffffffffffff160217905550600180819055505f5f60146101000a81548160ff021916908315150217905550505f73ffffffffffffffffffffffffffffffffffffffff168273ffffffffffffffffffffffffffffffffffffffff160361015c576040517fd92e233d00000000000000000000000000000000000000000000000000000000815260040160405180910390fd5b5f73ffffffffffffffffffffffffffffffffffffffff168173ffffffffffffffffffffffffffffffffffffffff16036101c1576040517fd92e233d00000000000000000000000000000000000000000000000000000000815260040160405180910390fd5b8160045f6101000a81548173ffffffffffffffffffffffffffffffffffffffff021916908373ffffffffffffffffffffffffffffffffffffffff1602179055508060055f6101000a81548173ffffffffffffffffffffffffffffffffffffffff021916908373ffffffffffffffffffffffffffffffffffffffff1602179055505050506102f7565b5f5ffd5b5f73ffffffffffffffffffffffffffffffffffffffff82169050919050565b5f6102768261024d565b9050919050565b6102868161026c565b8114610290575f5ffd5b50565b5f815190506102a18161027d565b92915050565b5f5f5f606084860312156102be576102bd610249565b5b5f6102cb86828701610293565b93505060206102dc86828701610293565b92505060406102ed86828701610293565b9150509250925092565b612389806103045f395ff3fe608060405234801561000f575f5ffd5b5060043610610114575f3560e01c806375f12b21116100a0578063c4d252f51161006f578063c4d252f5146102b8578063dc2ac081146102d4578063dd33c64f146102f0578063e87c28a714610320578063fde919f61461033c57610114565b806375f12b21146102445780638a14e3d014610262578063a1499d7f14610280578063b25612631461029c57610114565b8063430694cf116100e7578063430694cf146101a05780634410a944146101d05780635aa6e6751461020057806363a599a41461021e578063665d4c611461022857610114565b8063046f7da2146101185780630a704f48146101225780632d0335ab14610152578063338ba67514610182575b5f5ffd5b61012061035a565b005b61013c600480360381019061013791906118e1565b61037d565b604051610149919061197f565b60405180910390f35b61016c600480360381019061016791906119f2565b610469565b6040516101799190611a35565b60405180910390f35b61018a6104af565b6040516101979190611a5d565b60405180910390f35b6101ba60048036038101906101b591906118e1565b6104d4565b6040516101c79190611c45565b60405180910390f35b6101ea60048036038101906101e591906118e1565b61078e565b6040516101f79190611c7f565b60405180910390f35b6102086107ae565b6040516102159190611a5d565b60405180910390f35b6102266107d2565b005b610242600480360381019061023d91906118e1565b61082f565b005b61024c6109a6565b6040516102599190611c7f565b60405180910390f35b61026a6109b8565b6040516102779190611a35565b60405180910390f35b61029a60048036038101906102959190611cc2565b6109bf565b005b6102b660048036038101906102b191906119f2565b610b34565b005b6102d260048036038101906102cd91906118e1565b610c3c565b005b6102ee60048036038101906102e991906118e1565b610ef7565b005b61030a60048036038101906103059190611d84565b61106d565b6040516103179190611e29565b60405180910390f35b61033a60048036038101906103359190611e42565b61151d565b005b610344611673565b6040516103519190611a5d565b60405180910390f35b610362611698565b5f5f60146101000a81548160ff021916908315150217905550565b5f5f60025f8481526020019081526020015f2060060154036103d657816040517fe2acee5b0000000000000000000000000000000000000000000000000000000081526004016103cd9190611e29565b60405180910390fd5b5f60025f8481526020019081526020015f2090505f60058111156103fd576103fc61190c565b5b8160010160019054906101000a900460ff1660058111156104215761042061190c565b5b14801561043f575062093a80816006015461043c9190611ead565b42115b1561044e576005915050610464565b8060010160019054906101000a900460ff169150505b919050565b5f60035f8373ffffffffffffffffffffffffffffffffffffffff1673ffffffffffffffffffffffffffffffffffffffff1681526020019081526020015f20549050919050565b60055f9054906101000a900473ffffffffffffffffffffffffffffffffffffffff1681565b6104dc6117f0565b5f60025f8481526020019081526020015f20600601540361053457816040517fe2acee5b00000000000000000000000000000000000000000000000000000000815260040161052b9190611e29565b60405180910390fd5b60025f8381526020019081526020015f20604051806101600160405290815f8201548152602001600182015f9054906101000a900460ff16600281111561057e5761057d61190c565b5b60028111156105905761058f61190c565b5b81526020016001820160019054906101000a900460ff1660058111156105b9576105b861190c565b5b60058111156105cb576105ca61190c565b5b81526020016001820160029054906101000a900473ffffffffffffffffffffffffffffffffffffffff1673ffffffffffffffffffffffffffffffffffffffff1673ffffffffffffffffffffffffffffffffffffffff168152602001600282015f9054906101000a900473ffffffffffffffffffffffffffffffffffffffff1673ffffffffffffffffffffffffffffffffffffffff1673ffffffffffffffffffffffffffffffffffffffff168152602001600382015f9054906101000a900473ffffffffffffffffffffffffffffffffffffffff1673ffffffffffffffffffffffffffffffffffffffff1673ffffffffffffffffffffffffffffffffffffffff168152602001600482015481526020016005820180546106e990611f0d565b80601f016020809104026020016040519081016040528092919081815260200182805461071590611f0d565b80156107605780601f1061073757610100808354040283529160200191610760565b820191905f5260205f20905b81548152906001019060200180831161074357829003601f168201915b5050505050815260200160068201548152602001600782015481526020016008820154815250509050919050565b5f5f60025f8481526020019081526020015f206006015414159050919050565b5f5f9054906101000a900473ffffffffffffffffffffffffffffffffffffffff1681565b6107da611698565b60015f60146101000a81548160ff0219169083151502179055507f56a7c9bf9dfb88f577de1e2cea5000f3ea7e04c48c04d4a55279c0bd523db5d93342604051610825929190611f3d565b60405180910390a1565b60055f9054906101000a900473ffffffffffffffffffffffffffffffffffffffff1661085a8161172a565b5f60025f8481526020019081526020015f2090505f8160060154036108b657826040517fe2acee5b0000000000000000000000000000000000000000000000000000000081526004016108ad9190611e29565b60405180910390fd5b600260058111156108ca576108c961190c565b5b8160010160019054906101000a900460ff1660058111156108ee576108ed61190c565b5b1461093057826040517f4a1ae4560000000000000000000000000000000000000000000000000000000081526004016109279190611e29565b60405180910390fd5b60038160010160016101000a81548160ff021916908360058111156109585761095761190c565b5b02179055503373ffffffffffffffffffffffffffffffffffffffff16837ff20459f0cd23ff5b3028bc90ea400293e55b573e4e60f3b01e45325428994ee160405160405180910390a3505050565b5f60149054906101000a900460ff1681565b62093a8081565b60055f9054906101000a900473ffffffffffffffffffffffffffffffffffffffff166109ea8161172a565b5f60025f8581526020019081526020015f2090505f816006015403610a4657836040517fe2acee5b000000000000000000000000000000000000000000000000000000008152600401610a3d9190611e29565b60405180910390fd5b60016005811115610a5a57610a5961190c565b5b8160010160019054906101000a900460ff166005811115610a7e57610a7d61190c565b5b14610ac057836040517fc6077939000000000000000000000000000000000000000000000000000000008152600401610ab79190611e29565b60405180910390fd5b60028160010160016101000a81548160ff02191690836005811115610ae857610ae761190c565b5b0217905550828160070181905550837f65431b33ae1566469324739cd3024c5e8d7422fa2c54e71fda14b92fd5e8f1ea84604051610b269190611a35565b60405180910390a250505050565b610b3c611698565b5f73ffffffffffffffffffffffffffffffffffffffff168173ffffffffffffffffffffffffffffffffffffffff1603610ba1576040517fd92e233d00000000000000000000000000000000000000000000000000000000815260040160405180910390fd5b7f434a2db650703b36c824e745330d6397cdaa9ee2cc891a4938ae853e1c50b68d5f5f9054906101000a900473ffffffffffffffffffffffffffffffffffffffff1682604051610bf2929190611f64565b60405180910390a1805f5f6101000a81548173ffffffffffffffffffffffffffffffffffffffff021916908373ffffffffffffffffffffffffffffffffffffffff16021790555050565b610c4461179d565b5f60025f8381526020019081526020015f2090505f816006015403610ca057816040517fe2acee5b000000000000000000000000000000000000000000000000000000008152600401610c979190611e29565b60405180910390fd5b8060010160029054906101000a900473ffffffffffffffffffffffffffffffffffffffff1673ffffffffffffffffffffffffffffffffffffffff163373ffffffffffffffffffffffffffffffffffffffff1614158015610d4c57505f5f9054906101000a900473ffffffffffffffffffffffffffffffffffffffff1673ffffffffffffffffffffffffffffffffffffffff163373ffffffffffffffffffffffffffffffffffffffff1614155b15610d8e57336040517f8e4a23d6000000000000000000000000000000000000000000000000000000008152600401610d859190611a5d565b60405180910390fd5b60036005811115610da257610da161190c565b5b8160010160019054906101000a900460ff166005811115610dc657610dc561190c565b5b03610e0857816040517f2698e086000000000000000000000000000000000000000000000000000000008152600401610dff9190611e29565b60405180910390fd5b60046005811115610e1c57610e1b61190c565b5b8160010160019054906101000a900460ff166005811115610e4057610e3f61190c565b5b03610e8257816040517f0e698eec000000000000000000000000000000000000000000000000000000008152600401610e799190611e29565b60405180910390fd5b60048160010160016101000a81548160ff02191690836005811115610eaa57610ea961190c565b5b02179055503373ffffffffffffffffffffffffffffffffffffffff16827f56a54393c88fb71d37dc109609d88e0b586637deb2452aef5f41d3eb32adedfc60405160405180910390a35050565b60045f9054906101000a900473ffffffffffffffffffffffffffffffffffffffff16610f228161172a565b5f60025f8481526020019081526020015f2090505f816006015403610f7e57826040517fe2acee5b000000000000000000000000000000000000000000000000000000008152600401610f759190611e29565b60405180910390fd5b5f6005811115610f9157610f9061190c565b5b8160010160019054906101000a900460ff166005811115610fb557610fb461190c565b5b14610ff757826040517fe2acee5b000000000000000000000000000000000000000000000000000000008152600401610fee9190611e29565b60405180910390fd5b60018160010160016101000a81548160ff0219169083600581111561101f5761101e61190c565b5b02179055503373ffffffffffffffffffffffffffffffffffffffff16837feb05169868501d8cd19ad54800ef0547fcc3820c5bc4ac68e5683e6456ce08e360405160405180910390a3505050565b5f61107661179d565b5f73ffffffffffffffffffffffffffffffffffffffff168673ffffffffffffffffffffffffffffffffffffffff16036110db576040517fd92e233d00000000000000000000000000000000000000000000000000000000815260040160405180910390fd5b5f840361111f57836040517f3728b83d0000000000000000000000000000000000000000000000000000000081526004016111169190611a35565b60405180910390fd5b5f60035f3373ffffffffffffffffffffffffffffffffffffffff1673ffffffffffffffffffffffffffffffffffffffff1681526020019081526020015f2054905033878683464260405160200161117b96959493929190611ff0565b6040516020818303038152906040528051906020012091505f60025f8481526020019081526020015f2060060154146111eb57816040517fd6ad034c0000000000000000000000000000000000000000000000000000000081526004016111e29190611e29565b60405180910390fd5b604051806101600160405280835f1c81526020018960028111156112125761121161190c565b5b81526020015f600581111561122a5761122961190c565b5b81526020013373ffffffffffffffffffffffffffffffffffffffff1681526020018873ffffffffffffffffffffffffffffffffffffffff1681526020018773ffffffffffffffffffffffffffffffffffffffff16815260200186815260200185858080601f0160208091040260200160405190810160405280939291908181526020018383808284375f81840152601f19601f8201169050808301925050505050505081526020014281526020015f81526020018281525060025f8481526020019081526020015f205f820151815f01556020820151816001015f6101000a81548160ff021916908360028111156113255761132461190c565b5b021790555060408201518160010160016101000a81548160ff021916908360058111156113555761135461190c565b5b021790555060608201518160010160026101000a81548173ffffffffffffffffffffffffffffffffffffffff021916908373ffffffffffffffffffffffffffffffffffffffff1602179055506080820151816002015f6101000a81548173ffffffffffffffffffffffffffffffffffffffff021916908373ffffffffffffffffffffffffffffffffffffffff16021790555060a0820151816003015f6101000a81548173ffffffffffffffffffffffffffffffffffffffff021916908373ffffffffffffffffffffffffffffffffffffffff16021790555060c0820151816004015560e082015181600501908161144c919061223d565b5061010082015181600601556101208201518160070155610140820151816008015590505060035f3373ffffffffffffffffffffffffffffffffffffffff1673ffffffffffffffffffffffffffffffffffffffff1681526020019081526020015f205f8154809291906114be9061230c565b91905055503373ffffffffffffffffffffffffffffffffffffffff16827f65485b80e7ac5c430fe3f01ba44f405b99761d9c771aeb83eb181788eff98ae04260405161150a9190611a35565b60405180910390a3509695505050505050565b611525611698565b5f73ffffffffffffffffffffffffffffffffffffffff168273ffffffffffffffffffffffffffffffffffffffff160361158a576040517fd92e233d00000000000000000000000000000000000000000000000000000000815260040160405180910390fd5b5f73ffffffffffffffffffffffffffffffffffffffff168173ffffffffffffffffffffffffffffffffffffffff16036115ef576040517fd92e233d00000000000000000000000000000000000000000000000000000000815260040160405180910390fd5b8160045f6101000a81548173ffffffffffffffffffffffffffffffffffffffff021916908373ffffffffffffffffffffffffffffffffffffffff1602179055508060055f6101000a81548173ffffffffffffffffffffffffffffffffffffffff021916908373ffffffffffffffffffffffffffffffffffffffff1602179055505050565b60045f9054906101000a900473ffffffffffffffffffffffffffffffffffffffff1681565b5f5f9054906101000a900473ffffffffffffffffffffffffffffffffffffffff1673ffffffffffffffffffffffffffffffffffffffff163373ffffffffffffffffffffffffffffffffffffffff161461172857336040517f8e4a23d600000000000000000000000000000000000000000000000000000000815260040161171f9190611a5d565b60405180910390fd5b565b8073ffffffffffffffffffffffffffffffffffffffff163373ffffffffffffffffffffffffffffffffffffffff161461179a57336040517f8e4a23d60000000000000000000000000000000000000000000000000000000081526004016117919190611a5d565b60405180910390fd5b50565b5f60149054906101000a900460ff16156117ee57336040517f8e4a23d60000000000000000000000000000000000000000000000000000000081526004016117e59190611a5d565b60405180910390fd5b565b6040518061016001604052805f81526020015f60028111156118155761181461190c565b5b81526020015f600581111561182d5761182c61190c565b5b81526020015f73ffffffffffffffffffffffffffffffffffffffff1681526020015f73ffffffffffffffffffffffffffffffffffffffff1681526020015f73ffffffffffffffffffffffffffffffffffffffff1681526020015f8152602001606081526020015f81526020015f81526020015f81525090565b5f5ffd5b5f5ffd5b5f819050919050565b6118c0816118ae565b81146118ca575f5ffd5b50565b5f813590506118db816118b7565b92915050565b5f602082840312156118f6576118f56118a6565b5b5f611903848285016118cd565b91505092915050565b7f4e487b71000000000000000000000000000000000000000000000000000000005f52602160045260245ffd5b6006811061194a5761194961190c565b5b50565b5f81905061195a82611939565b919050565b5f6119698261194d565b9050919050565b6119798161195f565b82525050565b5f6020820190506119925f830184611970565b92915050565b5f73ffffffffffffffffffffffffffffffffffffffff82169050919050565b5f6119c182611998565b9050919050565b6119d1816119b7565b81146119db575f5ffd5b50565b5f813590506119ec816119c8565b92915050565b5f60208284031215611a0757611a066118a6565b5b5f611a14848285016119de565b91505092915050565b5f819050919050565b611a2f81611a1d565b82525050565b5f602082019050611a485f830184611a26565b92915050565b611a57816119b7565b82525050565b5f602082019050611a705f830184611a4e565b92915050565b611a7f81611a1d565b82525050565b60038110611a9657611a9561190c565b5b50565b5f819050611aa682611a85565b919050565b5f611ab582611a99565b9050919050565b611ac581611aab565b82525050565b611ad48161195f565b82525050565b611ae3816119b7565b82525050565b5f81519050919050565b5f82825260208201905092915050565b8281835e5f83830152505050565b5f601f19601f8301169050919050565b5f611b2b82611ae9565b611b358185611af3565b9350611b45818560208601611b03565b611b4e81611b11565b840191505092915050565b5f61016083015f830151611b6f5f860182611a76565b506020830151611b826020860182611abc565b506040830151611b956040860182611acb565b506060830151611ba86060860182611ada565b506080830151611bbb6080860182611ada565b5060a0830151611bce60a0860182611ada565b5060c0830151611be160c0860182611a76565b5060e083015184820360e0860152611bf98282611b21565b915050610100830151611c10610100860182611a76565b50610120830151611c25610120860182611a76565b50610140830151611c3a610140860182611a76565b508091505092915050565b5f6020820190508181035f830152611c5d8184611b59565b905092915050565b5f8115159050919050565b611c7981611c65565b82525050565b5f602082019050611c925f830184611c70565b92915050565b611ca181611a1d565b8114611cab575f5ffd5b50565b5f81359050611cbc81611c98565b92915050565b5f5f60408385031215611cd857611cd76118a6565b5b5f611ce5858286016118cd565b9250506020611cf685828601611cae565b9150509250929050565b60038110611d0c575f5ffd5b50565b5f81359050611d1d81611d00565b92915050565b5f5ffd5b5f5ffd5b5f5ffd5b5f5f83601f840112611d4457611d43611d23565b5b8235905067ffffffffffffffff811115611d6157611d60611d27565b5b602083019150836001820283011115611d7d57611d7c611d2b565b5b9250929050565b5f5f5f5f5f5f60a08789031215611d9e57611d9d6118a6565b5b5f611dab89828a01611d0f565b9650506020611dbc89828a016119de565b9550506040611dcd89828a016119de565b9450506060611dde89828a01611cae565b935050608087013567ffffffffffffffff811115611dff57611dfe6118aa565b5b611e0b89828a01611d2f565b92509250509295509295509295565b611e23816118ae565b82525050565b5f602082019050611e3c5f830184611e1a565b92915050565b5f5f60408385031215611e5857611e576118a6565b5b5f611e65858286016119de565b9250506020611e76858286016119de565b9150509250929050565b7f4e487b71000000000000000000000000000000000000000000000000000000005f52601160045260245ffd5b5f611eb782611a1d565b9150611ec283611a1d565b9250828201905080821115611eda57611ed9611e80565b5b92915050565b7f4e487b71000000000000000000000000000000000000000000000000000000005f52602260045260245ffd5b5f6002820490506001821680611f2457607f821691505b602082108103611f3757611f36611ee0565b5b50919050565b5f604082019050611f505f830185611a4e565b611f5d6020830184611a26565b9392505050565b5f604082019050611f775f830185611a4e565b611f846020830184611a4e565b9392505050565b5f8160601b9050919050565b5f611fa182611f8b565b9050919050565b5f611fb282611f97565b9050919050565b611fca611fc5826119b7565b611fa8565b82525050565b5f819050919050565b611fea611fe582611a1d565b611fd0565b82525050565b5f611ffb8289611fb9565b60148201915061200b8288611fb9565b60148201915061201b8287611fd9565b60208201915061202b8286611fd9565b60208201915061203b8285611fd9565b60208201915061204b8284611fd9565b602082019150819050979650505050505050565b7f4e487b71000000000000000000000000000000000000000000000000000000005f52604160045260245ffd5b5f819050815f5260205f209050919050565b5f6020601f8301049050919050565b5f82821b905092915050565b5f600883026120e87fffffffffffffffffffffffffffffffffffffffffffffffffffffffffffffffff826120ad565b6120f286836120ad565b95508019841693508086168417925050509392505050565b5f819050919050565b5f61212d61212861212384611a1d565b61210a565b611a1d565b9050919050565b5f819050919050565b61214683612113565b61215a61215282612134565b8484546120b9565b825550505050565b5f5f905090565b612171612162565b61217c81848461213d565b505050565b5f5b828110156121a2576121975f828401612169565b600181019050612183565b505050565b601f8211156121f557828211156121f4576121c18161208c565b6121ca8361209e565b6121d38561209e565b60208610156121e0575f90505b8083016121ef82840382612181565b505050505b5b505050565b5f82821c905092915050565b5f6122155f19846008026121fa565b1980831691505092915050565b5f61222d8383612206565b9150826002028217905092915050565b61224682611ae9565b67ffffffffffffffff81111561225f5761225e61205f565b5b6122698254611f0d565b6122748282856121a7565b5f60209050601f8311600181146122a5575f8415612293578287015190505b61229d8582612222565b865550612304565b601f1984166122b38661208c565b5f5b828110156122da578489015182556001820191506020850194506020810190506122b5565b868310156122f757848901516122f3601f891682612206565b8355505b6001600288020188555050505b505050505050565b5f61231682611a1d565b91507fffffffffffffffffffffffffffffffffffffffffffffffffffffffffffffffff820361234857612347611e80565b5b60018201905091905056fea2646970667358221220699aab6d3d0e17f89ef93fd9b45c434a0efe05ec89ec055ee1fbefb6f595f59564736f6c63430008210033","linkReferences":{}},"methodIdentifiers":{"PROPOSAL_EXPIRY()":"8a14e3d0","cancel(bytes32)":"c4d252f5","emergencyStop()":"63a599a4","getNonce(address)":"2d0335ab","getProposal(bytes32)":"430694cf","getProposalState(bytes32)":"0a704f48","governance()":"5aa6e675","markApproved(bytes32)":"dc2ac081","markExecuted(bytes32)":"665d4c61","markQueued(bytes32,uint256)":"a1499d7f","proposalExists(bytes32)":"4410a944","propose(uint8,address,address,uint256,bytes)":"dd33c64f","resume()":"046f7da2","setDependencies(address,address)":"e87c28a7","signatureVerifier()":"fde919f6","stopped()":"75f12b21","timelockQueue()":"338ba675","updateGovernance(address)":"b2561263"},"id":30}