{"abi":[{"type":"constructor","inputs":[{"name":"_governance","type":"address","internalType":"address"},{"name":"_signatureVerifier","type":"address","internalType":"address"},{"name":"_timelockQueue","type":"address","internalType":"address"}],"stateMutability":"nonpayable"},{"type":"function","name":"PROPOSAL_EXPIRY","inputs":[],"outputs":[{"name":"","type":"uint256","internalType":"uint256"}],"stateMutability":"view"},{"type":"function","name":"cancel","inputs":[{"name":"proposalId","type":"bytes32","internalType":"bytes32"}],"outputs":[],"stateMutability":"nonpayable"},{"type":"function","name":"emergencyStop","inputs":[],"outputs":[],"stateMutability":"nonpayable"},{"type":"function","name":"getNonce","inputs":[{"name":"proposer","type":"address","internalType":"address"}],"outputs":[{"name":"","type":"uint256","internalType":"uint256"}],"stateMutability":"view"},{"type":"function","name":"getProposal","inputs":[{"name":"proposalId","type":"bytes32","internalType":"bytes32"}],"outputs":[{"name":"","type":"tuple","internalType":"struct DataTypes.Proposal","components":[{"name":"id","type":"uint256","internalType":"uint256"},{"name":"proposalType","type":"uint8","internalType":"enum DataTypes.ProposalType"},{"name":"proposalState","type":"uint8","internalType":"enum DataTypes.ProposalState"},{"name":"proposer","type":"address","internalType":"address"},{"name":"target","type":"address","internalType":"address"},{"name":"token","type":"address","internalType":"address"},{"name":"amount","type":"uint256","internalType":"uint256"},{"name":"callData","type":"bytes","internalType":"bytes"},{"name":"createdAt","type":"uint256","internalType":"uint256"},{"name":"executeAfter","type":"uint256","internalType":"uint256"},{"name":"nonce","type":"uint256","internalType":"uint256"}]}],"stateMutability":"view"},{"type":"function","name":"getProposalState","inputs":[{"name":"proposalId","type":"bytes32","internalType":"bytes32"}],"outputs":[{"name":"","type":"uint8","internalType":"enum DataTypes.ProposalState"}],"stateMutability":"view"},{"type":"function","name":"governance","inputs":[],"outputs":[{"name":"","type":"address","internalType":"address"}],"stateMutability":"view"},{"type":"function","name":"markApproved","inputs":[{"name":"proposalId","type":"bytes32","internalType":"bytes32"}],"outputs":[],"stateMutability":"nonpayable"},{"type":"function","name":"markExecuted","inputs":[{"name":"proposalId","type":"bytes32","internalType":"bytes32"}],"outputs":[],"stateMutability":"nonpayable"},{"type":"function","name":"markQueued","inputs":[{"name":"proposalId","type":"bytes32","internalType":"bytes32"},{"name":"unlockTime","type":"uint256","internalType":"uint256"}],"outputs":[],"stateMutability":"nonpayable"},{"type":"function","name":"proposalExists","inputs":[{"name":"proposalId","type":"bytes32","internalType":"bytes32"}],"outputs":[{"name":"","type":"bool","internalType":"bool"}],"stateMutability":"view"},{"type":"function","name":"propose","inputs":[{"name":"proposalType","type":"uint8","internalType":"enum DataTypes.ProposalType"},{"name":"target","type":"address","internalType":"address"},{"name":"token","type":"address","internalType":"address"},{"name":"amount","type":"uint256","internalType":"uint256"},{"name":"callData","type":"bytes","internalType":"bytes"}],"outputs":[{"name":"proposalId","type":"bytes32","internalType":"bytes32"}],"stateMutability":"nonpayable"},{"type":"function","name":"resume","inputs":[],"outputs":[],"stateMutability":"nonpayable"},{"type":"function","name":"signatureVerifier","inputs":[],"outputs":[{"name":"","type":"address","internalType":"address"}],"stateMutability":"view"},{"type":"function","name":"stopped","inputs":[],"outputs":[{"name":"","type":"bool","internalType":"bool"}],"stateMutability":"view"},{"type":"function","name":"timelockQueue","inputs":[],"outputs":[{"name":"","type":"address","internalType":"address"}],"stateMutability":"view"},{"type":"function","name":"updateGovernance","inputs":[{"name":"newGovernance","type":"address","internalType":"address"}],"outputs":[],"stateMutability":"nonpayable"},{"type":"event","name":"EmergencyStop","inputs":[{"name":"triggeredBy","type":"address","indexed":false,"internalType":"address"},{"name":"timestamp","type":"uint256","indexed":false,"internalType":"uint256"}],"anonymous":false},{"type":"event","name":"GovernanceUpdated","inputs":[{"name":"oldGovernance","type":"address","indexed":false,"internalType":"address"},{"name":"newGovernance","type":"address","indexed":false,"internalType":"address"}],"anonymous":false},{"type":"event","name":"ProposalApproved","inputs":[{"name":"proposalId","type":"bytes32","indexed":true,"internalType":"bytes32"},{"name":"approver","type":"address","indexed":true,"internalType":"address"}],"anonymous":false},{"type":"event","name":"ProposalCancelled","inputs":[{"name":"proposalId","type":"bytes32","indexed":true,"internalType":"bytes32"},{"name":"canceller","type":"address","indexed":true,"internalType":"address"}],"anonymous":false},{"type":"event","name":"ProposalCreated","inputs":[{"name":"proposalId","type":"bytes32","indexed":true,"internalType":"bytes32"},{"name":"proposer","type":"address","indexed":true,"internalType":"address"},{"name":"createdAt","type":"uint256","indexed":false,"internalType":"uint256"}],"anonymous":false},{"type":"event","name":"ProposalExecuted","inputs":[{"name":"proposalId","type":"bytes32","indexed":true,"internalType":"bytes32"},{"name":"executor","type":"address","indexed":true,"internalType":"address"}],"anonymous":false},{"type":"event","name":"ProposalQueued","inputs":[{"name":"proposalId","type":"bytes32","indexed":true,"internalType":"bytes32"},{"name":"unlockTime","type":"uint256","indexed":false,"internalType":"uint256"}],"anonymous":false},{"type":"error","name":"InvalidAmount","inputs":[{"name":"amount","type":"uint256","internalType":"uint256"}]},{"type":"error","name":"ProposalAlreadyCancelled","inputs":[{"name":"proposalId","type":"bytes32","internalType":"bytes32"}]},{"type":"error","name":"ProposalAlreadyExecuted","inputs":[{"name":"proposalId","type":"bytes32","internalType":"bytes32"}]},{"type":"error","name":"ProposalAlreadyExists","inputs":[{"name":"proposalId","type":"bytes32","internalType":"bytes32"}]},{"type":"error","name":"ProposalNotApproved","inputs":[{"name":"proposalId","type":"bytes32","internalType":"bytes32"}]},{"type":"error","name":"ProposalNotFound","inputs":[{"name":"proposalId","type":"bytes32","internalType":"bytes32"}]},{"type":"error","name":"ProposalNotQueued","inputs":[{"name":"proposalId","type":"bytes32","internalType":"bytes32"}]},{"type":"error","name":"Unauthorized","inputs":[{"name":"caller","type":"address","internalType":"address"}]},{"type":"error","name":"ZeroAddress","inputs":[]}],"bytecode":{"object":"0x608060405234801561000f575f5ffd5b506040516124d23803806124d2833981810160405281019061003191906102a7565b825f73ffffffffffffffffffffffffffffffffffffffff168173ffffffffffffffffffffffffffffffffffffffff1603610097576040517fd92e233d00000000000000000000000000000000000000000000000000000000815260040160405180910390fd5b805f5f6101000a81548173ffffffffffffffffffffffffffffffffffffffff021916908373ffffffffffffffffffffffffffffffffffffffff160217905550600180819055505f5f60146101000a81548160ff021916908315150217905550505f73ffffffffffffffffffffffffffffffffffffffff168273ffffffffffffffffffffffffffffffffffffffff160361015c576040517fd92e233d00000000000000000000000000000000000000000000000000000000815260040160405180910390fd5b5f73ffffffffffffffffffffffffffffffffffffffff168173ffffffffffffffffffffffffffffffffffffffff16036101c1576040517fd92e233d00000000000000000000000000000000000000000000000000000000815260040160405180910390fd5b8160045f6101000a81548173ffffffffffffffffffffffffffffffffffffffff021916908373ffffffffffffffffffffffffffffffffffffffff1602179055508060055f6101000a81548173ffffffffffffffffffffffffffffffffffffffff021916908373ffffffffffffffffffffffffffffffffffffffff1602179055505050506102f7565b5f5ffd5b5f73ffffffffffffffffffffffffffffffffffffffff82169050919050565b5f6102768261024d565b9050919050565b6102868161026c565b8114610290575f5ffd5b50565b5f815190506102a18161027d565b92915050565b5f5f5f606084860312156102be576102bd610249565b5b5f6102cb86828701610293565b93505060206102dc86828701610293565b92505060406102ed86828701610293565b9150509250925092565b6121ce806103045f395ff3fe608060405234801561000f575f5ffd5b5060043610610109575f3560e01c8063665d4c61116100a0578063b25612631161006f578063b256126314610291578063c4d252f5146102ad578063dc2ac081146102c9578063dd33c64f146102e5578063fde919f61461031557610109565b8063665d4c611461021d57806375f12b21146102395780638a14e3d014610257578063a1499d7f1461027557610109565b8063430694cf116100dc578063430694cf146101955780634410a944146101c55780635aa6e675146101f557806363a599a41461021357610109565b8063046f7da21461010d5780630a704f48146101175780632d0335ab14610147578063338ba67514610177575b5f5ffd5b610115610333565b005b610131600480360381019061012c9190611764565b610356565b60405161013e9190611802565b60405180910390f35b610161600480360381019061015c9190611875565b610442565b60405161016e91906118b8565b60405180910390f35b61017f610488565b60405161018c91906118e0565b60405180910390f35b6101af60048036038101906101aa9190611764565b6104ad565b6040516101bc9190611ac8565b60405180910390f35b6101df60048036038101906101da9190611764565b610767565b6040516101ec9190611b02565b60405180910390f35b6101fd610787565b60405161020a91906118e0565b60405180910390f35b61021b6107ab565b005b61023760048036038101906102329190611764565b610808565b005b61024161097f565b60405161024e9190611b02565b60405180910390f35b61025f610991565b60405161026c91906118b8565b60405180910390f35b61028f600480360381019061028a9190611b45565b610998565b005b6102ab60048036038101906102a69190611875565b610b0d565b005b6102c760048036038101906102c29190611764565b610c15565b005b6102e360048036038101906102de9190611764565b610ed0565b005b6102ff60048036038101906102fa9190611c07565b611046565b60405161030c9190611cac565b60405180910390f35b61031d6114f6565b60405161032a91906118e0565b60405180910390f35b61033b61151b565b5f5f60146101000a81548160ff021916908315150217905550565b5f5f60025f8481526020019081526020015f2060060154036103af57816040517fe2acee5b0000000000000000000000000000000000000000000000000000000081526004016103a69190611cac565b60405180910390fd5b5f60025f8481526020019081526020015f2090505f60058111156103d6576103d561178f565b5b8160010160019054906101000a900460ff1660058111156103fa576103f961178f565b5b148015610418575062093a8081600601546104159190611cf2565b42115b1561042757600591505061043d565b8060010160019054906101000a900460ff169150505b919050565b5f60035f8373ffffffffffffffffffffffffffffffffffffffff1673ffffffffffffffffffffffffffffffffffffffff1681526020019081526020015f20549050919050565b60055f9054906101000a900473ffffffffffffffffffffffffffffffffffffffff1681565b6104b5611673565b5f60025f8481526020019081526020015f20600601540361050d57816040517fe2acee5b0000000000000000000000000000000000000000000000000000000081526004016105049190611cac565b60405180910390fd5b60025f8381526020019081526020015f20604051806101600160405290815f8201548152602001600182015f9054906101000a900460ff1660028111156105575761055661178f565b5b60028111156105695761056861178f565b5b81526020016001820160019054906101000a900460ff1660058111156105925761059161178f565b5b60058111156105a4576105a361178f565b5b81526020016001820160029054906101000a900473ffffffffffffffffffffffffffffffffffffffff1673ffffffffffffffffffffffffffffffffffffffff1673ffffffffffffffffffffffffffffffffffffffff168152602001600282015f9054906101000a900473ffffffffffffffffffffffffffffffffffffffff1673ffffffffffffffffffffffffffffffffffffffff1673ffffffffffffffffffffffffffffffffffffffff168152602001600382015f9054906101000a900473ffffffffffffffffffffffffffffffffffffffff1673ffffffffffffffffffffffffffffffffffffffff1673ffffffffffffffffffffffffffffffffffffffff168152602001600482015481526020016005820180546106c290611d52565b80601f01602080910402602001604051908101604052809291908181526020018280546106ee90611d52565b80156107395780601f1061071057610100808354040283529160200191610739565b820191905f5260205f20905b81548152906001019060200180831161071c57829003601f168201915b5050505050815260200160068201548152602001600782015481526020016008820154815250509050919050565b5f5f60025f8481526020019081526020015f206006015414159050919050565b5f5f9054906101000a900473ffffffffffffffffffffffffffffffffffffffff1681565b6107b361151b565b60015f60146101000a81548160ff0219169083151502179055507f56a7c9bf9dfb88f577de1e2cea5000f3ea7e04c48c04d4a55279c0bd523db5d933426040516107fe929190611d82565b60405180910390a1565b60055f9054906101000a900473ffffffffffffffffffffffffffffffffffffffff16610833816115ad565b5f60025f8481526020019081526020015f2090505f81600601540361088f57826040517fe2acee5b0000000000000000000000000000000000000000000000000000000081526004016108869190611cac565b60405180910390fd5b600260058111156108a3576108a261178f565b5b8160010160019054906101000a900460ff1660058111156108c7576108c661178f565b5b1461090957826040517f4a1ae4560000000000000000000000000000000000000000000000000000000081526004016109009190611cac565b60405180910390fd5b60038160010160016101000a81548160ff021916908360058111156109315761093061178f565b5b02179055503373ffffffffffffffffffffffffffffffffffffffff16837ff20459f0cd23ff5b3028bc90ea400293e55b573e4e60f3b01e45325428994ee160405160405180910390a3505050565b5f60149054906101000a900460ff1681565b62093a8081565b60055f9054906101000a900473ffffffffffffffffffffffffffffffffffffffff166109c3816115ad565b5f60025f8581526020019081526020015f2090505f816006015403610a1f57836040517fe2acee5b000000000000000000000000000000000000000000000000000000008152600401610a169190611cac565b60405180910390fd5b60016005811115610a3357610a3261178f565b5b8160010160019054906101000a900460ff166005811115610a5757610a5661178f565b5b14610a9957836040517fc6077939000000000000000000000000000000000000000000000000000000008152600401610a909190611cac565b60405180910390fd5b60028160010160016101000a81548160ff02191690836005811115610ac157610ac061178f565b5b0217905550828160070181905550837f65431b33ae1566469324739cd3024c5e8d7422fa2c54e71fda14b92fd5e8f1ea84604051610aff91906118b8565b60405180910390a250505050565b610b1561151b565b5f73ffffffffffffffffffffffffffffffffffffffff168173ffffffffffffffffffffffffffffffffffffffff1603610b7a576040517fd92e233d00000000000000000000000000000000000000000000000000000000815260040160405180910390fd5b7f434a2db650703b36c824e745330d6397cdaa9ee2cc891a4938ae853e1c50b68d5f5f9054906101000a900473ffffffffffffffffffffffffffffffffffffffff1682604051610bcb929190611da9565b60405180910390a1805f5f6101000a81548173ffffffffffffffffffffffffffffffffffffffff021916908373ffffffffffffffffffffffffffffffffffffffff16021790555050565b610c1d611620565b5f60025f8381526020019081526020015f2090505f816006015403610c7957816040517fe2acee5b000000000000000000000000000000000000000000000000000000008152600401610c709190611cac565b60405180910390fd5b8060010160029054906101000a900473ffffffffffffffffffffffffffffffffffffffff1673ffffffffffffffffffffffffffffffffffffffff163373ffffffffffffffffffffffffffffffffffffffff1614158015610d2557505f5f9054906101000a900473ffffffffffffffffffffffffffffffffffffffff1673ffffffffffffffffffffffffffffffffffffffff163373ffffffffffffffffffffffffffffffffffffffff1614155b15610d6757336040517f8e4a23d6000000000000000000000000000000000000000000000000000000008152600401610d5e91906118e0565b60405180910390fd5b60036005811115610d7b57610d7a61178f565b5b8160010160019054906101000a900460ff166005811115610d9f57610d9e61178f565b5b03610de157816040517f2698e086000000000000000000000000000000000000000000000000000000008152600401610dd89190611cac565b60405180910390fd5b60046005811115610df557610df461178f565b5b8160010160019054906101000a900460ff166005811115610e1957610e1861178f565b5b03610e5b57816040517f0e698eec000000000000000000000000000000000000000000000000000000008152600401610e529190611cac565b60405180910390fd5b60048160010160016101000a81548160ff02191690836005811115610e8357610e8261178f565b5b02179055503373ffffffffffffffffffffffffffffffffffffffff16827f56a54393c88fb71d37dc109609d88e0b586637deb2452aef5f41d3eb32adedfc60405160405180910390a35050565b60045f9054906101000a900473ffffffffffffffffffffffffffffffffffffffff16610efb816115ad565b5f60025f8481526020019081526020015f2090505f816006015403610f5757826040517fe2acee5b000000000000000000000000000000000000000000000000000000008152600401610f4e9190611cac565b60405180910390fd5b5f6005811115610f6a57610f6961178f565b5b8160010160019054906101000a900460ff166005811115610f8e57610f8d61178f565b5b14610fd057826040517fe2acee5b000000000000000000000000000000000000000000000000000000008152600401610fc79190611cac565b60405180910390fd5b60018160010160016101000a81548160ff02191690836005811115610ff857610ff761178f565b5b02179055503373ffffffffffffffffffffffffffffffffffffffff16837feb05169868501d8cd19ad54800ef0547fcc3820c5bc4ac68e5683e6456ce08e360405160405180910390a3505050565b5f61104f611620565b5f73ffffffffffffffffffffffffffffffffffffffff168673ffffffffffffffffffffffffffffffffffffffff16036110b4576040517fd92e233d00000000000000000000000000000000000000000000000000000000815260040160405180910390fd5b5f84036110f857836040517f3728b83d0000000000000000000000000000000000000000000000000000000081526004016110ef91906118b8565b60405180910390fd5b5f60035f3373ffffffffffffffffffffffffffffffffffffffff1673ffffffffffffffffffffffffffffffffffffffff1681526020019081526020015f2054905033878683464260405160200161115496959493929190611e35565b6040516020818303038152906040528051906020012091505f60025f8481526020019081526020015f2060060154146111c457816040517fd6ad034c0000000000000000000000000000000000000000000000000000000081526004016111bb9190611cac565b60405180910390fd5b604051806101600160405280835f1c81526020018960028111156111eb576111ea61178f565b5b81526020015f60058111156112035761120261178f565b5b81526020013373ffffffffffffffffffffffffffffffffffffffff1681526020018873ffffffffffffffffffffffffffffffffffffffff1681526020018773ffffffffffffffffffffffffffffffffffffffff16815260200186815260200185858080601f0160208091040260200160405190810160405280939291908181526020018383808284375f81840152601f19601f8201169050808301925050505050505081526020014281526020015f81526020018281525060025f8481526020019081526020015f205f820151815f01556020820151816001015f6101000a81548160ff021916908360028111156112fe576112fd61178f565b5b021790555060408201518160010160016101000a81548160ff0219169083600581111561132e5761132d61178f565b5b021790555060608201518160010160026101000a81548173ffffffffffffffffffffffffffffffffffffffff021916908373ffffffffffffffffffffffffffffffffffffffff1602179055506080820151816002015f6101000a81548173ffffffffffffffffffffffffffffffffffffffff021916908373ffffffffffffffffffffffffffffffffffffffff16021790555060a0820151816003015f6101000a81548173ffffffffffffffffffffffffffffffffffffffff021916908373ffffffffffffffffffffffffffffffffffffffff16021790555060c0820151816004015560e08201518160050190816114259190612082565b5061010082015181600601556101208201518160070155610140820151816008015590505060035f3373ffffffffffffffffffffffffffffffffffffffff1673ffffffffffffffffffffffffffffffffffffffff1681526020019081526020015f205f81548092919061149790612151565b91905055503373ffffffffffffffffffffffffffffffffffffffff16827f65485b80e7ac5c430fe3f01ba44f405b99761d9c771aeb83eb181788eff98ae0426040516114e391906118b8565b60405180910390a3509695505050505050565b60045f9054906101000a900473ffffffffffffffffffffffffffffffffffffffff1681565b5f5f9054906101000a900473ffffffffffffffffffffffffffffffffffffffff1673ffffffffffffffffffffffffffffffffffffffff163373ffffffffffffffffffffffffffffffffffffffff16146115ab57336040517f8e4a23d60000000000000000000000000000000000000000000000000000000081526004016115a291906118e0565b60405180910390fd5b565b8073ffffffffffffffffffffffffffffffffffffffff163373ffffffffffffffffffffffffffffffffffffffff161461161d57336040517f8e4a23d600000000000000000000000000000000000000000000000000000000815260040161161491906118e0565b60405180910390fd5b50565b5f60149054906101000a900460ff161561167157336040517f8e4a23d600000000000000000000000000000000000000000000000000000000815260040161166891906118e0565b60405180910390fd5b565b6040518061016001604052805f81526020015f60028111156116985761169761178f565b5b81526020015f60058111156116b0576116af61178f565b5b81526020015f73ffffffffffffffffffffffffffffffffffffffff1681526020015f73ffffffffffffffffffffffffffffffffffffffff1681526020015f73ffffffffffffffffffffffffffffffffffffffff1681526020015f8152602001606081526020015f81526020015f81526020015f81525090565b5f5ffd5b5f5ffd5b5f819050919050565b61174381611731565b811461174d575f5ffd5b50565b5f8135905061175e8161173a565b92915050565b5f6020828403121561177957611778611729565b5b5f61178684828501611750565b91505092915050565b7f4e487b71000000000000000000000000000000000000000000000000000000005f52602160045260245ffd5b600681106117cd576117cc61178f565b5b50565b5f8190506117dd826117bc565b919050565b5f6117ec826117d0565b9050919050565b6117fc816117e2565b82525050565b5f6020820190506118155f8301846117f3565b92915050565b5f73ffffffffffffffffffffffffffffffffffffffff82169050919050565b5f6118448261181b565b9050919050565b6118548161183a565b811461185e575f5ffd5b50565b5f8135905061186f8161184b565b92915050565b5f6020828403121561188a57611889611729565b5b5f61189784828501611861565b91505092915050565b5f819050919050565b6118b2816118a0565b82525050565b5f6020820190506118cb5f8301846118a9565b92915050565b6118da8161183a565b82525050565b5f6020820190506118f35f8301846118d1565b92915050565b611902816118a0565b82525050565b600381106119195761191861178f565b5b50565b5f81905061192982611908565b919050565b5f6119388261191c565b9050919050565b6119488161192e565b82525050565b611957816117e2565b82525050565b6119668161183a565b82525050565b5f81519050919050565b5f82825260208201905092915050565b8281835e5f83830152505050565b5f601f19601f8301169050919050565b5f6119ae8261196c565b6119b88185611976565b93506119c8818560208601611986565b6119d181611994565b840191505092915050565b5f61016083015f8301516119f25f8601826118f9565b506020830151611a05602086018261193f565b506040830151611a18604086018261194e565b506060830151611a2b606086018261195d565b506080830151611a3e608086018261195d565b5060a0830151611a5160a086018261195d565b5060c0830151611a6460c08601826118f9565b5060e083015184820360e0860152611a7c82826119a4565b915050610100830151611a936101008601826118f9565b50610120830151611aa86101208601826118f9565b50610140830151611abd6101408601826118f9565b508091505092915050565b5f6020820190508181035f830152611ae081846119dc565b905092915050565b5f8115159050919050565b611afc81611ae8565b82525050565b5f602082019050611b155f830184611af3565b92915050565b611b24816118a0565b8114611b2e575f5ffd5b50565b5f81359050611b3f81611b1b565b92915050565b5f5f60408385031215611b5b57611b5a611729565b5b5f611b6885828601611750565b9250506020611b7985828601611b31565b9150509250929050565b60038110611b8f575f5ffd5b50565b5f81359050611ba081611b83565b92915050565b5f5ffd5b5f5ffd5b5f5ffd5b5f5f83601f840112611bc757611bc6611ba6565b5b8235905067ffffffffffffffff811115611be457611be3611baa565b5b602083019150836001820283011115611c0057611bff611bae565b5b9250929050565b5f5f5f5f5f5f60a08789031215611c2157611c20611729565b5b5f611c2e89828a01611b92565b9650506020611c3f89828a01611861565b9550506040611c5089828a01611861565b9450506060611c6189828a01611b31565b935050608087013567ffffffffffffffff811115611c8257611c8161172d565b5b611c8e89828a01611bb2565b92509250509295509295509295565b611ca681611731565b82525050565b5f602082019050611cbf5f830184611c9d565b92915050565b7f4e487b71000000000000000000000000000000000000000000000000000000005f52601160045260245ffd5b5f611cfc826118a0565b9150611d07836118a0565b9250828201905080821115611d1f57611d1e611cc5565b5b92915050565b7f4e487b71000000000000000000000000000000000000000000000000000000005f52602260045260245ffd5b5f6002820490506001821680611d6957607f821691505b602082108103611d7c57611d7b611d25565b5b50919050565b5f604082019050611d955f8301856118d1565b611da260208301846118a9565b9392505050565b5f604082019050611dbc5f8301856118d1565b611dc960208301846118d1565b9392505050565b5f8160601b9050919050565b5f611de682611dd0565b9050919050565b5f611df782611ddc565b9050919050565b611e0f611e0a8261183a565b611ded565b82525050565b5f819050919050565b611e2f611e2a826118a0565b611e15565b82525050565b5f611e408289611dfe565b601482019150611e508288611dfe565b601482019150611e608287611e1e565b602082019150611e708286611e1e565b602082019150611e808285611e1e565b602082019150611e908284611e1e565b602082019150819050979650505050505050565b7f4e487b71000000000000000000000000000000000000000000000000000000005f52604160045260245ffd5b5f819050815f5260205f209050919050565b5f6020601f8301049050919050565b5f82821b905092915050565b5f60088302611f2d7fffffffffffffffffffffffffffffffffffffffffffffffffffffffffffffffff82611ef2565b611f378683611ef2565b95508019841693508086168417925050509392505050565b5f819050919050565b5f611f72611f6d611f68846118a0565b611f4f565b6118a0565b9050919050565b5f819050919050565b611f8b83611f58565b611f9f611f9782611f79565b848454611efe565b825550505050565b5f5f905090565b611fb6611fa7565b611fc1818484611f82565b505050565b5f5b82811015611fe757611fdc5f828401611fae565b600181019050611fc8565b505050565b601f82111561203a57828211156120395761200681611ed1565b61200f83611ee3565b61201885611ee3565b6020861015612025575f90505b80830161203482840382611fc6565b505050505b5b505050565b5f82821c905092915050565b5f61205a5f198460080261203f565b1980831691505092915050565b5f612072838361204b565b9150826002028217905092915050565b61208b8261196c565b67ffffffffffffffff8111156120a4576120a3611ea4565b5b6120ae8254611d52565b6120b9828285611fec565b5f60209050601f8311600181146120ea575f84156120d8578287015190505b6120e28582612067565b865550612149565b601f1984166120f886611ed1565b5f5b8281101561211f578489015182556001820191506020850194506020810190506120fa565b8683101561213c5784890151612138601f89168261204b565b8355505b6001600288020188555050505b505050505050565b5f61215b826118a0565b91507fffffffffffffffffffffffffffffffffffffffffffffffffffffffffffffffff820361218d5761218c611cc5565b5b60018201905091905056fea264697066735822122046bf774aa9e0633e8d58b383f0e8e4809168fc63b7270c4222ed5a51747ce55e64736f6c63430008210033","linkReferences":{}},"methodIdentifiers":{"PROPOSAL_EXPIRY()":"8a14e3d0","cancel(bytes32)":"c4d252f5","emergencyStop()":"63a599a4","getNonce(address)":"2d0335ab","getProposal(bytes32)":"430694cf","getProposalState(bytes32)":"0a704f48","governance()":"5aa6e675","markApproved(bytes32)":"dc2ac081","markExecuted(bytes32)":"665d4c61","markQueued(bytes32,uint256)":"a1499d7f","proposalExists(bytes32)":"4410a944","propose(uint8,address,address,uint256,bytes)":"dd33c64f","resume()":"046f7da2","signatureVerifier()":"fde919f6","stopped()":"75f12b21","timelockQueue()":"338ba675","updateGovernance(address)":"b2561263"},"id":32}