{"abi":[{"type":"constructor","inputs":[{"name":"_governance","type":"address","internalType":"address"},{"name":"_token","type":"address","internalType":"address"}],"stateMutability":"nonpayable"},{"type":"function","name":"claim","inputs":[{"name":"epoch","type":"uint256","internalType":"uint256"},{"name":"index","type":"uint256","internalType":"uint256"},{"name":"amount","type":"uint256","internalType":"uint256"},{"name":"proof","type":"bytes32[]","internalType":"bytes32[]"}],"outputs":[],"stateMutability":"nonpayable"},{"type":"function","name":"emergencyStop","inputs":[],"outputs":[],"stateMutability":"nonpayable"},{"type":"function","name":"getCurrentEpoch","inputs":[],"outputs":[{"name":"","type":"uint256","internalType":"uint256"}],"stateMutability":"view"},{"type":"function","name":"getEpochTotalAllocated","inputs":[{"name":"epoch","type":"uint256","internalType":"uint256"}],"outputs":[{"name":"","type":"uint256","internalType":"uint256"}],"stateMutability":"view"},{"type":"function","name":"getEpochTotalClaimed","inputs":[{"name":"epoch","type":"uint256","internalType":"uint256"}],"outputs":[{"name":"","type":"uint256","internalType":"uint256"}],"stateMutability":"view"},{"type":"function","name":"getRoot","inputs":[{"name":"epoch","type":"uint256","internalType":"uint256"}],"outputs":[{"name":"","type":"bytes32","internalType":"bytes32"}],"stateMutability":"view"},{"type":"function","name":"getToken","inputs":[],"outputs":[{"name":"","type":"address","internalType":"address"}],"stateMutability":"view"},{"type":"function","name":"governance","inputs":[],"outputs":[{"name":"","type":"address","internalType":"address"}],"stateMutability":"view"},{"type":"function","name":"isClaimed","inputs":[{"name":"epoch","type":"uint256","internalType":"uint256"},{"name":"index","type":"uint256","internalType":"uint256"}],"outputs":[{"name":"","type":"bool","internalType":"bool"}],"stateMutability":"view"},{"type":"function","name":"resume","inputs":[],"outputs":[],"stateMutability":"nonpayable"},{"type":"function","name":"setEpochAllocation","inputs":[{"name":"epoch","type":"uint256","internalType":"uint256"},{"name":"totalAllocated","type":"uint256","internalType":"uint256"}],"outputs":[],"stateMutability":"nonpayable"},{"type":"function","name":"stopped","inputs":[],"outputs":[{"name":"","type":"bool","internalType":"bool"}],"stateMutability":"view"},{"type":"function","name":"token","inputs":[],"outputs":[{"name":"","type":"address","internalType":"address"}],"stateMutability":"view"},{"type":"function","name":"updateGovernance","inputs":[{"name":"newGovernance","type":"address","internalType":"address"}],"outputs":[],"stateMutability":"nonpayable"},{"type":"function","name":"updateRoot","inputs":[{"name":"epoch","type":"uint256","internalType":"uint256"},{"name":"newRoot","type":"bytes32","internalType":"bytes32"}],"outputs":[],"stateMutability":"nonpayable"},{"type":"function","name":"verifyProof","inputs":[{"name":"epoch","type":"uint256","internalType":"uint256"},{"name":"index","type":"uint256","internalType":"uint256"},{"name":"recipient","type":"address","internalType":"address"},{"name":"amount","type":"uint256","internalType":"uint256"},{"name":"proof","type":"bytes32[]","internalType":"bytes32[]"}],"outputs":[{"name":"","type":"bool","internalType":"bool"}],"stateMutability":"view"},{"type":"event","name":"EmergencyStop","inputs":[{"name":"triggeredBy","type":"address","indexed":false,"internalType":"address"},{"name":"timestamp","type":"uint256","indexed":false,"internalType":"uint256"}],"anonymous":false},{"type":"event","name":"GovernanceUpdated","inputs":[{"name":"oldGovernance","type":"address","indexed":false,"internalType":"address"},{"name":"newGovernance","type":"address","indexed":false,"internalType":"address"}],"anonymous":false},{"type":"event","name":"MerkleRootUpdated","inputs":[{"name":"epoch","type":"uint256","indexed":true,"internalType":"uint256"},{"name":"newRoot","type":"bytes32","indexed":false,"internalType":"bytes32"},{"name":"updatedBy","type":"address","indexed":false,"internalType":"address"}],"anonymous":false},{"type":"event","name":"RewardClaimed","inputs":[{"name":"epoch","type":"uint256","indexed":true,"internalType":"uint256"},{"name":"recipient","type":"address","indexed":true,"internalType":"address"},{"name":"amount","type":"uint256","indexed":false,"internalType":"uint256"}],"anonymous":false},{"type":"error","name":"AlreadyClaimed","inputs":[{"name":"recipient","type":"address","internalType":"address"},{"name":"epoch","type":"uint256","internalType":"uint256"}]},{"type":"error","name":"CallFailed","inputs":[{"name":"target","type":"address","internalType":"address"},{"name":"callData","type":"bytes","internalType":"bytes"}]},{"type":"error","name":"InvalidAmount","inputs":[{"name":"amount","type":"uint256","internalType":"uint256"}]},{"type":"error","name":"InvalidEpoch","inputs":[{"name":"epoch","type":"uint256","internalType":"uint256"}]},{"type":"error","name":"InvalidMerkleProof","inputs":[{"name":"recipient","type":"address","internalType":"address"},{"name":"epoch","type":"uint256","internalType":"uint256"}]},{"type":"error","name":"Reentrancy","inputs":[]},{"type":"error","name":"Unauthorized","inputs":[{"name":"caller","type":"address","internalType":"address"}]},{"type":"error","name":"ZeroAddress","inputs":[]},{"type":"error","name":"ZeroAmount","inputs":[{"name":"recipient","type":"address","internalType":"address"}]}],"bytecode":{"object":"0x608060405234801561000f575f5ffd5b5060405161158838038061158883398181016040528101906100319190610208565b815f73ffffffffffffffffffffffffffffffffffffffff168173ffffffffffffffffffffffffffffffffffffffff1603610097576040517fd92e233d00000000000000000000000000000000000000000000000000000000815260040160405180910390fd5b805f5f6101000a81548173ffffffffffffffffffffffffffffffffffffffff021916908373ffffffffffffffffffffffffffffffffffffffff160217905550600180819055505f5f60146101000a81548160ff021916908315150217905550505f73ffffffffffffffffffffffffffffffffffffffff168173ffffffffffffffffffffffffffffffffffffffff160361015c576040517fd92e233d00000000000000000000000000000000000000000000000000000000815260040160405180910390fd5b8060025f6101000a81548173ffffffffffffffffffffffffffffffffffffffff021916908373ffffffffffffffffffffffffffffffffffffffff1602179055505f6007819055505050610246565b5f5ffd5b5f73ffffffffffffffffffffffffffffffffffffffff82169050919050565b5f6101d7826101ae565b9050919050565b6101e7816101cd565b81146101f1575f5ffd5b50565b5f81519050610202816101de565b92915050565b5f5f6040838503121561021e5761021d6101aa565b5b5f61022b858286016101f4565b925050602061023c858286016101f4565b9150509250929050565b611335806102535f395ff3fe608060405234801561000f575f5ffd5b50600436106100fe575f3560e01c8063b256126311610095578063eb55ff3411610064578063eb55ff3414610272578063ed8b74b7146102a2578063f364c90c146102be578063fc0c546a146102ee576100fe565b8063b2561263146101ec578063b97dd9e214610208578063d827d89914610226578063ea25e17614610256576100fe565b806363a599a4116100d157806363a599a41461016457806375f12b211461016e5780639b24b3b01461018c578063a1dc67c8146101bc576100fe565b8063046f7da21461010257806321df0da71461010c5780635893942d1461012a5780635aa6e67514610146575b5f5ffd5b61010a61030c565b005b61011461032f565b6040516101219190610cf0565b60405180910390f35b610144600480360381019061013f9190610d44565b610357565b005b61014e6103bd565b60405161015b9190610cf0565b60405180910390f35b61016c6103e1565b005b61017661043e565b6040516101839190610d9c565b60405180910390f35b6101a660048036038101906101a19190610db5565b610450565b6040516101b39190610df8565b60405180910390f35b6101d660048036038101906101d19190610e9c565b61046a565b6040516101e39190610d9c565b60405180910390f35b61020660048036038101906102019190610f32565b6104d5565b005b6102106105dd565b60405161021d9190610f6c565b60405180910390f35b610240600480360381019061023b9190610db5565b6105e6565b60405161024d9190610f6c565b60405180910390f35b610270600480360381019061026b9190610f85565b610600565b005b61028c60048036038101906102879190610db5565b610909565b6040516102999190610f6c565b60405180910390f35b6102bc60048036038101906102b79190611033565b610923565b005b6102d860048036038101906102d39190610d44565b6109d9565b6040516102e59190610d9c565b60405180910390f35b6102f66109ec565b6040516103039190610cf0565b60405180910390f35b610314610a11565b5f5f60146101000a81548160ff021916908315150217905550565b5f60025f9054906101000a900473ffffffffffffffffffffffffffffffffffffffff16905090565b61035f610a11565b5f81036103a357806040517f3728b83d00000000000000000000000000000000000000000000000000000000815260040161039a9190610f6c565b60405180910390fd5b8060065f8481526020019081526020015f20819055505050565b5f5f9054906101000a900473ffffffffffffffffffffffffffffffffffffffff1681565b6103e9610a11565b60015f60146101000a81548160ff0219169083151502179055507f56a7c9bf9dfb88f577de1e2cea5000f3ea7e04c48c04d4a55279c0bd523db5d93342604051610434929190611071565b60405180910390a1565b5f60149054906101000a900460ff1681565b5f60035f8381526020019081526020015f20549050919050565b5f5f5f1b60035f8981526020019081526020015f20540361048d575f90506104cb565b5f6040518781528660601b6020820152856034820152605481209150506104c7848460035f8c81526020019081526020015f205484610aa3565b9150505b9695505050505050565b6104dd610a11565b5f73ffffffffffffffffffffffffffffffffffffffff168173ffffffffffffffffffffffffffffffffffffffff1603610542576040517fd92e233d00000000000000000000000000000000000000000000000000000000815260040160405180910390fd5b7f434a2db650703b36c824e745330d6397cdaa9ee2cc891a4938ae853e1c50b68d5f5f9054906101000a900473ffffffffffffffffffffffffffffffffffffffff1682604051610593929190611098565b60405180910390a1805f5f6101000a81548173ffffffffffffffffffffffffffffffffffffffff021916908373ffffffffffffffffffffffffffffffffffffffff16021790555050565b5f600754905090565b5f60055f8381526020019081526020015f20549050919050565b610608610b55565b610610610b9b565b5f5f1b60035f8781526020019081526020015f20540361066757846040517fa225656d00000000000000000000000000000000000000000000000000000000815260040161065e9190610f6c565b60405180910390fd5b5f83036106ab57336040517f5871e3580000000000000000000000000000000000000000000000000000000081526004016106a29190610cf0565b60405180910390fd5b6106b58585610bee565b156106f95733856040517fe64ea1da0000000000000000000000000000000000000000000000000000000081526004016106f0929190611071565b60405180910390fd5b5f6040518581523360601b602082015284603482015260548120915050610733838360035f8a81526020019081526020015f205484610aa3565b6107765733866040517fc688d6ac00000000000000000000000000000000000000000000000000000000815260040161076d929190611071565b60405180910390fd5b6107808686610c4f565b8360055f8881526020019081526020015f205f8282546107a091906110ec565b925050819055505f60025f9054906101000a900473ffffffffffffffffffffffffffffffffffffffff1673ffffffffffffffffffffffffffffffffffffffff1663a9059cbb33876040518363ffffffff1660e01b8152600401610804929190611071565b6020604051808303815f875af1158015610820573d5f5f3e3d5ffd5b505050506040513d601f19601f820116820180604052508101906108449190611149565b9050806108a95760025f9054906101000a900473ffffffffffffffffffffffffffffffffffffffff166040517f6c544f330000000000000000000000000000000000000000000000000000000081526004016108a091906111a7565b60405180910390fd5b3373ffffffffffffffffffffffffffffffffffffffff16877f24b5efa61dd1cfc659205a97fb8ed868f3cb8c81922bab2b96423e5de1de2cb7876040516108f09190610f6c565b60405180910390a35050610902610ca8565b5050505050565b5f60065f8381526020019081526020015f20549050919050565b61092b610a11565b5f5f1b8103610973575f826040517fc688d6ac00000000000000000000000000000000000000000000000000000000815260040161096a929190611071565b60405180910390fd5b8060035f8481526020019081526020015f208190555060075482111561099b57816007819055505b817f86f17ff80a6037fcc709a76203fa2b4d23217e800506bfa81a130aac6fa9b19f82336040516109cd9291906111d3565b60405180910390a25050565b5f6109e48383610bee565b905092915050565b60025f9054906101000a900473ffffffffffffffffffffffffffffffffffffffff1681565b5f5f9054906101000a900473ffffffffffffffffffffffffffffffffffffffff1673ffffffffffffffffffffffffffffffffffffffff163373ffffffffffffffffffffffffffffffffffffffff1614610aa157336040517f8e4a23d6000000000000000000000000000000000000000000000000000000008152600401610a989190610cf0565b60405180910390fd5b565b5f5f8290505f5f90505b86869050811015610b46575f878783818110610acc57610acb6111fa565b5b905060200201359050808311610b0c578281604051602001610aef929190611247565b604051602081830303815290604052805190602001209250610b38565b8083604051602001610b1f929190611247565b6040516020818303038152906040528051906020012092505b508080600101915050610aad565b50838114915050949350505050565b600260015403610b91576040517fab143c0600000000000000000000000000000000000000000000000000000000815260040160405180910390fd5b6002600181905550565b5f60149054906101000a900460ff1615610bec57336040517f8e4a23d6000000000000000000000000000000000000000000000000000000008152600401610be39190610cf0565b60405180910390fd5b565b5f5f61010083610bfe919061129f565b90505f61010084610c0f91906112cf565b90505f60045f8781526020019081526020015f205f8481526020019081526020015f205490505f826001901b90505f818316141594505050505092915050565b5f61010082610c5e919061129f565b90505f61010083610c6f91906112cf565b9050806001901b60045f8681526020019081526020015f205f8481526020019081526020015f205f828254179250508190555050505050565b60018081905550565b5f73ffffffffffffffffffffffffffffffffffffffff82169050919050565b5f610cda82610cb1565b9050919050565b610cea81610cd0565b82525050565b5f602082019050610d035f830184610ce1565b92915050565b5f5ffd5b5f5ffd5b5f819050919050565b610d2381610d11565b8114610d2d575f5ffd5b50565b5f81359050610d3e81610d1a565b92915050565b5f5f60408385031215610d5a57610d59610d09565b5b5f610d6785828601610d30565b9250506020610d7885828601610d30565b9150509250929050565b5f8115159050919050565b610d9681610d82565b82525050565b5f602082019050610daf5f830184610d8d565b92915050565b5f60208284031215610dca57610dc9610d09565b5b5f610dd784828501610d30565b91505092915050565b5f819050919050565b610df281610de0565b82525050565b5f602082019050610e0b5f830184610de9565b92915050565b610e1a81610cd0565b8114610e24575f5ffd5b50565b5f81359050610e3581610e11565b92915050565b5f5ffd5b5f5ffd5b5f5ffd5b5f5f83601f840112610e5c57610e5b610e3b565b5b8235905067ffffffffffffffff811115610e7957610e78610e3f565b5b602083019150836020820283011115610e9557610e94610e43565b5b9250929050565b5f5f5f5f5f5f60a08789031215610eb657610eb5610d09565b5b5f610ec389828a01610d30565b9650506020610ed489828a01610d30565b9550506040610ee589828a01610e27565b9450506060610ef689828a01610d30565b935050608087013567ffffffffffffffff811115610f1757610f16610d0d565b5b610f2389828a01610e47565b92509250509295509295509295565b5f60208284031215610f4757610f46610d09565b5b5f610f5484828501610e27565b91505092915050565b610f6681610d11565b82525050565b5f602082019050610f7f5f830184610f5d565b92915050565b5f5f5f5f5f60808688031215610f9e57610f9d610d09565b5b5f610fab88828901610d30565b9550506020610fbc88828901610d30565b9450506040610fcd88828901610d30565b935050606086013567ffffffffffffffff811115610fee57610fed610d0d565b5b610ffa88828901610e47565b92509250509295509295909350565b61101281610de0565b811461101c575f5ffd5b50565b5f8135905061102d81611009565b92915050565b5f5f6040838503121561104957611048610d09565b5b5f61105685828601610d30565b92505060206110678582860161101f565b9150509250929050565b5f6040820190506110845f830185610ce1565b6110916020830184610f5d565b9392505050565b5f6040820190506110ab5f830185610ce1565b6110b86020830184610ce1565b9392505050565b7f4e487b71000000000000000000000000000000000000000000000000000000005f52601160045260245ffd5b5f6110f682610d11565b915061110183610d11565b9250828201905080821115611119576111186110bf565b5b92915050565b61112881610d82565b8114611132575f5ffd5b50565b5f815190506111438161111f565b92915050565b5f6020828403121561115e5761115d610d09565b5b5f61116b84828501611135565b91505092915050565b5f82825260208201905092915050565b50565b5f6111925f83611174565b915061119d82611184565b5f82019050919050565b5f6040820190506111ba5f830184610ce1565b81810360208301526111cb81611187565b905092915050565b5f6040820190506111e65f830185610de9565b6111f36020830184610ce1565b9392505050565b7f4e487b71000000000000000000000000000000000000000000000000000000005f52603260045260245ffd5b5f819050919050565b61124161123c82610de0565b611227565b82525050565b5f6112528285611230565b6020820191506112628284611230565b6020820191508190509392505050565b7f4e487b71000000000000000000000000000000000000000000000000000000005f52601260045260245ffd5b5f6112a982610d11565b91506112b483610d11565b9250826112c4576112c3611272565b5b828204905092915050565b5f6112d982610d11565b91506112e483610d11565b9250826112f4576112f3611272565b5b82820690509291505056fea264697066735822122054f04ffec3dd3948b2948d9184214061c663749ddd5232f5a59352c13dc9253e64736f6c63430008210033","linkReferences":{}},"methodIdentifiers":{"claim(uint256,uint256,uint256,bytes32[])":"ea25e176","emergencyStop()":"63a599a4","getCurrentEpoch()":"b97dd9e2","getEpochTotalAllocated(uint256)":"eb55ff34","getEpochTotalClaimed(uint256)":"d827d899","getRoot(uint256)":"9b24b3b0","getToken()":"21df0da7","governance()":"5aa6e675","isClaimed(uint256,uint256)":"f364c90c","resume()":"046f7da2","setEpochAllocation(uint256,uint256)":"5893942d","stopped()":"75f12b21","token()":"fc0c546a","updateGovernance(address)":"b2561263","updateRoot(uint256,bytes32)":"ed8b74b7","verifyProof(uint256,uint256,address,uint256,bytes32[])":"a1dc67c8"},"id":29}