{"abi":[{"type":"constructor","inputs":[{"name":"_governance","type":"address","internalType":"address"},{"name":"_token","type":"address","internalType":"address"}],"stateMutability":"nonpayable"},{"type":"function","name":"claim","inputs":[{"name":"epoch","type":"uint256","internalType":"uint256"},{"name":"index","type":"uint256","internalType":"uint256"},{"name":"amount","type":"uint256","internalType":"uint256"},{"name":"proof","type":"bytes32[]","internalType":"bytes32[]"}],"outputs":[],"stateMutability":"nonpayable"},{"type":"function","name":"emergencyStop","inputs":[],"outputs":[],"stateMutability":"nonpayable"},{"type":"function","name":"getCurrentEpoch","inputs":[],"outputs":[{"name":"","type":"uint256","internalType":"uint256"}],"stateMutability":"view"},{"type":"function","name":"getEpochTotalAllocated","inputs":[{"name":"epoch","type":"uint256","internalType":"uint256"}],"outputs":[{"name":"","type":"uint256","internalType":"uint256"}],"stateMutability":"view"},{"type":"function","name":"getEpochTotalClaimed","inputs":[{"name":"epoch","type":"uint256","internalType":"uint256"}],"outputs":[{"name":"","type":"uint256","internalType":"uint256"}],"stateMutability":"view"},{"type":"function","name":"getRoot","inputs":[{"name":"epoch","type":"uint256","internalType":"uint256"}],"outputs":[{"name":"","type":"bytes32","internalType":"bytes32"}],"stateMutability":"view"},{"type":"function","name":"getToken","inputs":[],"outputs":[{"name":"","type":"address","internalType":"address"}],"stateMutability":"view"},{"type":"function","name":"governance","inputs":[],"outputs":[{"name":"","type":"address","internalType":"address"}],"stateMutability":"view"},{"type":"function","name":"isClaimed","inputs":[{"name":"epoch","type":"uint256","internalType":"uint256"},{"name":"index","type":"uint256","internalType":"uint256"}],"outputs":[{"name":"","type":"bool","internalType":"bool"}],"stateMutability":"view"},{"type":"function","name":"resume","inputs":[],"outputs":[],"stateMutability":"nonpayable"},{"type":"function","name":"setEpochAllocation","inputs":[{"name":"epoch","type":"uint256","internalType":"uint256"},{"name":"totalAllocated","type":"uint256","internalType":"uint256"}],"outputs":[],"stateMutability":"nonpayable"},{"type":"function","name":"stopped","inputs":[],"outputs":[{"name":"","type":"bool","internalType":"bool"}],"stateMutability":"view"},{"type":"function","name":"token","inputs":[],"outputs":[{"name":"","type":"address","internalType":"address"}],"stateMutability":"view"},{"type":"function","name":"updateGovernance","inputs":[{"name":"newGovernance","type":"address","internalType":"address"}],"outputs":[],"stateMutability":"nonpayable"},{"type":"function","name":"updateRoot","inputs":[{"name":"epoch","type":"uint256","internalType":"uint256"},{"name":"newRoot","type":"bytes32","internalType":"bytes32"}],"outputs":[],"stateMutability":"nonpayable"},{"type":"function","name":"verifyProof","inputs":[{"name":"epoch","type":"uint256","internalType":"uint256"},{"name":"index","type":"uint256","internalType":"uint256"},{"name":"recipient","type":"address","internalType":"address"},{"name":"amount","type":"uint256","internalType":"uint256"},{"name":"proof","type":"bytes32[]","internalType":"bytes32[]"}],"outputs":[{"name":"","type":"bool","internalType":"bool"}],"stateMutability":"view"},{"type":"event","name":"EmergencyStop","inputs":[{"name":"triggeredBy","type":"address","indexed":false,"internalType":"address"},{"name":"timestamp","type":"uint256","indexed":false,"internalType":"uint256"}],"anonymous":false},{"type":"event","name":"GovernanceUpdated","inputs":[{"name":"oldGovernance","type":"address","indexed":false,"internalType":"address"},{"name":"newGovernance","type":"address","indexed":false,"internalType":"address"}],"anonymous":false},{"type":"event","name":"MerkleRootUpdated","inputs":[{"name":"epoch","type":"uint256","indexed":true,"internalType":"uint256"},{"name":"newRoot","type":"bytes32","indexed":false,"internalType":"bytes32"},{"name":"updatedBy","type":"address","indexed":false,"internalType":"address"}],"anonymous":false},{"type":"event","name":"RewardClaimed","inputs":[{"name":"epoch","type":"uint256","indexed":true,"internalType":"uint256"},{"name":"recipient","type":"address","indexed":true,"internalType":"address"},{"name":"amount","type":"uint256","indexed":false,"internalType":"uint256"}],"anonymous":false},{"type":"error","name":"AlreadyClaimed","inputs":[{"name":"recipient","type":"address","internalType":"address"},{"name":"epoch","type":"uint256","internalType":"uint256"}]},{"type":"error","name":"CallFailed","inputs":[{"name":"target","type":"address","internalType":"address"},{"name":"callData","type":"bytes","internalType":"bytes"}]},{"type":"error","name":"InvalidAmount","inputs":[{"name":"amount","type":"uint256","internalType":"uint256"}]},{"type":"error","name":"InvalidEpoch","inputs":[{"name":"epoch","type":"uint256","internalType":"uint256"}]},{"type":"error","name":"InvalidMerkleProof","inputs":[{"name":"recipient","type":"address","internalType":"address"},{"name":"epoch","type":"uint256","internalType":"uint256"}]},{"type":"error","name":"Reentrancy","inputs":[]},{"type":"error","name":"Unauthorized","inputs":[{"name":"caller","type":"address","internalType":"address"}]},{"type":"error","name":"ZeroAddress","inputs":[]},{"type":"error","name":"ZeroAmount","inputs":[{"name":"recipient","type":"address","internalType":"address"}]}],"bytecode":{"object":"0x608060405234801561000f575f5ffd5b5060405161164b38038061164b83398181016040528101906100319190610208565b815f73ffffffffffffffffffffffffffffffffffffffff168173ffffffffffffffffffffffffffffffffffffffff1603610097576040517fd92e233d00000000000000000000000000000000000000000000000000000000815260040160405180910390fd5b805f5f6101000a81548173ffffffffffffffffffffffffffffffffffffffff021916908373ffffffffffffffffffffffffffffffffffffffff160217905550600180819055505f5f60146101000a81548160ff021916908315150217905550505f73ffffffffffffffffffffffffffffffffffffffff168173ffffffffffffffffffffffffffffffffffffffff160361015c576040517fd92e233d00000000000000000000000000000000000000000000000000000000815260040160405180910390fd5b8060025f6101000a81548173ffffffffffffffffffffffffffffffffffffffff021916908373ffffffffffffffffffffffffffffffffffffffff1602179055505f6007819055505050610246565b5f5ffd5b5f73ffffffffffffffffffffffffffffffffffffffff82169050919050565b5f6101d7826101ae565b9050919050565b6101e7816101cd565b81146101f1575f5ffd5b50565b5f81519050610202816101de565b92915050565b5f5f6040838503121561021e5761021d6101aa565b5b5f61022b858286016101f4565b925050602061023c858286016101f4565b9150509250929050565b6113f8806102535f395ff3fe608060405234801561000f575f5ffd5b50600436106100fe575f3560e01c8063b256126311610095578063eb55ff3411610064578063eb55ff3414610272578063ed8b74b7146102a2578063f364c90c146102be578063fc0c546a146102ee576100fe565b8063b2561263146101ec578063b97dd9e214610208578063d827d89914610226578063ea25e17614610256576100fe565b806363a599a4116100d157806363a599a41461016457806375f12b211461016e5780639b24b3b01461018c578063a1dc67c8146101bc576100fe565b8063046f7da21461010257806321df0da71461010c5780635893942d1461012a5780635aa6e67514610146575b5f5ffd5b61010a61030c565b005b61011461032f565b6040516101219190610d12565b60405180910390f35b610144600480360381019061013f9190610d66565b610357565b005b61014e6103bd565b60405161015b9190610d12565b60405180910390f35b61016c6103e1565b005b61017661043e565b6040516101839190610dbe565b60405180910390f35b6101a660048036038101906101a19190610dd7565b610450565b6040516101b39190610e1a565b60405180910390f35b6101d660048036038101906101d19190610ebe565b61046a565b6040516101e39190610dbe565b60405180910390f35b61020660048036038101906102019190610f54565b6104e6565b005b6102106105ee565b60405161021d9190610f8e565b60405180910390f35b610240600480360381019061023b9190610dd7565b6105f7565b60405161024d9190610f8e565b60405180910390f35b610270600480360381019061026b9190610fa7565b610611565b005b61028c60048036038101906102879190610dd7565b61092b565b6040516102999190610f8e565b60405180910390f35b6102bc60048036038101906102b79190611055565b610945565b005b6102d860048036038101906102d39190610d66565b6109fb565b6040516102e59190610dbe565b60405180910390f35b6102f6610a0e565b6040516103039190610d12565b60405180910390f35b610314610a33565b5f5f60146101000a81548160ff021916908315150217905550565b5f60025f9054906101000a900473ffffffffffffffffffffffffffffffffffffffff16905090565b61035f610a33565b5f81036103a357806040517f3728b83d00000000000000000000000000000000000000000000000000000000815260040161039a9190610f8e565b60405180910390fd5b8060065f8481526020019081526020015f20819055505050565b5f5f9054906101000a900473ffffffffffffffffffffffffffffffffffffffff1681565b6103e9610a33565b60015f60146101000a81548160ff0219169083151502179055507f56a7c9bf9dfb88f577de1e2cea5000f3ea7e04c48c04d4a55279c0bd523db5d93342604051610434929190611093565b60405180910390a1565b5f60149054906101000a900460ff1681565b5f60035f8381526020019081526020015f20549050919050565b5f5f5f1b60035f8981526020019081526020015f20540361048d575f90506104dc565b5f8686866040516020016104a39392919061111f565b6040516020818303038152906040528051906020012090506104d8848460035f8c81526020019081526020015f205484610ac5565b9150505b9695505050505050565b6104ee610a33565b5f73ffffffffffffffffffffffffffffffffffffffff168173ffffffffffffffffffffffffffffffffffffffff1603610553576040517fd92e233d00000000000000000000000000000000000000000000000000000000815260040160405180910390fd5b7f434a2db650703b36c824e745330d6397cdaa9ee2cc891a4938ae853e1c50b68d5f5f9054906101000a900473ffffffffffffffffffffffffffffffffffffffff16826040516105a492919061115b565b60405180910390a1805f5f6101000a81548173ffffffffffffffffffffffffffffffffffffffff021916908373ffffffffffffffffffffffffffffffffffffffff16021790555050565b5f600754905090565b5f60055f8381526020019081526020015f20549050919050565b610619610b77565b610621610bbd565b5f5f1b60035f8781526020019081526020015f20540361067857846040517fa225656d00000000000000000000000000000000000000000000000000000000815260040161066f9190610f8e565b60405180910390fd5b5f83036106bc57336040517f5871e3580000000000000000000000000000000000000000000000000000000081526004016106b39190610d12565b60405180910390fd5b6106c68585610c10565b1561070a5733856040517fe64ea1da000000000000000000000000000000000000000000000000000000008152600401610701929190611093565b60405180910390fd5b5f8433856040516020016107209392919061111f565b604051602081830303815290604052805190602001209050610755838360035f8a81526020019081526020015f205484610ac5565b6107985733866040517fc688d6ac00000000000000000000000000000000000000000000000000000000815260040161078f929190611093565b60405180910390fd5b6107a28686610c71565b8360055f8881526020019081526020015f205f8282546107c291906111af565b925050819055505f60025f9054906101000a900473ffffffffffffffffffffffffffffffffffffffff1673ffffffffffffffffffffffffffffffffffffffff1663a9059cbb33876040518363ffffffff1660e01b8152600401610826929190611093565b6020604051808303815f875af1158015610842573d5f5f3e3d5ffd5b505050506040513d601f19601f82011682018060405250810190610866919061120c565b9050806108cb5760025f9054906101000a900473ffffffffffffffffffffffffffffffffffffffff166040517f6c544f330000000000000000000000000000000000000000000000000000000081526004016108c2919061126a565b60405180910390fd5b3373ffffffffffffffffffffffffffffffffffffffff16877f24b5efa61dd1cfc659205a97fb8ed868f3cb8c81922bab2b96423e5de1de2cb7876040516109129190610f8e565b60405180910390a35050610924610cca565b5050505050565b5f60065f8381526020019081526020015f20549050919050565b61094d610a33565b5f5f1b8103610995575f826040517fc688d6ac00000000000000000000000000000000000000000000000000000000815260040161098c929190611093565b60405180910390fd5b8060035f8481526020019081526020015f20819055506007548211156109bd57816007819055505b817f86f17ff80a6037fcc709a76203fa2b4d23217e800506bfa81a130aac6fa9b19f82336040516109ef929190611296565b60405180910390a25050565b5f610a068383610c10565b905092915050565b60025f9054906101000a900473ffffffffffffffffffffffffffffffffffffffff1681565b5f5f9054906101000a900473ffffffffffffffffffffffffffffffffffffffff1673ffffffffffffffffffffffffffffffffffffffff163373ffffffffffffffffffffffffffffffffffffffff1614610ac357336040517f8e4a23d6000000000000000000000000000000000000000000000000000000008152600401610aba9190610d12565b60405180910390fd5b565b5f5f8290505f5f90505b86869050811015610b68575f878783818110610aee57610aed6112bd565b5b905060200201359050808311610b2e578281604051602001610b1192919061130a565b604051602081830303815290604052805190602001209250610b5a565b8083604051602001610b4192919061130a565b6040516020818303038152906040528051906020012092505b508080600101915050610acf565b50838114915050949350505050565b600260015403610bb3576040517fab143c0600000000000000000000000000000000000000000000000000000000815260040160405180910390fd5b6002600181905550565b5f60149054906101000a900460ff1615610c0e57336040517f8e4a23d6000000000000000000000000000000000000000000000000000000008152600401610c059190610d12565b60405180910390fd5b565b5f5f61010083610c209190611362565b90505f61010084610c319190611392565b90505f60045f8781526020019081526020015f205f8481526020019081526020015f205490505f826001901b90505f818316141594505050505092915050565b5f61010082610c809190611362565b90505f61010083610c919190611392565b9050806001901b60045f8681526020019081526020015f205f8481526020019081526020015f205f828254179250508190555050505050565b60018081905550565b5f73ffffffffffffffffffffffffffffffffffffffff82169050919050565b5f610cfc82610cd3565b9050919050565b610d0c81610cf2565b82525050565b5f602082019050610d255f830184610d03565b92915050565b5f5ffd5b5f5ffd5b5f819050919050565b610d4581610d33565b8114610d4f575f5ffd5b50565b5f81359050610d6081610d3c565b92915050565b5f5f60408385031215610d7c57610d7b610d2b565b5b5f610d8985828601610d52565b9250506020610d9a85828601610d52565b9150509250929050565b5f8115159050919050565b610db881610da4565b82525050565b5f602082019050610dd15f830184610daf565b92915050565b5f60208284031215610dec57610deb610d2b565b5b5f610df984828501610d52565b91505092915050565b5f819050919050565b610e1481610e02565b82525050565b5f602082019050610e2d5f830184610e0b565b92915050565b610e3c81610cf2565b8114610e46575f5ffd5b50565b5f81359050610e5781610e33565b92915050565b5f5ffd5b5f5ffd5b5f5ffd5b5f5f83601f840112610e7e57610e7d610e5d565b5b8235905067ffffffffffffffff811115610e9b57610e9a610e61565b5b602083019150836020820283011115610eb757610eb6610e65565b5b9250929050565b5f5f5f5f5f5f60a08789031215610ed857610ed7610d2b565b5b5f610ee589828a01610d52565b9650506020610ef689828a01610d52565b9550506040610f0789828a01610e49565b9450506060610f1889828a01610d52565b935050608087013567ffffffffffffffff811115610f3957610f38610d2f565b5b610f4589828a01610e69565b92509250509295509295509295565b5f60208284031215610f6957610f68610d2b565b5b5f610f7684828501610e49565b91505092915050565b610f8881610d33565b82525050565b5f602082019050610fa15f830184610f7f565b92915050565b5f5f5f5f5f60808688031215610fc057610fbf610d2b565b5b5f610fcd88828901610d52565b9550506020610fde88828901610d52565b9450506040610fef88828901610d52565b935050606086013567ffffffffffffffff8111156110105761100f610d2f565b5b61101c88828901610e69565b92509250509295509295909350565b61103481610e02565b811461103e575f5ffd5b50565b5f8135905061104f8161102b565b92915050565b5f5f6040838503121561106b5761106a610d2b565b5b5f61107885828601610d52565b925050602061108985828601611041565b9150509250929050565b5f6040820190506110a65f830185610d03565b6110b36020830184610f7f565b9392505050565b5f819050919050565b6110d46110cf82610d33565b6110ba565b82525050565b5f8160601b9050919050565b5f6110f0826110da565b9050919050565b5f611101826110e6565b9050919050565b61111961111482610cf2565b6110f7565b82525050565b5f61112a82866110c3565b60208201915061113a8285611108565b60148201915061114a82846110c3565b602082019150819050949350505050565b5f60408201905061116e5f830185610d03565b61117b6020830184610d03565b9392505050565b7f4e487b71000000000000000000000000000000000000000000000000000000005f52601160045260245ffd5b5f6111b982610d33565b91506111c483610d33565b92508282019050808211156111dc576111db611182565b5b92915050565b6111eb81610da4565b81146111f5575f5ffd5b50565b5f81519050611206816111e2565b92915050565b5f6020828403121561122157611220610d2b565b5b5f61122e848285016111f8565b91505092915050565b5f82825260208201905092915050565b50565b5f6112555f83611237565b915061126082611247565b5f82019050919050565b5f60408201905061127d5f830184610d03565b818103602083015261128e8161124a565b905092915050565b5f6040820190506112a95f830185610e0b565b6112b66020830184610d03565b9392505050565b7f4e487b71000000000000000000000000000000000000000000000000000000005f52603260045260245ffd5b5f819050919050565b6113046112ff82610e02565b6112ea565b82525050565b5f61131582856112f3565b60208201915061132582846112f3565b6020820191508190509392505050565b7f4e487b71000000000000000000000000000000000000000000000000000000005f52601260045260245ffd5b5f61136c82610d33565b915061137783610d33565b92508261138757611386611335565b5b828204905092915050565b5f61139c82610d33565b91506113a783610d33565b9250826113b7576113b6611335565b5b82820690509291505056fea2646970667358221220a7914bfb636ea55f52f53e0e42248e17450883168fb92311b8264898cd788e4d64736f6c63430008210033","linkReferences":{}},"methodIdentifiers":{"claim(uint256,uint256,uint256,bytes32[])":"ea25e176","emergencyStop()":"63a599a4","getCurrentEpoch()":"b97dd9e2","getEpochTotalAllocated(uint256)":"eb55ff34","getEpochTotalClaimed(uint256)":"d827d899","getRoot(uint256)":"9b24b3b0","getToken()":"21df0da7","governance()":"5aa6e675","isClaimed(uint256,uint256)":"f364c90c","resume()":"046f7da2","setEpochAllocation(uint256,uint256)":"5893942d","stopped()":"75f12b21","token()":"fc0c546a","updateGovernance(address)":"b2561263","updateRoot(uint256,bytes32)":"ed8b74b7","verifyProof(uint256,uint256,address,uint256,bytes32[])":"a1dc67c8"},"id":31}