{"abi":[{"type":"constructor","inputs":[{"name":"_governance","type":"address","internalType":"address"},{"name":"_proposalEngine","type":"address","internalType":"address"},{"name":"_minDelay","type":"uint256","internalType":"uint256"}],"stateMutability":"nonpayable"},{"type":"function","name":"DEFAULT_MIN_DELAY","inputs":[],"outputs":[{"name":"","type":"uint256","internalType":"uint256"}],"stateMutability":"view"},{"type":"function","name":"MAX_DELAY","inputs":[],"outputs":[{"name":"","type":"uint256","internalType":"uint256"}],"stateMutability":"view"},{"type":"function","name":"cancel","inputs":[{"name":"proposalId","type":"bytes32","internalType":"bytes32"}],"outputs":[],"stateMutability":"nonpayable"},{"type":"function","name":"emergencyStop","inputs":[],"outputs":[],"stateMutability":"nonpayable"},{"type":"function","name":"execute","inputs":[{"name":"proposalId","type":"bytes32","internalType":"bytes32"}],"outputs":[],"stateMutability":"nonpayable"},{"type":"function","name":"getMinDelay","inputs":[],"outputs":[{"name":"","type":"uint256","internalType":"uint256"}],"stateMutability":"view"},{"type":"function","name":"getQueuedItem","inputs":[{"name":"proposalId","type":"bytes32","internalType":"bytes32"}],"outputs":[{"name":"","type":"tuple","internalType":"struct DataTypes.TimeLockEntry","components":[{"name":"proposalId","type":"bytes32","internalType":"bytes32"},{"name":"executeAfter","type":"uint256","internalType":"uint256"},{"name":"executed","type":"bool","internalType":"bool"},{"name":"cancelled","type":"bool","internalType":"bool"}]}],"stateMutability":"view"},{"type":"function","name":"getUnlockTime","inputs":[{"name":"proposalId","type":"bytes32","internalType":"bytes32"}],"outputs":[{"name":"","type":"uint256","internalType":"uint256"}],"stateMutability":"view"},{"type":"function","name":"governance","inputs":[],"outputs":[{"name":"","type":"address","internalType":"address"}],"stateMutability":"view"},{"type":"function","name":"isCancelled","inputs":[{"name":"proposalId","type":"bytes32","internalType":"bytes32"}],"outputs":[{"name":"","type":"bool","internalType":"bool"}],"stateMutability":"view"},{"type":"function","name":"isExecuted","inputs":[{"name":"proposalId","type":"bytes32","internalType":"bytes32"}],"outputs":[{"name":"","type":"bool","internalType":"bool"}],"stateMutability":"view"},{"type":"function","name":"isQueued","inputs":[{"name":"proposalId","type":"bytes32","internalType":"bytes32"}],"outputs":[{"name":"","type":"bool","internalType":"bool"}],"stateMutability":"view"},{"type":"function","name":"isReady","inputs":[{"name":"proposalId","type":"bytes32","internalType":"bytes32"}],"outputs":[{"name":"","type":"bool","internalType":"bool"}],"stateMutability":"view"},{"type":"function","name":"minDelay","inputs":[],"outputs":[{"name":"","type":"uint256","internalType":"uint256"}],"stateMutability":"view"},{"type":"function","name":"proposalEngine","inputs":[],"outputs":[{"name":"","type":"address","internalType":"address"}],"stateMutability":"view"},{"type":"function","name":"queue","inputs":[{"name":"proposalId","type":"bytes32","internalType":"bytes32"},{"name":"","type":"address","internalType":"address"},{"name":"","type":"address","internalType":"address"},{"name":"","type":"uint256","internalType":"uint256"},{"name":"","type":"bytes","internalType":"bytes"}],"outputs":[{"name":"unlockTime","type":"uint256","internalType":"uint256"}],"stateMutability":"nonpayable"},{"type":"function","name":"resume","inputs":[],"outputs":[],"stateMutability":"nonpayable"},{"type":"function","name":"stopped","inputs":[],"outputs":[{"name":"","type":"bool","internalType":"bool"}],"stateMutability":"view"},{"type":"function","name":"updateGovernance","inputs":[{"name":"newGovernance","type":"address","internalType":"address"}],"outputs":[],"stateMutability":"nonpayable"},{"type":"function","name":"updateMinDelay","inputs":[{"name":"newDelay","type":"uint256","internalType":"uint256"}],"outputs":[],"stateMutability":"nonpayable"},{"type":"event","name":"EmergencyStop","inputs":[{"name":"triggeredBy","type":"address","indexed":false,"internalType":"address"},{"name":"timestamp","type":"uint256","indexed":false,"internalType":"uint256"}],"anonymous":false},{"type":"event","name":"GovernanceUpdated","inputs":[{"name":"oldGovernance","type":"address","indexed":false,"internalType":"address"},{"name":"newGovernance","type":"address","indexed":false,"internalType":"address"}],"anonymous":false},{"type":"event","name":"ProposalCancelled","inputs":[{"name":"proposalId","type":"bytes32","indexed":true,"internalType":"bytes32"},{"name":"canceller","type":"address","indexed":true,"internalType":"address"}],"anonymous":false},{"type":"event","name":"ProposalExecuted","inputs":[{"name":"proposalId","type":"bytes32","indexed":true,"internalType":"bytes32"},{"name":"executor","type":"address","indexed":true,"internalType":"address"}],"anonymous":false},{"type":"event","name":"ProposalQueued","inputs":[{"name":"proposalId","type":"bytes32","indexed":true,"internalType":"bytes32"},{"name":"unlockTime","type":"uint256","indexed":false,"internalType":"uint256"}],"anonymous":false},{"type":"event","name":"TimelockCancelled","inputs":[{"name":"proposalId","type":"bytes32","indexed":true,"internalType":"bytes32"},{"name":"cancelledAt","type":"uint256","indexed":false,"internalType":"uint256"}],"anonymous":false},{"type":"event","name":"TimelockExecuted","inputs":[{"name":"proposalId","type":"bytes32","indexed":true,"internalType":"bytes32"},{"name":"executedAt","type":"uint256","indexed":false,"internalType":"uint256"}],"anonymous":false},{"type":"event","name":"TimelockStarted","inputs":[{"name":"proposalId","type":"bytes32","indexed":true,"internalType":"bytes32"},{"name":"unlockTime","type":"uint256","indexed":false,"internalType":"uint256"}],"anonymous":false},{"type":"error","name":"ExecutionTooEarly","inputs":[{"name":"unlockTime","type":"uint256","internalType":"uint256"},{"name":"currentTime","type":"uint256","internalType":"uint256"}]},{"type":"error","name":"InvalidUnlockTime","inputs":[{"name":"provided","type":"uint256","internalType":"uint256"},{"name":"minimum","type":"uint256","internalType":"uint256"}]},{"type":"error","name":"ProposalAlreadyExists","inputs":[{"name":"proposalId","type":"bytes32","internalType":"bytes32"}]},{"type":"error","name":"ProposalNotApproved","inputs":[{"name":"proposalId","type":"bytes32","internalType":"bytes32"}]},{"type":"error","name":"ProposalNotFound","inputs":[{"name":"proposalId","type":"bytes32","internalType":"bytes32"}]},{"type":"error","name":"ProposalNotQueued","inputs":[{"name":"proposalId","type":"bytes32","internalType":"bytes32"}]},{"type":"error","name":"Reentrancy","inputs":[]},{"type":"error","name":"TimelockAlreadyExecuted","inputs":[{"name":"proposalId","type":"bytes32","internalType":"bytes32"}]},{"type":"error","name":"TimelockCancelled","inputs":[{"name":"proposalId","type":"bytes32","internalType":"bytes32"}]},{"type":"error","name":"Unauthorized","inputs":[{"name":"caller","type":"address","internalType":"address"}]},{"type":"error","name":"ZeroAddress","inputs":[]}],"bytecode":{"object":"0x608060405234801561000f575f5ffd5b50604051611ab8380380611ab8833981810160405281019061003191906102d6565b825f73ffffffffffffffffffffffffffffffffffffffff168173ffffffffffffffffffffffffffffffffffffffff1603610097576040517fd92e233d00000000000000000000000000000000000000000000000000000000815260040160405180910390fd5b805f5f6101000a81548173ffffffffffffffffffffffffffffffffffffffff021916908373ffffffffffffffffffffffffffffffffffffffff160217905550600180819055505f5f60146101000a81548160ff021916908315150217905550505f73ffffffffffffffffffffffffffffffffffffffff168273ffffffffffffffffffffffffffffffffffffffff160361015c576040517fd92e233d00000000000000000000000000000000000000000000000000000000815260040160405180910390fd5b6202a3008110156101a957806202a3006040517f8ed407380000000000000000000000000000000000000000000000000000000081526004016101a0929190610335565b60405180910390fd5b62278d008111156101f6578062278d006040517f8ed407380000000000000000000000000000000000000000000000000000000081526004016101ed929190610335565b60405180910390fd5b8160035f6101000a81548173ffffffffffffffffffffffffffffffffffffffff021916908373ffffffffffffffffffffffffffffffffffffffff1602179055508060048190555050505061035c565b5f5ffd5b5f73ffffffffffffffffffffffffffffffffffffffff82169050919050565b5f61027282610249565b9050919050565b61028281610268565b811461028c575f5ffd5b50565b5f8151905061029d81610279565b92915050565b5f819050919050565b6102b5816102a3565b81146102bf575f5ffd5b50565b5f815190506102d0816102ac565b92915050565b5f5f5f606084860312156102ed576102ec610245565b5b5f6102fa8682870161028f565b935050602061030b8682870161028f565b925050604061031c868287016102c2565b9150509250925092565b61032f816102a3565b82525050565b5f6040820190506103485f830185610326565b6103556020830184610326565b9392505050565b61174f806103695f395ff3fe608060405234801561000f575f5ffd5b506004361061012a575f3560e01c806375f12b21116100ab578063c4d252f51161006f578063c4d252f514610330578063c63c4e9b1461034c578063e52cb36a1461036a578063e751f2711461039a578063f27a0c92146103b65761012a565b806375f12b211461027a5780638a99d586146102985780639a5d4407146102b4578063a9aa7372146102e4578063b2561263146103145761012a565b80634b8478c4116100f25780634b8478c4146101c25780635aa6e675146101f257806363a599a41461021057806364f9ad361461021a5780636c656dd81461024a5761012a565b8063046f7da21461012e5780630dc051f8146101385780634048e07c146101685780634125ff901461018657806345734880146101a4575b5f5ffd5b6101366103d4565b005b610152600480360381019061014d9190611259565b6103f7565b60405161015f919061129e565b60405180910390f35b61017061046d565b60405161017d91906112f6565b60405180910390f35b61018e610492565b60405161019b9190611327565b60405180910390f35b6101ac610499565b6040516101b99190611327565b60405180910390f35b6101dc60048036038101906101d79190611259565b6104a0565b6040516101e99190611327565b60405180910390f35b6101fa610516565b60405161020791906112f6565b60405180910390f35b61021861053a565b005b610234600480360381019061022f9190611259565b610597565b604051610241919061129e565b60405180910390f35b610264600480360381019061025f91906113f5565b610602565b6040516102719190611327565b60405180910390f35b610282610907565b60405161028f919061129e565b60405180910390f35b6102b260048036038101906102ad919061148b565b610919565b005b6102ce60048036038101906102c99190611259565b6109c5565b6040516102db919061129e565b60405180910390f35b6102fe60048036038101906102f99190611259565b6109ef565b60405161030b9190611536565b60405180910390f35b61032e6004803603810190610329919061154f565b610abb565b005b61034a60048036038101906103459190611259565b610bc3565b005b610354610dfc565b6040516103619190611327565b60405180910390f35b610384600480360381019061037f9190611259565b610e02565b604051610391919061129e565b60405180910390f35b6103b460048036038101906103af9190611259565b610e2b565b005b6103be6110b9565b6040516103cb9190611327565b60405180910390f35b6103dc6110c2565b5f5f60146101000a81548160ff021916908315150217905550565b5f5f5f1b60025f8481526020019081526020015f205f01541415801561043b575060025f8381526020019081526020015f206002015f9054906101000a900460ff16155b8015610466575060025f8381526020019081526020015f2060020160019054906101000a900460ff16155b9050919050565b60035f9054906101000a900473ffffffffffffffffffffffffffffffffffffffff1681565b62278d0081565b6202a30081565b5f5f5f1b60025f8481526020019081526020015f205f0154036104fa57816040517fe2acee5b0000000000000000000000000000000000000000000000000000000081526004016104f19190611589565b60405180910390fd5b60025f8381526020019081526020015f20600101549050919050565b5f5f9054906101000a900473ffffffffffffffffffffffffffffffffffffffff1681565b6105426110c2565b60015f60146101000a81548160ff0219169083151502179055507f56a7c9bf9dfb88f577de1e2cea5000f3ea7e04c48c04d4a55279c0bd523db5d9334260405161058d9291906115a2565b60405180910390a1565b5f5f60025f8481526020019081526020015f2090505f5f1b815f0154141580156105cf5750806002015f9054906101000a900460ff16155b80156105ea57508060020160019054906101000a900460ff16155b80156105fa575080600101544210155b915050919050565b5f61060b611154565b5f60035f9054906101000a900473ffffffffffffffffffffffffffffffffffffffff1673ffffffffffffffffffffffffffffffffffffffff16630a704f48896040518263ffffffff1660e01b81526004016106669190611589565b602060405180830381865afa158015610681573d5f5f3e3d5ffd5b505050506040513d601f19601f820116820180604052508101906106a591906115ec565b9050600160058111156106bb576106ba611617565b5b8160058111156106ce576106cd611617565b5b1461071057876040517fc60779390000000000000000000000000000000000000000000000000000000081526004016107079190611589565b60405180910390fd5b5f5f1b60025f8a81526020019081526020015f205f01541461076957876040517fd6ad034c0000000000000000000000000000000000000000000000000000000081526004016107609190611589565b60405180910390fd5b600454426107779190611671565b915060405180608001604052808981526020018381526020015f151581526020015f151581525060025f8a81526020019081526020015f205f820151815f0155602082015181600101556040820151816002015f6101000a81548160ff02191690831515021790555060608201518160020160016101000a81548160ff02191690831515021790555090505060035f9054906101000a900473ffffffffffffffffffffffffffffffffffffffff1673ffffffffffffffffffffffffffffffffffffffff1663a1499d7f89846040518363ffffffff1660e01b815260040161085f9291906116a4565b5f604051808303815f87803b158015610876575f5ffd5b505af1158015610888573d5f5f3e3d5ffd5b50505050877f5b94a808fc3c0a585c56b879172a6feb13387225a4b53dcbeddfd72769790429836040516108bc9190611327565b60405180910390a2877f65431b33ae1566469324739cd3024c5e8d7422fa2c54e71fda14b92fd5e8f1ea836040516108f49190611327565b60405180910390a2509695505050505050565b5f60149054906101000a900460ff1681565b6109216110c2565b6202a30081101561096e57806202a3006040517f8ed407380000000000000000000000000000000000000000000000000000000081526004016109659291906116cb565b60405180910390fd5b62278d008111156109bb578062278d006040517f8ed407380000000000000000000000000000000000000000000000000000000081526004016109b29291906116cb565b60405180910390fd5b8060048190555050565b5f60025f8381526020019081526020015f2060020160019054906101000a900460ff169050919050565b6109f76111f6565b5f5f1b60025f8481526020019081526020015f205f015403610a5057816040517fe2acee5b000000000000000000000000000000000000000000000000000000008152600401610a479190611589565b60405180910390fd5b60025f8381526020019081526020015f206040518060800160405290815f820154815260200160018201548152602001600282015f9054906101000a900460ff161515151581526020016002820160019054906101000a900460ff1615151515815250509050919050565b610ac36110c2565b5f73ffffffffffffffffffffffffffffffffffffffff168173ffffffffffffffffffffffffffffffffffffffff1603610b28576040517fd92e233d00000000000000000000000000000000000000000000000000000000815260040160405180910390fd5b7f434a2db650703b36c824e745330d6397cdaa9ee2cc891a4938ae853e1c50b68d5f5f9054906101000a900473ffffffffffffffffffffffffffffffffffffffff1682604051610b799291906116f2565b60405180910390a1805f5f6101000a81548173ffffffffffffffffffffffffffffffffffffffff021916908373ffffffffffffffffffffffffffffffffffffffff16021790555050565b610bcb611154565b5f60025f8381526020019081526020015f2090505f5f1b815f015403610c2857816040517f4a1ae456000000000000000000000000000000000000000000000000000000008152600401610c1f9190611589565b60405180910390fd5b806002015f9054906101000a900460ff1615610c7b57816040517fd6678234000000000000000000000000000000000000000000000000000000008152600401610c729190611589565b60405180910390fd5b8060020160019054906101000a900460ff1615610ccf57816040517fa32a56a4000000000000000000000000000000000000000000000000000000008152600401610cc69190611589565b60405180910390fd5b5f5f9054906101000a900473ffffffffffffffffffffffffffffffffffffffff1673ffffffffffffffffffffffffffffffffffffffff163373ffffffffffffffffffffffffffffffffffffffff1614610d5f57336040517f8e4a23d6000000000000000000000000000000000000000000000000000000008152600401610d5691906112f6565b60405180910390fd5b60018160020160016101000a81548160ff021916908315150217905550817f0aae210989dbd652d48bcde4f12c77bbdc2141e3ad1c46addaba7c780a10974d42604051610dac9190611327565b60405180910390a23373ffffffffffffffffffffffffffffffffffffffff16827f56a54393c88fb71d37dc109609d88e0b586637deb2452aef5f41d3eb32adedfc60405160405180910390a35050565b60045481565b5f60025f8381526020019081526020015f206002015f9054906101000a900460ff169050919050565b610e336111a7565b610e3b611154565b5f60025f8381526020019081526020015f2090505f5f1b815f015403610e9857816040517f4a1ae456000000000000000000000000000000000000000000000000000000008152600401610e8f9190611589565b60405180910390fd5b806002015f9054906101000a900460ff1615610eeb57816040517fd6678234000000000000000000000000000000000000000000000000000000008152600401610ee29190611589565b60405180910390fd5b8060020160019054906101000a900460ff1615610f3f57816040517fa32a56a4000000000000000000000000000000000000000000000000000000008152600401610f369190611589565b60405180910390fd5b8060010154421015610f8e578060010154426040517fe1b256d2000000000000000000000000000000000000000000000000000000008152600401610f859291906116cb565b60405180910390fd5b6001816002015f6101000a81548160ff02191690831515021790555060035f9054906101000a900473ffffffffffffffffffffffffffffffffffffffff1673ffffffffffffffffffffffffffffffffffffffff1663665d4c61836040518263ffffffff1660e01b81526004016110049190611589565b5f604051808303815f87803b15801561101b575f5ffd5b505af115801561102d573d5f5f3e3d5ffd5b50505050817f59ddcdd3eaa38e9c54c7ea4471130c10bd878575fbc55942ce2004441612f63d426040516110619190611327565b60405180910390a23373ffffffffffffffffffffffffffffffffffffffff16827ff20459f0cd23ff5b3028bc90ea400293e55b573e4e60f3b01e45325428994ee160405160405180910390a3506110b66111ed565b50565b5f600454905090565b5f5f9054906101000a900473ffffffffffffffffffffffffffffffffffffffff1673ffffffffffffffffffffffffffffffffffffffff163373ffffffffffffffffffffffffffffffffffffffff161461115257336040517f8e4a23d600000000000000000000000000000000000000000000000000000000815260040161114991906112f6565b60405180910390fd5b565b5f60149054906101000a900460ff16156111a557336040517f8e4a23d600000000000000000000000000000000000000000000000000000000815260040161119c91906112f6565b60405180910390fd5b565b6002600154036111e3576040517fab143c0600000000000000000000000000000000000000000000000000000000815260040160405180910390fd5b6002600181905550565b60018081905550565b60405180608001604052805f81526020015f81526020015f151581526020015f151581525090565b5f5ffd5b5f5ffd5b5f819050919050565b61123881611226565b8114611242575f5ffd5b50565b5f813590506112538161122f565b92915050565b5f6020828403121561126e5761126d61121e565b5b5f61127b84828501611245565b91505092915050565b5f8115159050919050565b61129881611284565b82525050565b5f6020820190506112b15f83018461128f565b92915050565b5f73ffffffffffffffffffffffffffffffffffffffff82169050919050565b5f6112e0826112b7565b9050919050565b6112f0816112d6565b82525050565b5f6020820190506113095f8301846112e7565b92915050565b5f819050919050565b6113218161130f565b82525050565b5f60208201905061133a5f830184611318565b92915050565b611349816112d6565b8114611353575f5ffd5b50565b5f8135905061136481611340565b92915050565b6113738161130f565b811461137d575f5ffd5b50565b5f8135905061138e8161136a565b92915050565b5f5ffd5b5f5ffd5b5f5ffd5b5f5f83601f8401126113b5576113b4611394565b5b8235905067ffffffffffffffff8111156113d2576113d1611398565b5b6020830191508360018202830111156113ee576113ed61139c565b5b9250929050565b5f5f5f5f5f5f60a0878903121561140f5761140e61121e565b5b5f61141c89828a01611245565b965050602061142d89828a01611356565b955050604061143e89828a01611356565b945050606061144f89828a01611380565b935050608087013567ffffffffffffffff8111156114705761146f611222565b5b61147c89828a016113a0565b92509250509295509295509295565b5f602082840312156114a05761149f61121e565b5b5f6114ad84828501611380565b91505092915050565b6114bf81611226565b82525050565b6114ce8161130f565b82525050565b6114dd81611284565b82525050565b608082015f8201516114f75f8501826114b6565b50602082015161150a60208501826114c5565b50604082015161151d60408501826114d4565b50606082015161153060608501826114d4565b50505050565b5f6080820190506115495f8301846114e3565b92915050565b5f602082840312156115645761156361121e565b5b5f61157184828501611356565b91505092915050565b61158381611226565b82525050565b5f60208201905061159c5f83018461157a565b92915050565b5f6040820190506115b55f8301856112e7565b6115c26020830184611318565b9392505050565b600681106115d5575f5ffd5b50565b5f815190506115e6816115c9565b92915050565b5f602082840312156116015761160061121e565b5b5f61160e848285016115d8565b91505092915050565b7f4e487b71000000000000000000000000000000000000000000000000000000005f52602160045260245ffd5b7f4e487b71000000000000000000000000000000000000000000000000000000005f52601160045260245ffd5b5f61167b8261130f565b91506116868361130f565b925082820190508082111561169e5761169d611644565b5b92915050565b5f6040820190506116b75f83018561157a565b6116c46020830184611318565b9392505050565b5f6040820190506116de5f830185611318565b6116eb6020830184611318565b9392505050565b5f6040820190506117055f8301856112e7565b61171260208301846112e7565b939250505056fea26469706673582212200853bfe5a36e5d69b8b4e0f3708790f010c75e6fb0b5d3b3a11f70b324ce507064736f6c63430008210033","linkReferences":{}},"methodIdentifiers":{"DEFAULT_MIN_DELAY()":"45734880","MAX_DELAY()":"4125ff90","cancel(bytes32)":"c4d252f5","emergencyStop()":"63a599a4","execute(bytes32)":"e751f271","getMinDelay()":"f27a0c92","getQueuedItem(bytes32)":"a9aa7372","getUnlockTime(bytes32)":"4b8478c4","governance()":"5aa6e675","isCancelled(bytes32)":"9a5d4407","isExecuted(bytes32)":"e52cb36a","isQueued(bytes32)":"0dc051f8","isReady(bytes32)":"64f9ad36","minDelay()":"c63c4e9b","proposalEngine()":"4048e07c","queue(bytes32,address,address,uint256,bytes)":"6c656dd8","resume()":"046f7da2","stopped()":"75f12b21","updateGovernance(address)":"b2561263","updateMinDelay(uint256)":"8a99d586"},"id":32}